{
  "address": "0x0F96fEa29fAaC971912A6deC62351bfa9673d957",
  "abi": [
    {
      "inputs": [],
      "name": "AmountIsZero",
      "type": "error"
    },
    {
      "inputs": [],
      "name": "CallerIsNotFiller",
      "type": "error"
    },
    {
      "inputs": [],
      "name": "CallerIsNotPredyPool",
      "type": "error"
    },
    {
      "inputs": [],
      "name": "DeadlinePassed",
      "type": "error"
    },
    {
      "inputs": [],
      "name": "EndTimeBeforeStartTime",
      "type": "error"
    },
    {
      "inputs": [],
      "name": "InvalidMarket",
      "type": "error"
    },
    {
      "inputs": [],
      "name": "LimitPriceDoesNotMatch",
      "type": "error"
    },
    {
      "inputs": [],
      "name": "LimitStopOrderDoesNotMatch",
      "type": "error"
    },
    {
      "inputs": [],
      "name": "MarketOrderDoesNotMatch",
      "type": "error"
    },
    {
      "inputs": [],
      "name": "SettlementContractIsNotWhitelisted",
      "type": "error"
    },
    {
      "inputs": [],
      "name": "SignerIsNotVaultOwner",
      "type": "error"
    },
    {
      "inputs": [],
      "name": "StopPriceDoesNotMatch",
      "type": "error"
    },
    {
      "inputs": [],
      "name": "TPSLConditionDoesNotMatch",
      "type": "error"
    },
    {
      "inputs": [],
      "name": "UpdateMarginMustNotBePositive",
      "type": "error"
    },
    {
      "anonymous": false,
      "inputs": [
        {
          "indexed": false,
          "internalType": "uint8",
          "name": "version",
          "type": "uint8"
        }
      ],
      "name": "Initialized",
      "type": "event"
    },
    {
      "anonymous": false,
      "inputs": [
        {
          "indexed": true,
          "internalType": "address",
          "name": "trader",
          "type": "address"
        },
        {
          "indexed": false,
          "internalType": "uint256",
          "name": "pairId",
          "type": "uint256"
        },
        {
          "indexed": false,
          "internalType": "uint256",
          "name": "vaultId",
          "type": "uint256"
        },
        {
          "indexed": false,
          "internalType": "int256",
          "name": "tradeAmount",
          "type": "int256"
        },
        {
          "components": [
            {
              "internalType": "int256",
              "name": "perpEntryUpdate",
              "type": "int256"
            },
            {
              "internalType": "int256",
              "name": "sqrtEntryUpdate",
              "type": "int256"
            },
            {
              "internalType": "int256",
              "name": "sqrtRebalanceEntryUpdateUnderlying",
              "type": "int256"
            },
            {
              "internalType": "int256",
              "name": "sqrtRebalanceEntryUpdateStable",
              "type": "int256"
            },
            {
              "internalType": "int256",
              "name": "perpPayoff",
              "type": "int256"
            },
            {
              "internalType": "int256",
              "name": "sqrtPayoff",
              "type": "int256"
            }
          ],
          "indexed": false,
          "internalType": "struct IPredyPool.Payoff",
          "name": "payoff",
          "type": "tuple"
        },
        {
          "indexed": false,
          "internalType": "int256",
          "name": "fee",
          "type": "int256"
        },
        {
          "indexed": false,
          "internalType": "int256",
          "name": "marginAmount",
          "type": "int256"
        }
      ],
      "name": "PerpTraded",
      "type": "event"
    },
    {
      "anonymous": false,
      "inputs": [
        {
          "indexed": true,
          "internalType": "address",
          "name": "trader",
          "type": "address"
        },
        {
          "indexed": false,
          "internalType": "uint256",
          "name": "pairId",
          "type": "uint256"
        },
        {
          "indexed": false,
          "internalType": "uint256",
          "name": "vaultId",
          "type": "uint256"
        },
        {
          "indexed": false,
          "internalType": "int256",
          "name": "tradeAmount",
          "type": "int256"
        },
        {
          "components": [
            {
              "internalType": "int256",
              "name": "perpEntryUpdate",
              "type": "int256"
            },
            {
              "internalType": "int256",
              "name": "sqrtEntryUpdate",
              "type": "int256"
            },
            {
              "internalType": "int256",
              "name": "sqrtRebalanceEntryUpdateUnderlying",
              "type": "int256"
            },
            {
              "internalType": "int256",
              "name": "sqrtRebalanceEntryUpdateStable",
              "type": "int256"
            },
            {
              "internalType": "int256",
              "name": "perpPayoff",
              "type": "int256"
            },
            {
              "internalType": "int256",
              "name": "sqrtPayoff",
              "type": "int256"
            }
          ],
          "indexed": false,
          "internalType": "struct IPredyPool.Payoff",
          "name": "payoff",
          "type": "tuple"
        },
        {
          "indexed": false,
          "internalType": "int256",
          "name": "fee",
          "type": "int256"
        },
        {
          "indexed": false,
          "internalType": "int256",
          "name": "marginAmount",
          "type": "int256"
        },
        {
          "indexed": false,
          "internalType": "uint64",
          "name": "orderId",
          "type": "uint64"
        }
      ],
      "name": "PerpTraded2",
      "type": "event"
    },
    {
      "inputs": [
        {
          "internalType": "uint256",
          "name": "vaultId",
          "type": "uint256"
        },
        {
          "internalType": "uint256",
          "name": "closeRatio",
          "type": "uint256"
        },
        {
          "components": [
            {
              "internalType": "address",
              "name": "contractAddress",
              "type": "address"
            },
            {
              "internalType": "bytes",
              "name": "encodedData",
              "type": "bytes"
            },
            {
              "internalType": "uint256",
              "name": "maxQuoteAmountPrice",
              "type": "uint256"
            },
            {
              "internalType": "uint256",
              "name": "minQuoteAmountPrice",
              "type": "uint256"
            },
            {
              "internalType": "uint256",
              "name": "price",
              "type": "uint256"
            },
            {
              "internalType": "uint256",
              "name": "feePrice",
              "type": "uint256"
            },
            {
              "internalType": "uint256",
              "name": "minFee",
              "type": "uint256"
            }
          ],
          "internalType": "struct IFillerMarket.SettlementParamsV3",
          "name": "settlementParams",
          "type": "tuple"
        }
      ],
      "name": "execLiquidationCall",
      "outputs": [
        {
          "components": [
            {
              "components": [
                {
                  "internalType": "int256",
                  "name": "perpEntryUpdate",
                  "type": "int256"
                },
                {
                  "internalType": "int256",
                  "name": "sqrtEntryUpdate",
                  "type": "int256"
                },
                {
                  "internalType": "int256",
                  "name": "sqrtRebalanceEntryUpdateUnderlying",
                  "type": "int256"
                },
                {
                  "internalType": "int256",
                  "name": "sqrtRebalanceEntryUpdateStable",
                  "type": "int256"
                },
                {
                  "internalType": "int256",
                  "name": "perpPayoff",
                  "type": "int256"
                },
                {
                  "internalType": "int256",
                  "name": "sqrtPayoff",
                  "type": "int256"
                }
              ],
              "internalType": "struct IPredyPool.Payoff",
              "name": "payoff",
              "type": "tuple"
            },
            {
              "internalType": "uint256",
              "name": "vaultId",
              "type": "uint256"
            },
            {
              "internalType": "int256",
              "name": "fee",
              "type": "int256"
            },
            {
              "internalType": "int256",
              "name": "minMargin",
              "type": "int256"
            },
            {
              "internalType": "int256",
              "name": "averagePrice",
              "type": "int256"
            },
            {
              "internalType": "uint256",
              "name": "sqrtTwap",
              "type": "uint256"
            },
            {
              "internalType": "uint256",
              "name": "sqrtPrice",
              "type": "uint256"
            }
          ],
          "internalType": "struct IPredyPool.TradeResult",
          "name": "",
          "type": "tuple"
        }
      ],
      "stateMutability": "nonpayable",
      "type": "function"
    },
    {
      "inputs": [
        {
          "components": [
            {
              "internalType": "bytes",
              "name": "order",
              "type": "bytes"
            },
            {
              "internalType": "bytes",
              "name": "sig",
              "type": "bytes"
            }
          ],
          "internalType": "struct IFillerMarket.SignedOrder",
          "name": "order",
          "type": "tuple"
        },
        {
          "components": [
            {
              "internalType": "address",
              "name": "contractAddress",
              "type": "address"
            },
            {
              "internalType": "bytes",
              "name": "encodedData",
              "type": "bytes"
            },
            {
              "internalType": "uint256",
              "name": "maxQuoteAmountPrice",
              "type": "uint256"
            },
            {
              "internalType": "uint256",
              "name": "minQuoteAmountPrice",
              "type": "uint256"
            },
            {
              "internalType": "uint256",
              "name": "price",
              "type": "uint256"
            },
            {
              "internalType": "uint256",
              "name": "feePrice",
              "type": "uint256"
            },
            {
              "internalType": "uint256",
              "name": "minFee",
              "type": "uint256"
            }
          ],
          "internalType": "struct IFillerMarket.SettlementParamsV3",
          "name": "settlementParams",
          "type": "tuple"
        }
      ],
      "name": "executeOrderV3",
      "outputs": [
        {
          "components": [
            {
              "components": [
                {
                  "internalType": "int256",
                  "name": "perpEntryUpdate",
                  "type": "int256"
                },
                {
                  "internalType": "int256",
                  "name": "sqrtEntryUpdate",
                  "type": "int256"
                },
                {
                  "internalType": "int256",
                  "name": "sqrtRebalanceEntryUpdateUnderlying",
                  "type": "int256"
                },
                {
                  "internalType": "int256",
                  "name": "sqrtRebalanceEntryUpdateStable",
                  "type": "int256"
                },
                {
                  "internalType": "int256",
                  "name": "perpPayoff",
                  "type": "int256"
                },
                {
                  "internalType": "int256",
                  "name": "sqrtPayoff",
                  "type": "int256"
                }
              ],
              "internalType": "struct IPredyPool.Payoff",
              "name": "payoff",
              "type": "tuple"
            },
            {
              "internalType": "uint256",
              "name": "vaultId",
              "type": "uint256"
            },
            {
              "internalType": "int256",
              "name": "fee",
              "type": "int256"
            },
            {
              "internalType": "int256",
              "name": "minMargin",
              "type": "int256"
            },
            {
              "internalType": "int256",
              "name": "averagePrice",
              "type": "int256"
            },
            {
              "internalType": "uint256",
              "name": "sqrtTwap",
              "type": "uint256"
            },
            {
              "internalType": "uint256",
              "name": "sqrtPrice",
              "type": "uint256"
            }
          ],
          "internalType": "struct IPredyPool.TradeResult",
          "name": "",
          "type": "tuple"
        }
      ],
      "stateMutability": "nonpayable",
      "type": "function"
    },
    {
      "inputs": [
        {
          "components": [
            {
              "internalType": "address",
              "name": "trader",
              "type": "address"
            },
            {
              "internalType": "uint256",
              "name": "nonce",
              "type": "uint256"
            },
            {
              "internalType": "uint256",
              "name": "quantity",
              "type": "uint256"
            },
            {
              "internalType": "uint256",
              "name": "marginAmount",
              "type": "uint256"
            },
            {
              "internalType": "uint256",
              "name": "limitPrice",
              "type": "uint256"
            },
            {
              "internalType": "uint256",
              "name": "stopPrice",
              "type": "uint256"
            },
            {
              "internalType": "bytes32",
              "name": "data1",
              "type": "bytes32"
            },
            {
              "internalType": "bytes",
              "name": "auctionData",
              "type": "bytes"
            }
          ],
          "internalType": "struct PerpOrderV3L2",
          "name": "compressedOrder",
          "type": "tuple"
        },
        {
          "internalType": "bytes",
          "name": "sig",
          "type": "bytes"
        },
        {
          "components": [
            {
              "internalType": "address",
              "name": "contractAddress",
              "type": "address"
            },
            {
              "internalType": "bytes",
              "name": "encodedData",
              "type": "bytes"
            },
            {
              "internalType": "uint256",
              "name": "maxQuoteAmountPrice",
              "type": "uint256"
            },
            {
              "internalType": "uint256",
              "name": "minQuoteAmountPrice",
              "type": "uint256"
            },
            {
              "internalType": "uint256",
              "name": "price",
              "type": "uint256"
            },
            {
              "internalType": "uint256",
              "name": "feePrice",
              "type": "uint256"
            },
            {
              "internalType": "uint256",
              "name": "minFee",
              "type": "uint256"
            }
          ],
          "internalType": "struct IFillerMarket.SettlementParamsV3",
          "name": "settlementParams",
          "type": "tuple"
        },
        {
          "internalType": "uint64",
          "name": "orderId",
          "type": "uint64"
        }
      ],
      "name": "executeOrderV3L2",
      "outputs": [
        {
          "components": [
            {
              "components": [
                {
                  "internalType": "int256",
                  "name": "perpEntryUpdate",
                  "type": "int256"
                },
                {
                  "internalType": "int256",
                  "name": "sqrtEntryUpdate",
                  "type": "int256"
                },
                {
                  "internalType": "int256",
                  "name": "sqrtRebalanceEntryUpdateUnderlying",
                  "type": "int256"
                },
                {
                  "internalType": "int256",
                  "name": "sqrtRebalanceEntryUpdateStable",
                  "type": "int256"
                },
                {
                  "internalType": "int256",
                  "name": "perpPayoff",
                  "type": "int256"
                },
                {
                  "internalType": "int256",
                  "name": "sqrtPayoff",
                  "type": "int256"
                }
              ],
              "internalType": "struct IPredyPool.Payoff",
              "name": "payoff",
              "type": "tuple"
            },
            {
              "internalType": "uint256",
              "name": "vaultId",
              "type": "uint256"
            },
            {
              "internalType": "int256",
              "name": "fee",
              "type": "int256"
            },
            {
              "internalType": "int256",
              "name": "minMargin",
              "type": "int256"
            },
            {
              "internalType": "int256",
              "name": "averagePrice",
              "type": "int256"
            },
            {
              "internalType": "uint256",
              "name": "sqrtTwap",
              "type": "uint256"
            },
            {
              "internalType": "uint256",
              "name": "sqrtPrice",
              "type": "uint256"
            }
          ],
          "internalType": "struct IPredyPool.TradeResult",
          "name": "",
          "type": "tuple"
        }
      ],
      "stateMutability": "nonpayable",
      "type": "function"
    },
    {
      "inputs": [
        {
          "internalType": "address",
          "name": "owner",
          "type": "address"
        },
        {
          "internalType": "uint256",
          "name": "pairId",
          "type": "uint256"
        }
      ],
      "name": "getUserPosition",
      "outputs": [
        {
          "components": [
            {
              "internalType": "uint256",
              "name": "vaultId",
              "type": "uint256"
            },
            {
              "internalType": "uint256",
              "name": "takeProfitPrice",
              "type": "uint256"
            },
            {
              "internalType": "uint256",
              "name": "stopLossPrice",
              "type": "uint256"
            },
            {
              "internalType": "uint64",
              "name": "slippageTolerance",
              "type": "uint64"
            },
            {
              "internalType": "uint8",
              "name": "lastLeverage",
              "type": "uint8"
            }
          ],
          "internalType": "struct PerpMarketV1.UserPosition",
          "name": "userPosition",
          "type": "tuple"
        },
        {
          "components": [
            {
              "internalType": "uint256",
              "name": "id",
              "type": "uint256"
            },
            {
              "internalType": "int256",
              "name": "vaultValue",
              "type": "int256"
            },
            {
              "internalType": "int256",
              "name": "minMargin",
              "type": "int256"
            },
            {
              "internalType": "uint256",
              "name": "oraclePrice",
              "type": "uint256"
            },
            {
              "components": [
                {
                  "internalType": "int256",
                  "name": "feeAmountBase",
                  "type": "int256"
                },
                {
                  "internalType": "int256",
                  "name": "feeAmountQuote",
                  "type": "int256"
                }
              ],
              "internalType": "struct DataType.FeeAmount",
              "name": "feeAmount",
              "type": "tuple"
            },
            {
              "components": [
                {
                  "internalType": "int256",
                  "name": "margin",
                  "type": "int256"
                },
                {
                  "internalType": "int256",
                  "name": "amountQuote",
                  "type": "int256"
                },
                {
                  "internalType": "int256",
                  "name": "amountSqrt",
                  "type": "int256"
                },
                {
                  "internalType": "int256",
                  "name": "amountBase",
                  "type": "int256"
                }
              ],
              "internalType": "struct IPredyPool.Position",
              "name": "position",
              "type": "tuple"
            }
          ],
          "internalType": "struct IPredyPool.VaultStatus",
          "name": "vaultStatus",
          "type": "tuple"
        },
        {
          "components": [
            {
              "internalType": "uint256",
              "name": "id",
              "type": "uint256"
            },
            {
              "internalType": "address",
              "name": "marginId",
              "type": "address"
            },
            {
              "internalType": "address",
              "name": "owner",
              "type": "address"
            },
            {
              "internalType": "address",
              "name": "recipient",
              "type": "address"
            },
            {
              "internalType": "int256",
              "name": "margin",
              "type": "int256"
            },
            {
              "components": [
                {
                  "internalType": "uint256",
                  "name": "pairId",
                  "type": "uint256"
                },
                {
                  "internalType": "int24",
                  "name": "rebalanceLastTickLower",
                  "type": "int24"
                },
                {
                  "internalType": "int24",
                  "name": "rebalanceLastTickUpper",
                  "type": "int24"
                },
                {
                  "internalType": "uint64",
                  "name": "lastNumRebalance",
                  "type": "uint64"
                },
                {
                  "components": [
                    {
                      "internalType": "int256",
                      "name": "amount",
                      "type": "int256"
                    },
                    {
                      "internalType": "int256",
                      "name": "entryValue",
                      "type": "int256"
                    }
                  ],
                  "internalType": "struct Perp.PositionStatus",
                  "name": "perp",
                  "type": "tuple"
                },
                {
                  "components": [
                    {
                      "internalType": "int256",
                      "name": "amount",
                      "type": "int256"
                    },
                    {
                      "internalType": "int256",
                      "name": "entryValue",
                      "type": "int256"
                    },
                    {
                      "internalType": "int256",
                      "name": "quoteRebalanceEntryValue",
                      "type": "int256"
                    },
                    {
                      "internalType": "int256",
                      "name": "baseRebalanceEntryValue",
                      "type": "int256"
                    },
                    {
                      "internalType": "uint256",
                      "name": "entryTradeFee0",
                      "type": "uint256"
                    },
                    {
                      "internalType": "uint256",
                      "name": "entryTradeFee1",
                      "type": "uint256"
                    }
                  ],
                  "internalType": "struct Perp.SqrtPositionStatus",
                  "name": "sqrtPerp",
                  "type": "tuple"
                },
                {
                  "components": [
                    {
                      "internalType": "int256",
                      "name": "positionAmount",
                      "type": "int256"
                    },
                    {
                      "internalType": "uint256",
                      "name": "lastFeeGrowth",
                      "type": "uint256"
                    }
                  ],
                  "internalType": "struct ScaledAsset.UserStatus",
                  "name": "basePosition",
                  "type": "tuple"
                },
                {
                  "components": [
                    {
                      "internalType": "int256",
                      "name": "positionAmount",
                      "type": "int256"
                    },
                    {
                      "internalType": "uint256",
                      "name": "lastFeeGrowth",
                      "type": "uint256"
                    }
                  ],
                  "internalType": "struct ScaledAsset.UserStatus",
                  "name": "stablePosition",
                  "type": "tuple"
                }
              ],
              "internalType": "struct Perp.UserStatus",
              "name": "openPosition",
              "type": "tuple"
            }
          ],
          "internalType": "struct DataType.Vault",
          "name": "vault",
          "type": "tuple"
        }
      ],
      "stateMutability": "nonpayable",
      "type": "function"
    },
    {
      "inputs": [
        {
          "internalType": "contract IPredyPool",
          "name": "predyPool",
          "type": "address"
        },
        {
          "internalType": "address",
          "name": "permit2Address",
          "type": "address"
        },
        {
          "internalType": "address",
          "name": "whitelistFiller",
          "type": "address"
        },
        {
          "internalType": "address",
          "name": "quoterAddress",
          "type": "address"
        }
      ],
      "name": "initialize",
      "outputs": [],
      "stateMutability": "nonpayable",
      "type": "function"
    },
    {
      "inputs": [
        {
          "internalType": "address",
          "name": "quoteToken",
          "type": "address"
        },
        {
          "internalType": "address",
          "name": "baseToken",
          "type": "address"
        },
        {
          "internalType": "bytes",
          "name": "settlementData",
          "type": "bytes"
        },
        {
          "internalType": "int256",
          "name": "baseAmountDelta",
          "type": "int256"
        }
      ],
      "name": "predySettlementCallback",
      "outputs": [],
      "stateMutability": "nonpayable",
      "type": "function"
    },
    {
      "inputs": [
        {
          "components": [
            {
              "internalType": "uint256",
              "name": "pairId",
              "type": "uint256"
            },
            {
              "internalType": "uint256",
              "name": "vaultId",
              "type": "uint256"
            },
            {
              "internalType": "int256",
              "name": "tradeAmount",
              "type": "int256"
            },
            {
              "internalType": "int256",
              "name": "tradeAmountSqrt",
              "type": "int256"
            },
            {
              "internalType": "bytes",
              "name": "extraData",
              "type": "bytes"
            }
          ],
          "internalType": "struct IPredyPool.TradeParams",
          "name": "tradeParams",
          "type": "tuple"
        },
        {
          "components": [
            {
              "components": [
                {
                  "internalType": "int256",
                  "name": "perpEntryUpdate",
                  "type": "int256"
                },
                {
                  "internalType": "int256",
                  "name": "sqrtEntryUpdate",
                  "type": "int256"
                },
                {
                  "internalType": "int256",
                  "name": "sqrtRebalanceEntryUpdateUnderlying",
                  "type": "int256"
                },
                {
                  "internalType": "int256",
                  "name": "sqrtRebalanceEntryUpdateStable",
                  "type": "int256"
                },
                {
                  "internalType": "int256",
                  "name": "perpPayoff",
                  "type": "int256"
                },
                {
                  "internalType": "int256",
                  "name": "sqrtPayoff",
                  "type": "int256"
                }
              ],
              "internalType": "struct IPredyPool.Payoff",
              "name": "payoff",
              "type": "tuple"
            },
            {
              "internalType": "uint256",
              "name": "vaultId",
              "type": "uint256"
            },
            {
              "internalType": "int256",
              "name": "fee",
              "type": "int256"
            },
            {
              "internalType": "int256",
              "name": "minMargin",
              "type": "int256"
            },
            {
              "internalType": "int256",
              "name": "averagePrice",
              "type": "int256"
            },
            {
              "internalType": "uint256",
              "name": "sqrtTwap",
              "type": "uint256"
            },
            {
              "internalType": "uint256",
              "name": "sqrtPrice",
              "type": "uint256"
            }
          ],
          "internalType": "struct IPredyPool.TradeResult",
          "name": "tradeResult",
          "type": "tuple"
        }
      ],
      "name": "predyTradeAfterCallback",
      "outputs": [],
      "stateMutability": "nonpayable",
      "type": "function"
    },
    {
      "inputs": [
        {
          "components": [
            {
              "components": [
                {
                  "internalType": "address",
                  "name": "market",
                  "type": "address"
                },
                {
                  "internalType": "address",
                  "name": "trader",
                  "type": "address"
                },
                {
                  "internalType": "uint256",
                  "name": "nonce",
                  "type": "uint256"
                },
                {
                  "internalType": "uint256",
                  "name": "deadline",
                  "type": "uint256"
                }
              ],
              "internalType": "struct OrderInfo",
              "name": "info",
              "type": "tuple"
            },
            {
              "internalType": "uint64",
              "name": "pairId",
              "type": "uint64"
            },
            {
              "internalType": "address",
              "name": "entryTokenAddress",
              "type": "address"
            },
            {
              "internalType": "string",
              "name": "side",
              "type": "string"
            },
            {
              "internalType": "uint256",
              "name": "quantity",
              "type": "uint256"
            },
            {
              "internalType": "uint256",
              "name": "marginAmount",
              "type": "uint256"
            },
            {
              "internalType": "uint256",
              "name": "limitPrice",
              "type": "uint256"
            },
            {
              "internalType": "uint256",
              "name": "stopPrice",
              "type": "uint256"
            },
            {
              "internalType": "uint8",
              "name": "leverage",
              "type": "uint8"
            },
            {
              "internalType": "bool",
              "name": "reduceOnly",
              "type": "bool"
            },
            {
              "internalType": "bool",
              "name": "closePosition",
              "type": "bool"
            },
            {
              "internalType": "bytes",
              "name": "auctionData",
              "type": "bytes"
            }
          ],
          "internalType": "struct PerpOrderV3",
          "name": "perpOrder",
          "type": "tuple"
        },
        {
          "components": [
            {
              "internalType": "address",
              "name": "contractAddress",
              "type": "address"
            },
            {
              "internalType": "bytes",
              "name": "encodedData",
              "type": "bytes"
            },
            {
              "internalType": "uint256",
              "name": "maxQuoteAmountPrice",
              "type": "uint256"
            },
            {
              "internalType": "uint256",
              "name": "minQuoteAmountPrice",
              "type": "uint256"
            },
            {
              "internalType": "uint256",
              "name": "price",
              "type": "uint256"
            },
            {
              "internalType": "uint256",
              "name": "feePrice",
              "type": "uint256"
            },
            {
              "internalType": "uint256",
              "name": "minFee",
              "type": "uint256"
            }
          ],
          "internalType": "struct IFillerMarket.SettlementParamsV3",
          "name": "settlementParams",
          "type": "tuple"
        },
        {
          "internalType": "address",
          "name": "filler",
          "type": "address"
        }
      ],
      "name": "quoteExecuteOrderV3",
      "outputs": [],
      "stateMutability": "nonpayable",
      "type": "function"
    },
    {
      "inputs": [
        {
          "internalType": "uint256",
          "name": "pairId",
          "type": "uint256"
        },
        {
          "components": [
            {
              "internalType": "address",
              "name": "contractAddress",
              "type": "address"
            },
            {
              "internalType": "bytes",
              "name": "encodedData",
              "type": "bytes"
            },
            {
              "internalType": "uint256",
              "name": "maxQuoteAmountPrice",
              "type": "uint256"
            },
            {
              "internalType": "uint256",
              "name": "minQuoteAmountPrice",
              "type": "uint256"
            },
            {
              "internalType": "uint256",
              "name": "price",
              "type": "uint256"
            },
            {
              "internalType": "uint256",
              "name": "feePrice",
              "type": "uint256"
            },
            {
              "internalType": "uint256",
              "name": "minFee",
              "type": "uint256"
            }
          ],
          "internalType": "struct IFillerMarket.SettlementParamsV3",
          "name": "settlementParams",
          "type": "tuple"
        }
      ],
      "name": "reallocate",
      "outputs": [
        {
          "internalType": "bool",
          "name": "relocationOccurred",
          "type": "bool"
        }
      ],
      "stateMutability": "nonpayable",
      "type": "function"
    },
    {
      "inputs": [
        {
          "internalType": "uint256",
          "name": "pairId",
          "type": "uint256"
        }
      ],
      "name": "updateQuoteTokenMap",
      "outputs": [],
      "stateMutability": "nonpayable",
      "type": "function"
    },
    {
      "inputs": [
        {
          "internalType": "address",
          "name": "newQuoter",
          "type": "address"
        }
      ],
      "name": "updateQuoter",
      "outputs": [],
      "stateMutability": "nonpayable",
      "type": "function"
    },
    {
      "inputs": [
        {
          "internalType": "address",
          "name": "newWhitelistFiller",
          "type": "address"
        }
      ],
      "name": "updateWhitelistFiller",
      "outputs": [],
      "stateMutability": "nonpayable",
      "type": "function"
    },
    {
      "inputs": [
        {
          "internalType": "address",
          "name": "settlementContractAddress",
          "type": "address"
        },
        {
          "internalType": "bool",
          "name": "isEnabled",
          "type": "bool"
        }
      ],
      "name": "updateWhitelistSettlement",
      "outputs": [],
      "stateMutability": "nonpayable",
      "type": "function"
    },
    {
      "inputs": [
        {
          "internalType": "address",
          "name": "owner",
          "type": "address"
        },
        {
          "internalType": "uint256",
          "name": "pairId",
          "type": "uint256"
        }
      ],
      "name": "userPositions",
      "outputs": [
        {
          "internalType": "uint256",
          "name": "vaultId",
          "type": "uint256"
        },
        {
          "internalType": "uint256",
          "name": "takeProfitPrice",
          "type": "uint256"
        },
        {
          "internalType": "uint256",
          "name": "stopLossPrice",
          "type": "uint256"
        },
        {
          "internalType": "uint64",
          "name": "slippageTolerance",
          "type": "uint64"
        },
        {
          "internalType": "uint8",
          "name": "lastLeverage",
          "type": "uint8"
        }
      ],
      "stateMutability": "view",
      "type": "function"
    },
    {
      "inputs": [],
      "name": "whitelistFiller",
      "outputs": [
        {
          "internalType": "address",
          "name": "",
          "type": "address"
        }
      ],
      "stateMutability": "view",
      "type": "function"
    }
  ],
  "transactionHash": "0x88a7912c96faeda3c991b2b6ae16f94503258d9e0f98983bb5a6e4fb8d4ec526",
  "args": [],
  "numDeployments": 16,
  "solcInputHash": "15ffc570c407fc40e640cf84195dd3c7",
  "bytecode": "0x608060405234801561001057600080fd5b50614d40806100206000396000f3fe608060405234801561001057600080fd5b50600436106100f55760003560e01c80637157acb611610097578063ea2f788c11610066578063ea2f788c14610278578063f54a815d146102a3578063f8c8765e146102b6578063ff8f009a146102c957600080fd5b80637157acb61461022c578063944b560b1461023f5780639a96259214610252578063e1c951ca1461026557600080fd5b80632e973ed6116100d35780632e973ed61461015a578063426172d61461016d57806346e13fb5146101805780635e1b4d99146101a357600080fd5b8063085090d6146100fa5780631b34cd921461010f5780631c88ef1e14610138575b600080fd5b61010d6101083660046130b1565b6102dc565b005b61012261011d3660046131a4565b61034c565b60405161012f9190613295565b60405180910390f35b61014b6101463660046132ef565b61039c565b60405161012f939291906133f8565b61010d6101683660046134c2565b610554565b61010d61017b3660046134fb565b6105aa565b61019361018e366004613518565b6105f7565b604051901515815260200161012f565b6101f86101b13660046132ef565b60386020908152600092835260408084209091529082529020805460018201546002830154600390930154919290916001600160401b03811690600160401b900460ff1685565b604080519586526020860194909452928401919091526001600160401b0316606083015260ff16608082015260a00161012f565b61010d61023a3660046135e6565b610681565b61010d61024d3660046137fc565b610911565b61010d6102603660046134fb565b610b3c565b61010d6102733660046138a5565b610b89565b60015461028b906001600160a01b031681565b6040516001600160a01b03909116815260200161012f565b6101226102b13660046138be565b610bde565b61010d6102c436600461390d565b610c73565b6101226102d7366004613969565b610db2565b6000546201000090046001600160a01b0316331461030d57604051637542ed5d60e11b815260040160405180910390fd5b60006103198383610f77565b90506103266004826110ce565b600054610345906201000090046001600160a01b031686868486611129565b5050505050565b610354612cbc565b61035c6111e8565b600083600001518060200190518101906103769190613b6a565b9050610389818560200151856000611241565b9150506103966001600555565b92915050565b6103da6040518060a0016040528060008152602001600081526020016000815260200160006001600160401b03168152602001600060ff1681525090565b6103e2612d30565b6103ea612da9565b6001600160a01b0385166000908152603860209081526040808320878452825291829020825160a0810184528154808252600183015493820193909352600282015493810193909352600301546001600160401b0381166060840152600160401b900460ff1660808301529093501561054d576002548351604051630382bbf160e51b8152600481019190915284916001600160a01b0316906370577e2090602401610140604051808303816000875af11580156104ac573d6000803e3d6000fd5b505050506040513d601f19601f820116820180604052508101906104d09190613cc6565b6000548551604051632500ed8d60e21b81526004810191909152620100009091046001600160a01b031690639403b634906024016102a060405180830381865afa158015610522573d6000803e3d6000fd5b505050506040513d601f19601f820116820180604052508101906105469190613dd2565b9250925092505b9250925092565b6001546001600160a01b0316331461057f57604051638173c76360e01b815260040160405180910390fd5b6001600160a01b03919091166000908152600460205260409020805460ff1916911515919091179055565b6001546001600160a01b031633146105d557604051638173c76360e01b815260040160405180910390fd5b600280546001600160a01b0319166001600160a01b0392909216919091179055565b600080546201000090046001600160a01b0316638670d9dc8461061a85336115cb565b6040518363ffffffff1660e01b8152600401610637929190613f14565b6020604051808303816000875af1158015610656573d6000803e3d6000fd5b505050506040513d601f19601f8201168201806040525081019061067a9190613f2d565b9392505050565b82516020908101516001600160a01b039081166000908152603883526040808220848801516001600160401b039081168452908552818320825160a08101845281548082526001830154978201979097526002820154818501526003909101549182166060820152600160401b90910460ff16608082015282549151632500ed8d60e21b8152600481019590955293919261079192620100009092041690639403b634906024016102a060405180830381865afa158015610746573d6000803e3d6000fd5b505050506040513d601f19601f8201168201806040525081019061076a9190613dd2565b60a0015160800151600001518660600151876080015188610120015189610140015161165c565b9050806000036107b4576040516310eb483f60e21b815260040160405180910390fd5b600060029054906101000a90046001600160a01b03166001600160a01b031663cd1b7a036040518060a0016040528088602001516001600160401b0316815260200185600001518152602001848152602001600081526020016040518060c0016040528060038081111561082a5761082a613f4a565b81526020018a60000151602001516001600160a01b03168152602001600081526020018a610100015160ff1681526020016108748b6040518060200160405280600081525061178d565b8152600060209182015260405161088c929101613fcd565b6040516020818303038152906040528152506108a887876115cb565b6040518363ffffffff1660e01b81526004016108c5929190614068565b610180604051808303816000875af11580156108e5573d6000803e3d6000fd5b505050506040513d601f19601f8201168201806040525081019061090991906140c0565b505050505050565b6000546201000090046001600160a01b0316331461094257604051637542ed5d60e11b815260040160405180910390fd5b6000826080015180602001905181019061095c91906141f9565b9050600061096d8460000151611821565b905060028251600381111561098457610984613f4a565b0361099757610992836118a2565b610b36565b6003825160038111156109ac576109ac613f4a565b036109ba57610992836118a2565b6001825160038111156109cf576109cf613f4a565b03610b365760006109f085602001518660000151856060015160ff166118ce565b90506000808213156109ff5750805b610a0d846080015182611a0a565b6000821315610a3b57600054610a36906001600160a01b03858116916201000090041684611b88565b610aca565b6000821215610aca57600060029054906101000a90046001600160a01b03166001600160a01b031663c6b6d3406001866020015185610a79906142cf565b6040518463ffffffff1660e01b8152600401610a97939291906142eb565b600060405180830381600087803b158015610ab157600080fd5b505af1158015610ac5573d6000803e3d6000fd5b505050505b83602001516001600160a01b03167fb69a4e63dff8f87eaa05dd31248752bf398b7e15b7b328531c1257038c64ed3387600001518760200151896040015189600001518a60400151888b60a00151604051610b2b979695949392919061430c565b60405180910390a250505b50505050565b6001546001600160a01b03163314610b6757604051638173c76360e01b815260040160405180910390fd5b600180546001600160a01b0319166001600160a01b0392909216919091179055565b6000818152600360205260409020546001600160a01b0316610bdb57610bae81611821565b600082815260036020526040902080546001600160a01b0319166001600160a01b03929092169190911790555b50565b610be6612cbc565b6000546201000090046001600160a01b031663ce1ff5aa8585610c0986336115cb565b6040518463ffffffff1660e01b8152600401610c2793929190614359565b610180604051808303816000875af1158015610c47573d6000803e3d6000fd5b505050506040513d601f19601f82011682018060405250810190610c6b91906140c0565b949350505050565b600054610100900460ff1615808015610c935750600054600160ff909116105b80610cad5750303b158015610cad575060005460ff166001145b610d155760405162461bcd60e51b815260206004820152602e60248201527f496e697469616c697a61626c653a20636f6e747261637420697320616c72656160448201526d191e481a5b9a5d1a585b1a5e995960921b60648201526084015b60405180910390fd5b6000805460ff191660011790558015610d38576000805461ff0019166101001790555b610d40611c09565b610d4b858484611c3a565b603780546001600160a01b0319166001600160a01b0386161790558015610345576000805461ff0019169055604051600181527f7f26b83ff96e1f2b6a682f133852f6798a09c465da95921460cefb38474024989060200160405180910390a15050505050565b610dba612cbc565b610dc26111e8565b600080600080600080610e148b60c001516001600160401b0381811692604083901c90911691608081901c60ff908116926001608884901c8316811493609081901c841682149360989190911c161490565b95509550955095509550955060006040518061018001604052806040518060800160405280306001600160a01b031681526020018f600001516001600160a01b031681526020018f6020015181526020018a6001600160401b03168152508152602001876001600160401b0316815260200160036000896001600160401b0316815260200190815260200160002060009054906101000a90046001600160a01b03166001600160a01b0316815260200183610eeb576040518060400160405280600481526020016314d95b1b60e21b815250610f08565b6040518060400160405280600381526020016242757960e81b8152505b81526020018d6040015181526020018d6060015181526020018d6080015181526020018d60a0015181526020018660ff168152602001851515815260200184151581526020018d60e001518152509050610f64818c8c8c611241565b975050505050505050610c6b6001600555565b610fc26040518060c0016040528060006001600160a01b0316815260200160006001600160a01b03168152602001606081526020016000815260200160008152602001600081525090565b600083806020019051810190610fd89190614378565b90506000610fe584611c99565b90506000600160601b828460c00151610ffe919061443c565b6110089190614453565b90508260e0015181101561101d575060e08201515b6000600160601b838560600151611034919061443c565b61103e9190614453565b90506000600160601b848660800151611057919061443c565b6110619190614453565b90506040518060c0016040528086600001516001600160a01b0316815260200186602001516001600160a01b0316815260200186604001518152602001600089136110ac57836110ae565b825b81526020018660a001518152602001848152509550505050505092915050565b60208101516001600160a01b03161580159061110757506020808201516001600160a01b0316600090815290839052604090205460ff16155b1561112557604051633ff0e84360e11b815260040160405180910390fd5b5050565b60008260a00151121561115f5761115f8260000151868460a0015161114d906142cf565b6001600160a01b038816929190611cb5565b61116c8585858585611d4a565b60008260a00151131561034557815160a083015160405163031adb4d60e61b81526001600160a01b0388169263c6b6d340926111af9260019291906004016142eb565b600060405180830381600087803b1580156111c957600080fd5b505af11580156111dd573d6000803e3d6000fd5b505050505050505050565b60026005540361123a5760405162461bcd60e51b815260206004820152601f60248201527f5265656e7472616e637947756172643a207265656e7472616e742063616c6c006044820152606401610d0c565b6002600555565b611249612cbc565b6000611255868661178d565b905061127286602001516001600160401b03168760400151611d98565b85516020908101516001600160a01b039081166000908152603883526040808220848b01516001600160401b031683529093528281206101008a015160038201805460ff909216600160401b0268ff000000000000000019909216919091179055815481549451632500ed8d60e21b81529194929361137393620100009092041691639403b6349161130a9160040190815260200190565b6102a060405180830381865afa158015611328573d6000803e3d6000fd5b505050506040513d601f19601f8201168201806040525081019061134c9190613dd2565b60a00151608001516000015189606001518a608001518b61012001518c610140015161165c565b905080600003611396576040516310eb483f60e21b815260040160405180910390fd5b600060029054906101000a90046001600160a01b03166001600160a01b031663cd1b7a036040518060a001604052808b602001516001600160401b0316815260200185600001548152602001848152602001600081526020016040518060c001604052806001600381111561140d5761140d613f4a565b81526020018d60000151602001516001600160a01b03168152602001600081526020018d610100015160ff1681526020018881526020018a6001600160401b03168152506040516020016114619190613fcd565b60405160208183030381529060405281525061147d89336115cb565b6040518363ffffffff1660e01b815260040161149a929190614068565b610180604051808303816000875af11580156114ba573d6000803e3d6000fd5b505050506040513d601f19601f820116820180604052508101906114de91906140c0565b9350600084606001511315611518576001546001600160a01b0316331461151857604051638173c76360e01b815260040160405180910390fd5b815460000361159f576020848101518084556000548a519092015160405163055a6d9b60e51b815260048101929092526001600160a01b039081166024830152620100009092049091169063ab4db36090604401600060405180830381600087803b15801561158657600080fd5b505af115801561159a573d6000803e3d6000fd5b505050505b6115b984828a60c001518b60e001518c6101600151611de0565b505050949350505050565b6001600555565b6060604051806101000160405280836001600160a01b0316815260200184600001516001600160a01b03168152602001846020015181526020018460400151815260200184606001518152602001846080015181526020018460a0015181526020018460c001518152506040516020016116459190614475565b604051602081830303815290604052905092915050565b60408051808201909152600381526242757960e81b6020918201528451908501206000907f85bc0fdda630693f7eb9d27232dd4b373ff0c495943884038449200ada7d93e61481816116b6576116b1866142cf565b6116b8565b855b9050831561170f578180156116ce575060008812155b156116de57600092505050611784565b811580156116ed575060008813155b156116fd57600092505050611784565b611706886142cf565b92505050611784565b8415611780578760000361172857600092505050611784565b600088131561175e57600081121561175357611743816142cf565b8813156116fd5791506117849050565b600092505050611784565b60008113156117535780611771896142cf565b13156116fd5791506117849050565b9150505b95945050505050565b6040805161012081018252600060a0820181815260c0830182905260e08301829052610100830182905282526020820181905291810182905260608082019290925260808101919091526040518060a001604052808460000151815260200184604001516001600160a01b031681526020018460a00151815260200161181285611f2d565b81526020019290925250919050565b6000805460405163324abcfb60e21b81526004810184905282916201000090046001600160a01b03169063c92af3ec906024016107a060405180830381865afa158015611872573d6000803e3d6000fd5b505050506040513d601f19601f8201168201806040525081019061189691906147a2565b60600151519392505050565b6000816040516020016118b59190613295565b6040516020818303038152906040529050805181602001fd5b60008054604051632500ed8d60e21b81526004810186905282916201000090046001600160a01b031690639403b634906024016102a060405180830381865afa15801561191f573d6000803e3d6000fd5b505050506040513d601f19601f820116820180604052508101906119439190613dd2565b6000805460405163acfcd9fd60e01b8152600481018890529293509091620100009091046001600160a01b03169063acfcd9fd90602401602060405180830381865afa158015611997573d6000803e3d6000fd5b505050506040513d601f19601f820116820180604052508101906119bb919061488d565b905060006119c882612089565b905060006119d6848361209a565b90506119e284846120ca565b6119f46119ef8884614453565b6120f1565b6119fe91906148a6565b98975050505050505050565b611a138261215b565b6037546001600160a01b031663137c29fe611a99846040805160a0810182526000606082018181526080830182905282526020820181905291810191909152506040805160a0810182526020808401516001600160a01b031660608084019182528585015160808501529083528451840151918301919091529251909201519082015290565b6040518060400160405280306001600160a01b03168152602001858152508560000151602001518660600151604051806080016040528060478152602001614cc460479139604051602001611aed906148cd565b60408051601f1981840301815260608301909152602e808352909190614c966020830139604051602001611b2393929190614a2b565b60408051601f198184030181529082905260808a01516001600160e01b031960e089901b168352611b5a9695949392600401614a94565b600060405180830381600087803b158015611b7457600080fd5b505af1158015610909573d6000803e3d6000fd5b600060405163a9059cbb60e01b81526001600160a01b0384166004820152826024820152602060006044836000895af13d15601f3d1160016000511416171691505080610b365760405162461bcd60e51b815260206004820152600f60248201526e1514905394d1915497d19052531151608a1b6044820152606401610d0c565b600054610100900460ff16611c305760405162461bcd60e51b8152600401610d0c90614b37565b611c386121ac565b565b600054610100900460ff16611c615760405162461bcd60e51b8152600401610d0c90614b37565b611c6a836121d3565b600180546001600160a01b039384166001600160a01b0319918216179091556002805492909316911617905550565b600080821215611cb157611cac826142cf565b610396565b5090565b60006040516323b872dd60e01b81526001600160a01b03851660048201526001600160a01b03841660248201528260448201526020600060648360008a5af13d15601f3d11600160005114161716915050806103455760405162461bcd60e51b81526020600482015260146024820152731514905394d1915497d19493d357d1905253115160621b6044820152606401610d0c565b6000811315611d6f57611d6a858585858660000151876080015187612224565b610345565b600081121561034557610345858585858660000151876080015187611d93906142cf565b6124e9565b6000828152600360205260409020546001600160a01b031615801590611dd757506000828152600360205260409020546001600160a01b038281169116145b61112557600080fd5b6000611deb85611c99565b865160808101519051600160601b91611e0d91611e089190614b82565b611c99565b611e17919061443c565b611e219190614453565b90506000611e328760a00151612089565b905084158015611e40575083155b15611e7257611e50828785612792565b611e6d57604051630e90db3960e01b815260040160405180910390fd5b611f24565b600085118015611e825750600084115b15611ec757611e9282878761281b565b158015611ea95750611ea7818388878761286f565b155b15611e6d576040516361c943ff60e11b815260040160405180910390fd5b8415611ef557611ed882878761281b565b611e6d57604051632b51380360e11b815260040160405180910390fd5b8315611f2457611f08818388878761286f565b611f245760405162aa9cbd60e61b815260040160405180910390fd5b50505050505050565b6000604051602001611f3e906148cd565b60408051601f19818403018152608083019091526047808352909190614cc46020830139604051602001611f73929190614baa565b60405160208183030381529060405280519060200120611f968360000151612935565b8360200151846040015185606001518051906020012086608001518760a001518860c001518960e001518a61010001518b61012001518c61014001518d61016001518051906020012060405160200161206c9d9c9b9a999897969594939291909c8d5260208d019b909b526001600160401b039990991660408c01526001600160a01b039790971660608b015260808a019590955260a089019390935260c088019190915260e087015261010086015260ff16610120850152151561014084015215156101608301526101808201526101a00190565b604051602081830303815290604052805190602001209050919050565b60006103968283600160601b61299f565b60a08201516080015151600090600160601b836120b683611c99565b6120c0919061443c565b610c6b9190614453565b600082608001516120e7836120e28660a00151612a51565b612abd565b61067a9190614b82565b60006001600160ff1b03821115611cb15760405162461bcd60e51b815260206004820152602860248201527f53616665436173743a2076616c756520646f65736e27742066697420696e2061604482015267371034b73a191a9b60c11b6064820152608401610d0c565b8051516001600160a01b0316301461218657604051639db8d5b160e01b815260040160405180910390fd5b805160600151421115610bdb5760405163387b2e5560e11b815260040160405180910390fd5b600054610100900460ff166115c45760405162461bcd60e51b8152600401610d0c90614b37565b600054610100900460ff166121fa5760405162461bcd60e51b8152600401610d0c90614b37565b600080546001600160a01b03909216620100000262010000600160b01b0319909216919091179055565b60208401516001600160a01b03166122d3576000600160601b612247848461443c565b6122519190614453565b60405163031adb4d60e61b81529091506001600160a01b0389169063c6b6d3409061228590600090889087906004016142eb565b600060405180830381600087803b15801561229f57600080fd5b505af11580156122b3573d6000803e3d6000fd5b506122cd925050506001600160a01b038816858a84611cb5565b50611f24565b60405163031adb4d60e61b81526001600160a01b0388169063c6b6d3409061230490600090309086906004016142eb565b600060405180830381600087803b15801561231e57600080fd5b505af1158015612332573d6000803e3d6000fd5b50505050602084015160405163095ea7b360e01b81526001600160a01b039182166004820152602481018390529086169063095ea7b3906044016020604051808303816000875af115801561238b573d6000803e3d6000fd5b505050506040513d601f19601f820116820180604052508101906123af9190613f2d565b50600084602001516001600160a01b0316624fb85188888860400151868a60600151306040518763ffffffff1660e01b81526004016123f396959493929190614bd9565b6020604051808303816000875af1158015612412573d6000803e3d6000fd5b505050506040513d601f19601f82011682018060405250810190612436919061488d565b905082600003612459576124546001600160a01b0388168983611b88565b6124df565b6000600160601b61246a858561443c565b6124749190614453565b9050818111156124a45761249f853061248d8585614c23565b6001600160a01b038c16929190611cb5565b6124cb565b808211156124cb576124cb856124ba8385614c23565b6001600160a01b038b169190611b88565b6111dd6001600160a01b0389168a83611b88565b5050505050505050565b60208401516001600160a01b0316612592576000600160601b61250c848461443c565b6125169190614453565b60405163031adb4d60e61b81529091506001600160a01b0389169063c6b6d3409061254a90600190889086906004016142eb565b600060405180830381600087803b15801561256457600080fd5b505af1158015612578573d6000803e3d6000fd5b506122cd925050506001600160a01b038716858a85611cb5565b606084015160405163031adb4d60e61b81526001600160a01b0389169163c6b6d340916125c7916001913091906004016142eb565b600060405180830381600087803b1580156125e157600080fd5b505af11580156125f5573d6000803e3d6000fd5b505050506020840151606085015160405163095ea7b360e01b81526001600160a01b03928316600482015260248101919091529087169063095ea7b3906044016020604051808303816000875af1158015612654573d6000803e3d6000fd5b505050506040513d601f19601f820116820180604052508101906126789190613f2d565b50600084602001516001600160a01b03166330d8000f88888860400151868a606001518e6040518763ffffffff1660e01b81526004016126bd96959493929190614bd9565b6020604051808303816000875af11580156126dc573d6000803e3d6000fd5b505050506040513d601f19601f82011682018060405250810190612700919061488d565b90508260000361272f576124548882876060015161271e9190614c23565b6001600160a01b038a169190611b88565b6000600160601b612740858561443c565b61274a9190614453565b90508181111561276757612762856124ba8484614c23565b61277e565b8082111561277e5761277e853061248d8486614c23565b6111dd898288606001516124ba9190614c23565b600080828060200190518101906127a99190614c36565b905060006127c98260000151836020015184604001518560600151612b16565b9050841561280f576000851380156127e057508581105b156127f05760009250505061067a565b6000851280156127ff57508581115b1561280f5760009250505061067a565b50600195945050505050565b60008260000361282d5750600061067a565b60008313801561283c57508382105b156128495750600061067a565b60008312801561285857508382115b156128655750600061067a565b5060019392505050565b600080828060200190518101906128869190614c36565b905060006128b082600001518360200151846040015185606001516128ab8d8b612b25565b612b77565b905060008613156128ef57878511156128ce57600092505050611784565b6128d88882612c43565b8711156128ea57600092505050611784565b612927565b6000861215612927578785101561290b57600092505050611784565b6129158882612c5d565b87101561292757600092505050611784565b506001979650505050505050565b6000604051806080016040528060478152602001614cc46047913980516020918201208351848301516040808701516060808901518351978801969096526001600160a01b03948516928701929092529290911690840152608083015260a082015260c00161206c565b60008080600019858709858702925082811083820303915050806000036129d857600084116129cd57600080fd5b50829004905061067a565b8084116129e457600080fd5b6000848688096000868103871696879004966002600389028118808a02820302808a02820302808a02820302808a02820302808a02820302808a02909103029181900381900460010186841190950394909402919094039290920491909117919091029150509392505050565b612a7560405180606001604052806000815260200160008152602001600081525090565b60405180606001604052808360a0015160200151846080015160200151612a9c9190614b82565b815260a0840151516020820152608090930151516040909301929092525090565b600080612ac984612089565b90508260000151612aef84602001516002612ae49190614c52565b86600160601b612c6d565b612b02856040015184600160601b612c6d565b612b0c9190614b82565b610c6b9190614b82565b60006117848585858542612b77565b6000818303612b3657506000610396565b81831115612b685781620f4240612b4d8286614c23565b612b57919061443c565b612b619190614453565b9050610396565b81620f4240612b4d8583614c23565b600083831015612b9a57604051634313345360e01b815260040160405180910390fd5b818311612ba8575083611784565b818410612bb6575084611784565b6000612bc28584614c23565b90506000612bd08686614c23565b905087871015612c0b578082612be6898b614c23565b612bf0919061443c565b612bfa9190614453565b612c049089614c23565b9250612c38565b8082612c178a8a614c23565b612c21919061443c565b612c2b9190614453565b612c359089614c82565b92505b505095945050505050565b6000620f4240612c53838561443c565b61067a9190614453565b600081612c53620f42408561443c565b600083600003612c7f5750600061067a565b6000841315612c9d57612c966119ef85858561299f565b905061067a565b612cb36119ef612cac866142cf565b858561299f565b612c96906142cf565b6040518060e00160405280612d006040518060c001604052806000815260200160008152602001600081526020016000815260200160008152602001600081525090565b81526020016000815260200160008152602001600081526020016000815260200160008152602001600081525090565b6040518060c0016040528060008152602001600081526020016000815260200160008152602001612d74604051806040016040528060008152602001600081525090565b8152602001612da46040518060800160405280600081526020016000815260200160008152602001600081525090565b905290565b6040518060c001604052806000815260200160006001600160a01b0316815260200160006001600160a01b0316815260200160006001600160a01b0316815260200160008152602001612da46040805161010081018252600080825260208083018290528284018290526060830182905283518085019094528184528301529060808201908152602001612e6c6040518060c001604052806000815260200160008152602001600081526020016000815260200160008152602001600081525090565b8152602001612e8e604051806040016040528060008152602001600081525090565b8152602001612da4604051806040016040528060008152602001600081525090565b6001600160a01b0381168114610bdb57600080fd5b8035612ed081612eb0565b919050565b634e487b7160e01b600052604160045260246000fd5b60405160e081016001600160401b0381118282101715612f0d57612f0d612ed5565b60405290565b604080519081016001600160401b0381118282101715612f0d57612f0d612ed5565b604051608081016001600160401b0381118282101715612f0d57612f0d612ed5565b60405161018081016001600160401b0381118282101715612f0d57612f0d612ed5565b60405160c081016001600160401b0381118282101715612f0d57612f0d612ed5565b60405160a081016001600160401b0381118282101715612f0d57612f0d612ed5565b60405161010081016001600160401b0381118282101715612f0d57612f0d612ed5565b60405161022081016001600160401b0381118282101715612f0d57612f0d612ed5565b604051601f8201601f191681016001600160401b038111828210171561302c5761302c612ed5565b604052919050565b60006001600160401b0382111561304d5761304d612ed5565b50601f01601f191660200190565b600082601f83011261306c57600080fd5b813561307f61307a82613034565b613004565b81815284602083860101111561309457600080fd5b816020850160208301376000918101602001919091529392505050565b600080600080608085870312156130c757600080fd5b84356130d281612eb0565b935060208501356130e281612eb0565b925060408501356001600160401b038111156130fd57600080fd5b6131098782880161305b565b949793965093946060013593505050565b600060e0828403121561312c57600080fd5b613134612eeb565b905061313f82612ec5565b815260208201356001600160401b0381111561315a57600080fd5b6131668482850161305b565b60208301525060408201356040820152606082013560608201526080820135608082015260a082013560a082015260c082013560c082015292915050565b600080604083850312156131b757600080fd5b82356001600160401b03808211156131ce57600080fd5b90840190604082870312156131e257600080fd5b6131ea612f13565b8235828111156131f957600080fd5b6132058882860161305b565b82525060208301358281111561321a57600080fd5b6132268882860161305b565b60208301525080945050602085013591508082111561324457600080fd5b506132518582860161311a565b9150509250929050565b805182526020810151602083015260408101516040830152606081015160608301526080810151608083015260a081015160a08301525050565b6000610180820190506132a982845161325b565b602083015160c0830152604083015160e08301526060830151610100830152608083015161012083015260a083015161014083015260c083015161016083015292915050565b6000806040838503121561330257600080fd5b823561330d81612eb0565b946020939093013593505050565b80518252602081015160018060a01b03808216602085015280604084015116604085015280606084015116606085015250506080810151608083015260a0810151805160a0840152602081015160020b60c0840152604081015160020b60e08401526001600160401b0360608201511661010084015260808101516133ae61012085018280518252602090810151910152565b5060a08101516133c261016085018261325b565b5060c0810151805161022085015260208101516102408501525060e0015180516102608401526020810151610280840152505050565b8351815260208085015181830152604080860151818401526060808701516001600160401b03168185015260808088015160ff1681860152865160a08601528684015160c08601529186015160e08501528501516101008401528401518051610120840152908101516101408301526104808201905060a08401518051610160840152602081015161018084015260408101516101a0840152606001516101c0830152610c6b6101e083018461331b565b8015158114610bdb57600080fd5b8035612ed0816134a9565b600080604083850312156134d557600080fd5b82356134e081612eb0565b915060208301356134f0816134a9565b809150509250929050565b60006020828403121561350d57600080fd5b813561067a81612eb0565b6000806040838503121561352b57600080fd5b8235915060208301356001600160401b0381111561354857600080fd5b6132518582860161311a565b60006080828403121561356657600080fd5b61356e612f35565b9050813561357b81612eb0565b8152602082013561358b81612eb0565b80602083015250604082013560408201526060820135606082015292915050565b6001600160401b0381168114610bdb57600080fd5b8035612ed0816135ac565b60ff81168114610bdb57600080fd5b8035612ed0816135cc565b6000806000606084860312156135fb57600080fd5b83356001600160401b038082111561361257600080fd5b908501906101e0828803121561362757600080fd5b61362f612f57565b6136398884613554565b8152613647608084016135c1565b602082015261365860a08401612ec5565b604082015260c08301358281111561366f57600080fd5b61367b8982860161305b565b60608301525060e083013560808201526101008084013560a08301526101208085013560c08401526101408086013560e08501526101606136bd8188016135db565b848601526136ce61018088016134b7565b838601526136df6101a088016134b7565b828601526101c08701359350858411156136f857600080fd5b6137048c85890161305b565b90850152509196505050602086013591508082111561372257600080fd5b5061372f8682870161311a565b92505061373e60408501612ec5565b90509250925092565b600081830361018081121561375b57600080fd5b613763612eeb565b915060c081121561377357600080fd5b5061377c612f7a565b823581526020830135602082015260408301356040820152606083013560608201526080830135608082015260a083013560a08201528082525060c0820135602082015260e082013560408201526101008201356060820152610120820135608082015261014082013560a082015261016082013560c082015292915050565b6000806101a0838503121561381057600080fd5b82356001600160401b038082111561382757600080fd5b9084019060a0828703121561383b57600080fd5b613843612f9c565b8235815260208301356020820152604083013560408201526060830135606082015260808301358281111561387757600080fd5b6138838882860161305b565b60808301525080945050505061389c8460208501613747565b90509250929050565b6000602082840312156138b757600080fd5b5035919050565b6000806000606084860312156138d357600080fd5b833592506020840135915060408401356001600160401b038111156138f757600080fd5b6139038682870161311a565b9150509250925092565b6000806000806080858703121561392357600080fd5b843561392e81612eb0565b9350602085013561393e81612eb0565b9250604085013561394e81612eb0565b9150606085013561395e81612eb0565b939692955090935050565b6000806000806080858703121561397f57600080fd5b84356001600160401b038082111561399657600080fd5b9086019061010082890312156139ab57600080fd5b6139b3612fbe565b6139bc83612ec5565b81526020830135602082015260408301356040820152606083013560608201526080830135608082015260a083013560a082015260c083013560c082015260e083013582811115613a0c57600080fd5b613a188a82860161305b565b60e08301525095506020870135915080821115613a3457600080fd5b613a408883890161305b565b94506040870135915080821115613a5657600080fd5b50613a638782880161311a565b925050613a72606086016135c1565b905092959194509250565b8051612ed081612eb0565b600060808284031215613a9a57600080fd5b613aa2612f35565b90508151613aaf81612eb0565b81526020820151613abf81612eb0565b80602083015250604082015160408201526060820151606082015292915050565b8051612ed0816135ac565b60005b83811015613b06578181015183820152602001613aee565b50506000910152565b600082601f830112613b2057600080fd5b8151613b2e61307a82613034565b818152846020838601011115613b4357600080fd5b610c6b826020830160208701613aeb565b8051612ed0816135cc565b8051612ed0816134a9565b600060208284031215613b7c57600080fd5b81516001600160401b0380821115613b9357600080fd5b908301906101e08286031215613ba857600080fd5b613bb0612f57565b613bba8684613a88565b8152613bc860808401613ae0565b6020820152613bd960a08401613a7d565b604082015260c083015182811115613bf057600080fd5b613bfc87828601613b0f565b60608301525060e083015160808201526101008084015160a08301526101208085015160c08401526101408086015160e0850152610160613c3e818801613b54565b84860152613c4f6101808801613b5f565b83860152613c606101a08801613b5f565b828601526101c0870151935085841115613c7957600080fd5b613c858a858901613b0f565b908501525091979650505050505050565b600060408284031215613ca857600080fd5b613cb0612f13565b9050815181526020820151602082015292915050565b6000818303610140811215613cda57600080fd5b613ce2612f7a565b83518152602084015160208201526040840151604082015260608401516060820152613d118560808601613c96565b6080820152608060bf1983011215613d2857600080fd5b613d30612f35565b60c0850151815260e08501516020820152610100850151604082015261012090940151606085015260a0810193909352509092915050565b8051600281900b8114612ed057600080fd5b600060c08284031215613d8c57600080fd5b613d94612f7a565b9050815181526020820151602082015260408201516040820152606082015160608201526080820151608082015260a082015160a082015292915050565b60008183036102a0811215613de657600080fd5b613dee612f7a565b835181526020840151613e0081612eb0565b60208201526040840151613e1381612eb0565b60408201526060840151613e2681612eb0565b606082015260808481015190820152610200609f1983011215613e4857600080fd5b613e50612fbe565b915060a08401518252613e6560c08501613d68565b6020830152613e7660e08501613d68565b6040830152613e886101008501613ae0565b6060830152613e9b856101208601613c96565b6080830152613eae856101608601613d7a565b60a0830152613ec1856102208601613c96565b60c0830152613ed4856102608601613c96565b60e083015260a08101919091529392505050565b60008151808452613f00816020860160208601613aeb565b601f01601f19169290920160200192915050565b828152604060208201526000610c6b6040830184613ee8565b600060208284031215613f3f57600080fd5b815161067a816134a9565b634e487b7160e01b600052602160045260246000fd5b6000610100825160018060a01b0380825116865280602083015116602087015260408201516040870152606082015160608701528060208601511660808701525050604083015160a0850152606083015160c085015260808301518160e086015261178482860182613ee8565b602081526000825160048110613ff357634e487b7160e01b600052602160045260246000fd5b8060208401525060018060a01b03602084015116604083015260408301516060830152606083015161402a608084018260ff169052565b50608083015160c060a084015261404460e0840182613f60565b905060a084015161406060c08501826001600160401b03169052565b509392505050565b60408152825160408201526020830151606082015260408301516080820152606083015160a08201526000608084015160a060c08401526140ac60e0840182613ee8565b905082810360208401526117848185613ee8565b60008183036101808112156140d457600080fd5b6140dc612eeb565b60c08212156140ea57600080fd5b6140f2612f7a565b9150835182526020840151602083015260408401516040830152606084015160608301526080840151608083015260a084015160a083015281815260c0840151602082015260e084015160408201526101008401516060820152610120840151608082015261014084015160a082015261016084015160c0820152809250505092915050565b6000610100828403121561418b57600080fd5b614193612f9c565b905061419f8383613a88565b815260808201516141af81612eb0565b602082015260a0820151604082015260c0820151606082015260e08201516001600160401b038111156141e157600080fd5b6141ed84828501613b0f565b60808301525092915050565b60006020828403121561420b57600080fd5b81516001600160401b038082111561422257600080fd5b9083019060c0828603121561423657600080fd5b61423e612f7a565b82516004811061424d57600080fd5b815261425b60208401613a7d565b60208201526040830151604082015261427660608401613b54565b606082015260808301518281111561428d57600080fd5b61429987828601614178565b6080830152506142ab60a08401613ae0565b60a082015295945050505050565b634e487b7160e01b600052601160045260246000fd5b6000600160ff1b82016142e4576142e46142b9565b5060000390565b92151583526001600160a01b03919091166020830152604082015260600190565b8781526020810187905260408101869052610180810161432f606083018761325b565b84610120830152836101408301526001600160401b03831661016083015298975050505050505050565b8381528260208201526060604082015260006117846060830184613ee8565b60006020828403121561438a57600080fd5b81516001600160401b03808211156143a157600080fd5b9083019061010082860312156143b657600080fd5b6143be612fbe565b6143c783613a7d565b81526143d560208401613a7d565b60208201526040830151828111156143ec57600080fd5b6143f887828601613b0f565b604083015250606083015160608201526080830151608082015260a083015160a082015260c083015160c082015260e083015160e082015280935050505092915050565b8082028115828204841417610396576103966142b9565b60008261447057634e487b7160e01b600052601260045260246000fd5b500490565b60208152600060018060a01b038084511660208401528060208501511660408401525060408301516101008060608501526144b4610120850183613ee8565b915060608501516080850152608085015160a085015260a085015160c085015260c085015160e085015260e085015181850152508091505092915050565b60006080828403121561450457600080fd5b61450c612f35565b90508151815260208201516020820152604082015160408201526060820151606082015292915050565b60008183036101c081121561454a57600080fd5b614552612f7a565b9150825161455f81612eb0565b8252602083015161456f81612eb0565b602083015260c0603f198201121561458657600080fd5b5061458f612f7a565b60408301518152606083015160208201526080830151604082015260a0830151606082015260c0830151608082015260e083015160a0820152806040830152506145dd8361010084016144f2565b606082015261018082015160808201526101a082015160a082015292915050565b80516fffffffffffffffffffffffffffffffff81168114612ed057600080fd5b600060c0828403121561463057600080fd5b614638612f7a565b9050614643826145fe565b8152614651602083016145fe565b602082015261466260408301613d68565b604082015261467360608301613d68565b60608201526080820151614686816135ac565b608082015260a0820151614699816135ac565b60a082015292915050565b600061026082840312156146b757600080fd5b6146bf612fe1565b90506146ca82613a7d565b81526146d860208301613d68565b60208201526146e960408301613d68565b60408201526146fa60608301613ae0565b60608201526080828101519082015260a0808301519082015260c0808301519082015260e08083015190820152610100808301519082015261012080830151908201526101408083015190820152610160808301519082015261018080830151908201526101a061476d84828501613c96565b908201526101e061478084848301613c96565b6101c08301526102208301519082015261024090910151610200820152919050565b60006107a082840312156147b557600080fd5b6147bd612f57565b825181526147cd60208401613a7d565b60208201526147de60408401613a7d565b60408201526147f08460608501614536565b6060820152614803846102208501614536565b6080820152614816846103e0850161461e565b60a0820152614829846104a085016146a4565b60c082015261483b6107008401613a7d565b60e082015261484d6107208401613b5f565b6101008201526148606107408401613b5f565b6101208201526148736107608401613b54565b610140820152610780929092015161016083015250919050565b60006020828403121561489f57600080fd5b5051919050565b81810360008312801583831316838312821617156148c6576148c66142b9565b5092915050565b6b0a0cae4e09ee4c8cae4ac66560a31b81526e13dc99195c925b999bc81a5b999bcb608a1b600c8201526d1d5a5b9d0d8d081c185a5c92590b60921b601b8201527f6164647265737320656e747279546f6b656e416464726573732c00000000000060298201526b1cdd1c9a5b99c81cda59194b60a21b6043820152701d5a5b9d0c8d4d881c5d585b9d1a5d1e4b607a1b604f820152741d5a5b9d0c8d4d881b585c99da5b905b5bdd5b9d0b605a1b6060820152721d5a5b9d0c8d4d881b1a5b5a5d141c9a58d94b606a1b6075820152711d5a5b9d0c8d4d881cdd1bdc141c9a58d94b60721b60888201526e1d5a5b9d0e081b195d995c9859d94b608a1b609a8201526f189bdbdb081c99591d58d953db9b1e4b60821b60a982015272189bdbdb0818db1bdcd9541bdcda5d1a5bdb8b606a1b60b98201527162797465732061756374696f6e446174612960701b60cc820152600060de8201610396565b73506572704f726465725633207769746e6573732960601b815260008451614a5a816014850160208901613aeb565b845190830190614a71816014840160208901613aeb565b8451910190614a87816014840160208801613aeb565b0160140195945050505050565b6000610140614ab7838a5180516001600160a01b03168252602090810151910152565b6020890151604084015260408901516060840152614aeb608084018980516001600160a01b03168252602090810151910152565b6001600160a01b03871660c084015260e083018690526101008301819052614b1581840186613ee8565b9050828103610120840152614b2a8185613ee8565b9998505050505050505050565b6020808252602b908201527f496e697469616c697a61626c653a20636f6e7472616374206973206e6f74206960408201526a6e697469616c697a696e6760a81b606082015260800190565b8082018281126000831280158216821582161715614ba257614ba26142b9565b505092915050565b60008351614bbc818460208801613aeb565b835190830190614bd0818360208801613aeb565b01949350505050565b600060018060a01b038089168352808816602084015260c06040840152614c0360c0840188613ee8565b6060840196909652608083019490945250911660a0909101529392505050565b81810381811115610396576103966142b9565b600060808284031215614c4857600080fd5b61067a83836144f2565b80820260008212600160ff1b84141615614c6e57614c6e6142b9565b8181058314821517610396576103966142b9565b80820180821115610396576103966142b956fe546f6b656e5065726d697373696f6e73286164647265737320746f6b656e2c75696e7432353620616d6f756e74294f72646572496e666f2861646472657373206d61726b65742c61646472657373207472616465722c75696e74323536206e6f6e63652c75696e7432353620646561646c696e6529a26469706673582212206e820c6c9caddeb4385604b20bb49d163d6cb2dcb5957491d1e4a273ece19cf764736f6c63430008130033",
  "devdoc": {
    "events": {
      "Initialized(uint8)": {
        "details": "Triggered when the contract has been initialized or reinitialized."
      }
    },
    "kind": "dev",
    "methods": {
      "executeOrderV3((bytes,bytes),(address,bytes,uint256,uint256,uint256,uint256,uint256))": {
        "params": {
          "order": "The order signed by trader",
          "settlementParams": "The route of settlement created by filler"
        }
      },
      "updateWhitelistFiller(address)": {
        "details": "only owner can call this function"
      },
      "updateWhitelistSettlement(address,bool)": {
        "details": "only owner can call this function"
      }
    },
    "version": 1
  },
  "userdoc": {
    "errors": {
      "DeadlinePassed()": [
        {
          "notice": "thrown if the order has expired"
        }
      ],
      "InvalidMarket()": [
        {
          "notice": "thrown when the order targets a different market contract"
        }
      ]
    },
    "kind": "user",
    "methods": {
      "executeOrderV3((bytes,bytes),(address,bytes,uint256,uint256,uint256,uint256,uint256))": {
        "notice": "Verifies signature of the order_v3 and executes trade"
      },
      "quoteExecuteOrderV3(((address,address,uint256,uint256),uint64,address,string,uint256,uint256,uint256,uint256,uint8,bool,bool,bytes),(address,bytes,uint256,uint256,uint256,uint256,uint256),address)": {
        "notice": "Estimate transaction results and return with revert message"
      },
      "updateQuoteTokenMap(uint256)": {
        "notice": "Registers quote token address for the pair"
      },
      "updateWhitelistFiller(address)": {
        "notice": "Updates the whitelist filler address"
      },
      "updateWhitelistSettlement(address,bool)": {
        "notice": "Updates the whitelist settlement address"
      }
    },
    "notice": "Perp market contract for Layer2. Optimizing calldata size in this contract since L2 calldata is relatively expensive.",
    "version": 1
  },
  "storageLayout": {
    "storage": [
      {
        "astId": 6,
        "contract": "src/markets/perp/PerpMarket.sol:PerpMarket",
        "label": "_initialized",
        "offset": 0,
        "slot": "0",
        "type": "t_uint8"
      },
      {
        "astId": 9,
        "contract": "src/markets/perp/PerpMarket.sol:PerpMarket",
        "label": "_initializing",
        "offset": 1,
        "slot": "0",
        "type": "t_bool"
      },
      {
        "astId": 6905,
        "contract": "src/markets/perp/PerpMarket.sol:PerpMarket",
        "label": "_predyPool",
        "offset": 2,
        "slot": "0",
        "type": "t_contract(IPredyPool)8544"
      },
      {
        "astId": 7286,
        "contract": "src/markets/perp/PerpMarket.sol:PerpMarket",
        "label": "whitelistFiller",
        "offset": 0,
        "slot": "1",
        "type": "t_address"
      },
      {
        "astId": 7289,
        "contract": "src/markets/perp/PerpMarket.sol:PerpMarket",
        "label": "_quoter",
        "offset": 0,
        "slot": "2",
        "type": "t_contract(PredyPoolQuoter)9189"
      },
      {
        "astId": 7293,
        "contract": "src/markets/perp/PerpMarket.sol:PerpMarket",
        "label": "_quoteTokenMap",
        "offset": 0,
        "slot": "3",
        "type": "t_mapping(t_uint256,t_address)"
      },
      {
        "astId": 7297,
        "contract": "src/markets/perp/PerpMarket.sol:PerpMarket",
        "label": "_whiteListedSettlements",
        "offset": 0,
        "slot": "4",
        "type": "t_mapping(t_address,t_bool)"
      },
      {
        "astId": 183,
        "contract": "src/markets/perp/PerpMarket.sol:PerpMarket",
        "label": "_status",
        "offset": 0,
        "slot": "5",
        "type": "t_uint256"
      },
      {
        "astId": 252,
        "contract": "src/markets/perp/PerpMarket.sol:PerpMarket",
        "label": "__gap",
        "offset": 0,
        "slot": "6",
        "type": "t_array(t_uint256)49_storage"
      },
      {
        "astId": 22402,
        "contract": "src/markets/perp/PerpMarket.sol:PerpMarket",
        "label": "_permit2",
        "offset": 0,
        "slot": "55",
        "type": "t_contract(IPermit2)2453"
      },
      {
        "astId": 22409,
        "contract": "src/markets/perp/PerpMarket.sol:PerpMarket",
        "label": "userPositions",
        "offset": 0,
        "slot": "56",
        "type": "t_mapping(t_address,t_mapping(t_uint256,t_struct(UserPosition)22379_storage))"
      }
    ],
    "types": {
      "t_address": {
        "encoding": "inplace",
        "label": "address",
        "numberOfBytes": "20"
      },
      "t_array(t_uint256)49_storage": {
        "base": "t_uint256",
        "encoding": "inplace",
        "label": "uint256[49]",
        "numberOfBytes": "1568"
      },
      "t_bool": {
        "encoding": "inplace",
        "label": "bool",
        "numberOfBytes": "1"
      },
      "t_contract(IPermit2)2453": {
        "encoding": "inplace",
        "label": "contract IPermit2",
        "numberOfBytes": "20"
      },
      "t_contract(IPredyPool)8544": {
        "encoding": "inplace",
        "label": "contract IPredyPool",
        "numberOfBytes": "20"
      },
      "t_contract(PredyPoolQuoter)9189": {
        "encoding": "inplace",
        "label": "contract PredyPoolQuoter",
        "numberOfBytes": "20"
      },
      "t_mapping(t_address,t_bool)": {
        "encoding": "mapping",
        "key": "t_address",
        "label": "mapping(address => bool)",
        "numberOfBytes": "32",
        "value": "t_bool"
      },
      "t_mapping(t_address,t_mapping(t_uint256,t_struct(UserPosition)22379_storage))": {
        "encoding": "mapping",
        "key": "t_address",
        "label": "mapping(address => mapping(uint256 => struct PerpMarketV1.UserPosition))",
        "numberOfBytes": "32",
        "value": "t_mapping(t_uint256,t_struct(UserPosition)22379_storage)"
      },
      "t_mapping(t_uint256,t_address)": {
        "encoding": "mapping",
        "key": "t_uint256",
        "label": "mapping(uint256 => address)",
        "numberOfBytes": "32",
        "value": "t_address"
      },
      "t_mapping(t_uint256,t_struct(UserPosition)22379_storage)": {
        "encoding": "mapping",
        "key": "t_uint256",
        "label": "mapping(uint256 => struct PerpMarketV1.UserPosition)",
        "numberOfBytes": "32",
        "value": "t_struct(UserPosition)22379_storage"
      },
      "t_struct(UserPosition)22379_storage": {
        "encoding": "inplace",
        "label": "struct PerpMarketV1.UserPosition",
        "members": [
          {
            "astId": 22370,
            "contract": "src/markets/perp/PerpMarket.sol:PerpMarket",
            "label": "vaultId",
            "offset": 0,
            "slot": "0",
            "type": "t_uint256"
          },
          {
            "astId": 22372,
            "contract": "src/markets/perp/PerpMarket.sol:PerpMarket",
            "label": "takeProfitPrice",
            "offset": 0,
            "slot": "1",
            "type": "t_uint256"
          },
          {
            "astId": 22374,
            "contract": "src/markets/perp/PerpMarket.sol:PerpMarket",
            "label": "stopLossPrice",
            "offset": 0,
            "slot": "2",
            "type": "t_uint256"
          },
          {
            "astId": 22376,
            "contract": "src/markets/perp/PerpMarket.sol:PerpMarket",
            "label": "slippageTolerance",
            "offset": 0,
            "slot": "3",
            "type": "t_uint64"
          },
          {
            "astId": 22378,
            "contract": "src/markets/perp/PerpMarket.sol:PerpMarket",
            "label": "lastLeverage",
            "offset": 8,
            "slot": "3",
            "type": "t_uint8"
          }
        ],
        "numberOfBytes": "128"
      },
      "t_uint256": {
        "encoding": "inplace",
        "label": "uint256",
        "numberOfBytes": "32"
      },
      "t_uint64": {
        "encoding": "inplace",
        "label": "uint64",
        "numberOfBytes": "8"
      },
      "t_uint8": {
        "encoding": "inplace",
        "label": "uint8",
        "numberOfBytes": "1"
      }
    }
  }
}