{
  "address": "0x7b8b944AB2f24C829504a7a6D70fce5298f2147c",
  "abi": [
    {
      "inputs": [],
      "stateMutability": "nonpayable",
      "type": "constructor"
    },
    {
      "inputs": [],
      "name": "BaseTokenNotSettled",
      "type": "error"
    },
    {
      "inputs": [],
      "name": "CallerIsNotOperator",
      "type": "error"
    },
    {
      "inputs": [],
      "name": "CallerIsNotPoolCreator",
      "type": "error"
    },
    {
      "inputs": [],
      "name": "CallerIsNotVaultOwner",
      "type": "error"
    },
    {
      "inputs": [],
      "name": "InvalidAmount",
      "type": "error"
    },
    {
      "inputs": [],
      "name": "InvalidPairId",
      "type": "error"
    },
    {
      "inputs": [
        {
          "internalType": "address",
          "name": "locker",
          "type": "address"
        }
      ],
      "name": "LockedBy",
      "type": "error"
    },
    {
      "inputs": [],
      "name": "QuoteTokenNotSettled",
      "type": "error"
    },
    {
      "inputs": [],
      "name": "T",
      "type": "error"
    },
    {
      "inputs": [],
      "name": "TraderNotAllowed",
      "type": "error"
    },
    {
      "inputs": [],
      "name": "VaultAlreadyHasAnotherMarginId",
      "type": "error"
    },
    {
      "inputs": [],
      "name": "VaultAlreadyHasAnotherPair",
      "type": "error"
    },
    {
      "inputs": [
        {
          "internalType": "int256",
          "name": "vaultValue",
          "type": "int256"
        },
        {
          "internalType": "int256",
          "name": "minMargin",
          "type": "int256"
        }
      ],
      "name": "VaultIsNotDanger",
      "type": "error"
    },
    {
      "anonymous": false,
      "inputs": [
        {
          "indexed": false,
          "internalType": "uint256",
          "name": "pairId",
          "type": "uint256"
        },
        {
          "indexed": false,
          "internalType": "bool",
          "name": "isStable",
          "type": "bool"
        },
        {
          "indexed": false,
          "internalType": "uint256",
          "name": "amount",
          "type": "uint256"
        }
      ],
      "name": "CreatorRevenueWithdrawn",
      "type": "event"
    },
    {
      "anonymous": false,
      "inputs": [
        {
          "indexed": false,
          "internalType": "uint8",
          "name": "version",
          "type": "uint8"
        }
      ],
      "name": "Initialized",
      "type": "event"
    },
    {
      "anonymous": false,
      "inputs": [
        {
          "indexed": false,
          "internalType": "address",
          "name": "operator",
          "type": "address"
        }
      ],
      "name": "OperatorUpdated",
      "type": "event"
    },
    {
      "anonymous": false,
      "inputs": [
        {
          "indexed": false,
          "internalType": "uint256",
          "name": "pairId",
          "type": "uint256"
        },
        {
          "indexed": false,
          "internalType": "bool",
          "name": "isStable",
          "type": "bool"
        },
        {
          "indexed": false,
          "internalType": "uint256",
          "name": "amount",
          "type": "uint256"
        }
      ],
      "name": "ProtocolRevenueWithdrawn",
      "type": "event"
    },
    {
      "anonymous": false,
      "inputs": [
        {
          "indexed": false,
          "internalType": "uint256",
          "name": "vaultId",
          "type": "uint256"
        },
        {
          "indexed": false,
          "internalType": "address",
          "name": "recipient",
          "type": "address"
        }
      ],
      "name": "RecepientUpdated",
      "type": "event"
    },
    {
      "inputs": [
        {
          "internalType": "address",
          "name": "trader",
          "type": "address"
        },
        {
          "internalType": "uint256",
          "name": "pairId",
          "type": "uint256"
        }
      ],
      "name": "allowedTraders",
      "outputs": [
        {
          "internalType": "bool",
          "name": "",
          "type": "bool"
        }
      ],
      "stateMutability": "view",
      "type": "function"
    },
    {
      "inputs": [
        {
          "internalType": "address",
          "name": "",
          "type": "address"
        }
      ],
      "name": "allowedUniswapPools",
      "outputs": [
        {
          "internalType": "bool",
          "name": "",
          "type": "bool"
        }
      ],
      "stateMutability": "view",
      "type": "function"
    },
    {
      "inputs": [
        {
          "internalType": "uint256",
          "name": "pairId",
          "type": "uint256"
        }
      ],
      "name": "createVault",
      "outputs": [
        {
          "internalType": "uint256",
          "name": "",
          "type": "uint256"
        }
      ],
      "stateMutability": "nonpayable",
      "type": "function"
    },
    {
      "inputs": [
        {
          "internalType": "uint256",
          "name": "vaultId",
          "type": "uint256"
        },
        {
          "internalType": "uint256",
          "name": "closeRatio",
          "type": "uint256"
        },
        {
          "internalType": "bytes",
          "name": "settlementData",
          "type": "bytes"
        }
      ],
      "name": "execLiquidationCall",
      "outputs": [
        {
          "components": [
            {
              "components": [
                {
                  "internalType": "int256",
                  "name": "perpEntryUpdate",
                  "type": "int256"
                },
                {
                  "internalType": "int256",
                  "name": "sqrtEntryUpdate",
                  "type": "int256"
                },
                {
                  "internalType": "int256",
                  "name": "sqrtRebalanceEntryUpdateUnderlying",
                  "type": "int256"
                },
                {
                  "internalType": "int256",
                  "name": "sqrtRebalanceEntryUpdateStable",
                  "type": "int256"
                },
                {
                  "internalType": "int256",
                  "name": "perpPayoff",
                  "type": "int256"
                },
                {
                  "internalType": "int256",
                  "name": "sqrtPayoff",
                  "type": "int256"
                }
              ],
              "internalType": "struct IPredyPool.Payoff",
              "name": "payoff",
              "type": "tuple"
            },
            {
              "internalType": "uint256",
              "name": "vaultId",
              "type": "uint256"
            },
            {
              "internalType": "int256",
              "name": "fee",
              "type": "int256"
            },
            {
              "internalType": "int256",
              "name": "minMargin",
              "type": "int256"
            },
            {
              "internalType": "int256",
              "name": "averagePrice",
              "type": "int256"
            },
            {
              "internalType": "uint256",
              "name": "sqrtTwap",
              "type": "uint256"
            },
            {
              "internalType": "uint256",
              "name": "sqrtPrice",
              "type": "uint256"
            }
          ],
          "internalType": "struct IPredyPool.TradeResult",
          "name": "tradeResult",
          "type": "tuple"
        }
      ],
      "stateMutability": "nonpayable",
      "type": "function"
    },
    {
      "inputs": [
        {
          "internalType": "uint256",
          "name": "pairId",
          "type": "uint256"
        }
      ],
      "name": "getPairStatus",
      "outputs": [
        {
          "components": [
            {
              "internalType": "uint256",
              "name": "id",
              "type": "uint256"
            },
            {
              "internalType": "address",
              "name": "marginId",
              "type": "address"
            },
            {
              "internalType": "address",
              "name": "poolOwner",
              "type": "address"
            },
            {
              "components": [
                {
                  "internalType": "address",
                  "name": "token",
                  "type": "address"
                },
                {
                  "internalType": "address",
                  "name": "supplyTokenAddress",
                  "type": "address"
                },
                {
                  "components": [
                    {
                      "internalType": "uint256",
                      "name": "totalCompoundDeposited",
                      "type": "uint256"
                    },
                    {
                      "internalType": "uint256",
                      "name": "totalNormalDeposited",
                      "type": "uint256"
                    },
                    {
                      "internalType": "uint256",
                      "name": "totalNormalBorrowed",
                      "type": "uint256"
                    },
                    {
                      "internalType": "uint256",
                      "name": "assetScaler",
                      "type": "uint256"
                    },
                    {
                      "internalType": "uint256",
                      "name": "assetGrowth",
                      "type": "uint256"
                    },
                    {
                      "internalType": "uint256",
                      "name": "debtGrowth",
                      "type": "uint256"
                    }
                  ],
                  "internalType": "struct ScaledAsset.AssetStatus",
                  "name": "tokenStatus",
                  "type": "tuple"
                },
                {
                  "components": [
                    {
                      "internalType": "uint256",
                      "name": "baseRate",
                      "type": "uint256"
                    },
                    {
                      "internalType": "uint256",
                      "name": "kinkRate",
                      "type": "uint256"
                    },
                    {
                      "internalType": "uint256",
                      "name": "slope1",
                      "type": "uint256"
                    },
                    {
                      "internalType": "uint256",
                      "name": "slope2",
                      "type": "uint256"
                    }
                  ],
                  "internalType": "struct InterestRateModel.IRMParams",
                  "name": "irmParams",
                  "type": "tuple"
                },
                {
                  "internalType": "uint256",
                  "name": "accumulatedProtocolRevenue",
                  "type": "uint256"
                },
                {
                  "internalType": "uint256",
                  "name": "accumulatedCreatorRevenue",
                  "type": "uint256"
                }
              ],
              "internalType": "struct Perp.AssetPoolStatus",
              "name": "quotePool",
              "type": "tuple"
            },
            {
              "components": [
                {
                  "internalType": "address",
                  "name": "token",
                  "type": "address"
                },
                {
                  "internalType": "address",
                  "name": "supplyTokenAddress",
                  "type": "address"
                },
                {
                  "components": [
                    {
                      "internalType": "uint256",
                      "name": "totalCompoundDeposited",
                      "type": "uint256"
                    },
                    {
                      "internalType": "uint256",
                      "name": "totalNormalDeposited",
                      "type": "uint256"
                    },
                    {
                      "internalType": "uint256",
                      "name": "totalNormalBorrowed",
                      "type": "uint256"
                    },
                    {
                      "internalType": "uint256",
                      "name": "assetScaler",
                      "type": "uint256"
                    },
                    {
                      "internalType": "uint256",
                      "name": "assetGrowth",
                      "type": "uint256"
                    },
                    {
                      "internalType": "uint256",
                      "name": "debtGrowth",
                      "type": "uint256"
                    }
                  ],
                  "internalType": "struct ScaledAsset.AssetStatus",
                  "name": "tokenStatus",
                  "type": "tuple"
                },
                {
                  "components": [
                    {
                      "internalType": "uint256",
                      "name": "baseRate",
                      "type": "uint256"
                    },
                    {
                      "internalType": "uint256",
                      "name": "kinkRate",
                      "type": "uint256"
                    },
                    {
                      "internalType": "uint256",
                      "name": "slope1",
                      "type": "uint256"
                    },
                    {
                      "internalType": "uint256",
                      "name": "slope2",
                      "type": "uint256"
                    }
                  ],
                  "internalType": "struct InterestRateModel.IRMParams",
                  "name": "irmParams",
                  "type": "tuple"
                },
                {
                  "internalType": "uint256",
                  "name": "accumulatedProtocolRevenue",
                  "type": "uint256"
                },
                {
                  "internalType": "uint256",
                  "name": "accumulatedCreatorRevenue",
                  "type": "uint256"
                }
              ],
              "internalType": "struct Perp.AssetPoolStatus",
              "name": "basePool",
              "type": "tuple"
            },
            {
              "components": [
                {
                  "internalType": "uint128",
                  "name": "riskRatio",
                  "type": "uint128"
                },
                {
                  "internalType": "uint128",
                  "name": "debtRiskRatio",
                  "type": "uint128"
                },
                {
                  "internalType": "int24",
                  "name": "rangeSize",
                  "type": "int24"
                },
                {
                  "internalType": "int24",
                  "name": "rebalanceThreshold",
                  "type": "int24"
                },
                {
                  "internalType": "uint64",
                  "name": "minSlippage",
                  "type": "uint64"
                },
                {
                  "internalType": "uint64",
                  "name": "maxSlippage",
                  "type": "uint64"
                }
              ],
              "internalType": "struct Perp.AssetRiskParams",
              "name": "riskParams",
              "type": "tuple"
            },
            {
              "components": [
                {
                  "internalType": "address",
                  "name": "uniswapPool",
                  "type": "address"
                },
                {
                  "internalType": "int24",
                  "name": "tickLower",
                  "type": "int24"
                },
                {
                  "internalType": "int24",
                  "name": "tickUpper",
                  "type": "int24"
                },
                {
                  "internalType": "uint64",
                  "name": "numRebalance",
                  "type": "uint64"
                },
                {
                  "internalType": "uint256",
                  "name": "totalAmount",
                  "type": "uint256"
                },
                {
                  "internalType": "uint256",
                  "name": "borrowedAmount",
                  "type": "uint256"
                },
                {
                  "internalType": "uint256",
                  "name": "lastRebalanceTotalSquartAmount",
                  "type": "uint256"
                },
                {
                  "internalType": "uint256",
                  "name": "lastFee0Growth",
                  "type": "uint256"
                },
                {
                  "internalType": "uint256",
                  "name": "lastFee1Growth",
                  "type": "uint256"
                },
                {
                  "internalType": "uint256",
                  "name": "borrowPremium0Growth",
                  "type": "uint256"
                },
                {
                  "internalType": "uint256",
                  "name": "borrowPremium1Growth",
                  "type": "uint256"
                },
                {
                  "internalType": "uint256",
                  "name": "fee0Growth",
                  "type": "uint256"
                },
                {
                  "internalType": "uint256",
                  "name": "fee1Growth",
                  "type": "uint256"
                },
                {
                  "components": [
                    {
                      "internalType": "int256",
                      "name": "positionAmount",
                      "type": "int256"
                    },
                    {
                      "internalType": "uint256",
                      "name": "lastFeeGrowth",
                      "type": "uint256"
                    }
                  ],
                  "internalType": "struct ScaledAsset.UserStatus",
                  "name": "rebalancePositionBase",
                  "type": "tuple"
                },
                {
                  "components": [
                    {
                      "internalType": "int256",
                      "name": "positionAmount",
                      "type": "int256"
                    },
                    {
                      "internalType": "uint256",
                      "name": "lastFeeGrowth",
                      "type": "uint256"
                    }
                  ],
                  "internalType": "struct ScaledAsset.UserStatus",
                  "name": "rebalancePositionQuote",
                  "type": "tuple"
                },
                {
                  "internalType": "int256",
                  "name": "rebalanceInterestGrowthBase",
                  "type": "int256"
                },
                {
                  "internalType": "int256",
                  "name": "rebalanceInterestGrowthQuote",
                  "type": "int256"
                }
              ],
              "internalType": "struct Perp.SqrtPerpAssetStatus",
              "name": "sqrtAssetStatus",
              "type": "tuple"
            },
            {
              "internalType": "address",
              "name": "priceFeed",
              "type": "address"
            },
            {
              "internalType": "bool",
              "name": "isQuoteZero",
              "type": "bool"
            },
            {
              "internalType": "bool",
              "name": "whitelistEnabled",
              "type": "bool"
            },
            {
              "internalType": "uint8",
              "name": "feeRatio",
              "type": "uint8"
            },
            {
              "internalType": "uint256",
              "name": "lastUpdateTimestamp",
              "type": "uint256"
            }
          ],
          "internalType": "struct DataType.PairStatus",
          "name": "",
          "type": "tuple"
        }
      ],
      "stateMutability": "view",
      "type": "function"
    },
    {
      "inputs": [
        {
          "internalType": "uint256",
          "name": "pairId",
          "type": "uint256"
        }
      ],
      "name": "getSqrtIndexPrice",
      "outputs": [
        {
          "internalType": "uint256",
          "name": "",
          "type": "uint256"
        }
      ],
      "stateMutability": "view",
      "type": "function"
    },
    {
      "inputs": [
        {
          "internalType": "uint256",
          "name": "pairId",
          "type": "uint256"
        }
      ],
      "name": "getSqrtPrice",
      "outputs": [
        {
          "internalType": "uint160",
          "name": "",
          "type": "uint160"
        }
      ],
      "stateMutability": "view",
      "type": "function"
    },
    {
      "inputs": [
        {
          "internalType": "uint256",
          "name": "vaultId",
          "type": "uint256"
        }
      ],
      "name": "getVault",
      "outputs": [
        {
          "components": [
            {
              "internalType": "uint256",
              "name": "id",
              "type": "uint256"
            },
            {
              "internalType": "address",
              "name": "marginId",
              "type": "address"
            },
            {
              "internalType": "address",
              "name": "owner",
              "type": "address"
            },
            {
              "internalType": "address",
              "name": "recipient",
              "type": "address"
            },
            {
              "internalType": "int256",
              "name": "margin",
              "type": "int256"
            },
            {
              "components": [
                {
                  "internalType": "uint256",
                  "name": "pairId",
                  "type": "uint256"
                },
                {
                  "internalType": "int24",
                  "name": "rebalanceLastTickLower",
                  "type": "int24"
                },
                {
                  "internalType": "int24",
                  "name": "rebalanceLastTickUpper",
                  "type": "int24"
                },
                {
                  "internalType": "uint64",
                  "name": "lastNumRebalance",
                  "type": "uint64"
                },
                {
                  "components": [
                    {
                      "internalType": "int256",
                      "name": "amount",
                      "type": "int256"
                    },
                    {
                      "internalType": "int256",
                      "name": "entryValue",
                      "type": "int256"
                    }
                  ],
                  "internalType": "struct Perp.PositionStatus",
                  "name": "perp",
                  "type": "tuple"
                },
                {
                  "components": [
                    {
                      "internalType": "int256",
                      "name": "amount",
                      "type": "int256"
                    },
                    {
                      "internalType": "int256",
                      "name": "entryValue",
                      "type": "int256"
                    },
                    {
                      "internalType": "int256",
                      "name": "quoteRebalanceEntryValue",
                      "type": "int256"
                    },
                    {
                      "internalType": "int256",
                      "name": "baseRebalanceEntryValue",
                      "type": "int256"
                    },
                    {
                      "internalType": "uint256",
                      "name": "entryTradeFee0",
                      "type": "uint256"
                    },
                    {
                      "internalType": "uint256",
                      "name": "entryTradeFee1",
                      "type": "uint256"
                    }
                  ],
                  "internalType": "struct Perp.SqrtPositionStatus",
                  "name": "sqrtPerp",
                  "type": "tuple"
                },
                {
                  "components": [
                    {
                      "internalType": "int256",
                      "name": "positionAmount",
                      "type": "int256"
                    },
                    {
                      "internalType": "uint256",
                      "name": "lastFeeGrowth",
                      "type": "uint256"
                    }
                  ],
                  "internalType": "struct ScaledAsset.UserStatus",
                  "name": "basePosition",
                  "type": "tuple"
                },
                {
                  "components": [
                    {
                      "internalType": "int256",
                      "name": "positionAmount",
                      "type": "int256"
                    },
                    {
                      "internalType": "uint256",
                      "name": "lastFeeGrowth",
                      "type": "uint256"
                    }
                  ],
                  "internalType": "struct ScaledAsset.UserStatus",
                  "name": "stablePosition",
                  "type": "tuple"
                }
              ],
              "internalType": "struct Perp.UserStatus",
              "name": "openPosition",
              "type": "tuple"
            }
          ],
          "internalType": "struct DataType.Vault",
          "name": "",
          "type": "tuple"
        }
      ],
      "stateMutability": "view",
      "type": "function"
    },
    {
      "inputs": [],
      "name": "globalData",
      "outputs": [
        {
          "internalType": "uint256",
          "name": "pairsCount",
          "type": "uint256"
        },
        {
          "internalType": "uint256",
          "name": "vaultCount",
          "type": "uint256"
        },
        {
          "internalType": "address",
          "name": "uniswapFactory",
          "type": "address"
        },
        {
          "components": [
            {
              "internalType": "address",
              "name": "locker",
              "type": "address"
            },
            {
              "internalType": "uint256",
              "name": "quoteReserve",
              "type": "uint256"
            },
            {
              "internalType": "uint256",
              "name": "baseReserve",
              "type": "uint256"
            },
            {
              "internalType": "uint256",
              "name": "pairId",
              "type": "uint256"
            }
          ],
          "internalType": "struct LockDataLibrary.LockData",
          "name": "lockData",
          "type": "tuple"
        }
      ],
      "stateMutability": "view",
      "type": "function"
    },
    {
      "inputs": [
        {
          "internalType": "address",
          "name": "uniswapFactory",
          "type": "address"
        }
      ],
      "name": "initialize",
      "outputs": [],
      "stateMutability": "nonpayable",
      "type": "function"
    },
    {
      "inputs": [],
      "name": "operator",
      "outputs": [
        {
          "internalType": "address",
          "name": "",
          "type": "address"
        }
      ],
      "stateMutability": "view",
      "type": "function"
    },
    {
      "inputs": [
        {
          "internalType": "uint256",
          "name": "pairId",
          "type": "uint256"
        },
        {
          "internalType": "bytes",
          "name": "settlementData",
          "type": "bytes"
        }
      ],
      "name": "reallocate",
      "outputs": [
        {
          "internalType": "bool",
          "name": "relocationOccurred",
          "type": "bool"
        }
      ],
      "stateMutability": "nonpayable",
      "type": "function"
    },
    {
      "inputs": [
        {
          "components": [
            {
              "internalType": "address",
              "name": "marginId",
              "type": "address"
            },
            {
              "internalType": "address",
              "name": "poolOwner",
              "type": "address"
            },
            {
              "internalType": "address",
              "name": "uniswapPool",
              "type": "address"
            },
            {
              "internalType": "address",
              "name": "priceFeed",
              "type": "address"
            },
            {
              "internalType": "bool",
              "name": "whitelistEnabled",
              "type": "bool"
            },
            {
              "internalType": "uint8",
              "name": "fee",
              "type": "uint8"
            },
            {
              "components": [
                {
                  "internalType": "uint128",
                  "name": "riskRatio",
                  "type": "uint128"
                },
                {
                  "internalType": "uint128",
                  "name": "debtRiskRatio",
                  "type": "uint128"
                },
                {
                  "internalType": "int24",
                  "name": "rangeSize",
                  "type": "int24"
                },
                {
                  "internalType": "int24",
                  "name": "rebalanceThreshold",
                  "type": "int24"
                },
                {
                  "internalType": "uint64",
                  "name": "minSlippage",
                  "type": "uint64"
                },
                {
                  "internalType": "uint64",
                  "name": "maxSlippage",
                  "type": "uint64"
                }
              ],
              "internalType": "struct Perp.AssetRiskParams",
              "name": "assetRiskParams",
              "type": "tuple"
            },
            {
              "components": [
                {
                  "internalType": "uint256",
                  "name": "baseRate",
                  "type": "uint256"
                },
                {
                  "internalType": "uint256",
                  "name": "kinkRate",
                  "type": "uint256"
                },
                {
                  "internalType": "uint256",
                  "name": "slope1",
                  "type": "uint256"
                },
                {
                  "internalType": "uint256",
                  "name": "slope2",
                  "type": "uint256"
                }
              ],
              "internalType": "struct InterestRateModel.IRMParams",
              "name": "quoteIrmParams",
              "type": "tuple"
            },
            {
              "components": [
                {
                  "internalType": "uint256",
                  "name": "baseRate",
                  "type": "uint256"
                },
                {
                  "internalType": "uint256",
                  "name": "kinkRate",
                  "type": "uint256"
                },
                {
                  "internalType": "uint256",
                  "name": "slope1",
                  "type": "uint256"
                },
                {
                  "internalType": "uint256",
                  "name": "slope2",
                  "type": "uint256"
                }
              ],
              "internalType": "struct InterestRateModel.IRMParams",
              "name": "baseIrmParams",
              "type": "tuple"
            }
          ],
          "internalType": "struct AddPairLogic.AddPairParams",
          "name": "addPairParam",
          "type": "tuple"
        }
      ],
      "name": "registerPair",
      "outputs": [
        {
          "internalType": "uint256",
          "name": "",
          "type": "uint256"
        }
      ],
      "stateMutability": "nonpayable",
      "type": "function"
    },
    {
      "inputs": [
        {
          "internalType": "uint256",
          "name": "pairId",
          "type": "uint256"
        }
      ],
      "name": "revertPairStatus",
      "outputs": [],
      "stateMutability": "nonpayable",
      "type": "function"
    },
    {
      "inputs": [
        {
          "internalType": "uint256",
          "name": "vaultId",
          "type": "uint256"
        }
      ],
      "name": "revertVaultStatus",
      "outputs": [],
      "stateMutability": "nonpayable",
      "type": "function"
    },
    {
      "inputs": [
        {
          "internalType": "address",
          "name": "newOperator",
          "type": "address"
        }
      ],
      "name": "setOperator",
      "outputs": [],
      "stateMutability": "nonpayable",
      "type": "function"
    },
    {
      "inputs": [
        {
          "internalType": "uint256",
          "name": "pairId",
          "type": "uint256"
        },
        {
          "internalType": "bool",
          "name": "isQuoteAsset",
          "type": "bool"
        },
        {
          "internalType": "uint256",
          "name": "supplyAmount",
          "type": "uint256"
        }
      ],
      "name": "supply",
      "outputs": [
        {
          "internalType": "uint256",
          "name": "finalSuppliedAmount",
          "type": "uint256"
        }
      ],
      "stateMutability": "nonpayable",
      "type": "function"
    },
    {
      "inputs": [
        {
          "internalType": "bool",
          "name": "isQuoteAsset",
          "type": "bool"
        },
        {
          "internalType": "address",
          "name": "to",
          "type": "address"
        },
        {
          "internalType": "uint256",
          "name": "amount",
          "type": "uint256"
        }
      ],
      "name": "take",
      "outputs": [],
      "stateMutability": "nonpayable",
      "type": "function"
    },
    {
      "inputs": [
        {
          "components": [
            {
              "internalType": "uint256",
              "name": "pairId",
              "type": "uint256"
            },
            {
              "internalType": "uint256",
              "name": "vaultId",
              "type": "uint256"
            },
            {
              "internalType": "int256",
              "name": "tradeAmount",
              "type": "int256"
            },
            {
              "internalType": "int256",
              "name": "tradeAmountSqrt",
              "type": "int256"
            },
            {
              "internalType": "bytes",
              "name": "extraData",
              "type": "bytes"
            }
          ],
          "internalType": "struct IPredyPool.TradeParams",
          "name": "tradeParams",
          "type": "tuple"
        },
        {
          "internalType": "bytes",
          "name": "settlementData",
          "type": "bytes"
        }
      ],
      "name": "trade",
      "outputs": [
        {
          "components": [
            {
              "components": [
                {
                  "internalType": "int256",
                  "name": "perpEntryUpdate",
                  "type": "int256"
                },
                {
                  "internalType": "int256",
                  "name": "sqrtEntryUpdate",
                  "type": "int256"
                },
                {
                  "internalType": "int256",
                  "name": "sqrtRebalanceEntryUpdateUnderlying",
                  "type": "int256"
                },
                {
                  "internalType": "int256",
                  "name": "sqrtRebalanceEntryUpdateStable",
                  "type": "int256"
                },
                {
                  "internalType": "int256",
                  "name": "perpPayoff",
                  "type": "int256"
                },
                {
                  "internalType": "int256",
                  "name": "sqrtPayoff",
                  "type": "int256"
                }
              ],
              "internalType": "struct IPredyPool.Payoff",
              "name": "payoff",
              "type": "tuple"
            },
            {
              "internalType": "uint256",
              "name": "vaultId",
              "type": "uint256"
            },
            {
              "internalType": "int256",
              "name": "fee",
              "type": "int256"
            },
            {
              "internalType": "int256",
              "name": "minMargin",
              "type": "int256"
            },
            {
              "internalType": "int256",
              "name": "averagePrice",
              "type": "int256"
            },
            {
              "internalType": "uint256",
              "name": "sqrtTwap",
              "type": "uint256"
            },
            {
              "internalType": "uint256",
              "name": "sqrtPrice",
              "type": "uint256"
            }
          ],
          "internalType": "struct IPredyPool.TradeResult",
          "name": "tradeResult",
          "type": "tuple"
        }
      ],
      "stateMutability": "nonpayable",
      "type": "function"
    },
    {
      "inputs": [
        {
          "internalType": "uint256",
          "name": "amount0",
          "type": "uint256"
        },
        {
          "internalType": "uint256",
          "name": "amount1",
          "type": "uint256"
        },
        {
          "internalType": "bytes",
          "name": "",
          "type": "bytes"
        }
      ],
      "name": "uniswapV3MintCallback",
      "outputs": [],
      "stateMutability": "nonpayable",
      "type": "function"
    },
    {
      "inputs": [
        {
          "internalType": "uint256",
          "name": "pairId",
          "type": "uint256"
        },
        {
          "components": [
            {
              "internalType": "uint128",
              "name": "riskRatio",
              "type": "uint128"
            },
            {
              "internalType": "uint128",
              "name": "debtRiskRatio",
              "type": "uint128"
            },
            {
              "internalType": "int24",
              "name": "rangeSize",
              "type": "int24"
            },
            {
              "internalType": "int24",
              "name": "rebalanceThreshold",
              "type": "int24"
            },
            {
              "internalType": "uint64",
              "name": "minSlippage",
              "type": "uint64"
            },
            {
              "internalType": "uint64",
              "name": "maxSlippage",
              "type": "uint64"
            }
          ],
          "internalType": "struct Perp.AssetRiskParams",
          "name": "riskParams",
          "type": "tuple"
        }
      ],
      "name": "updateAssetRiskParams",
      "outputs": [],
      "stateMutability": "nonpayable",
      "type": "function"
    },
    {
      "inputs": [
        {
          "internalType": "uint256",
          "name": "pairId",
          "type": "uint256"
        },
        {
          "internalType": "uint8",
          "name": "feeRatio",
          "type": "uint8"
        }
      ],
      "name": "updateFeeRatio",
      "outputs": [],
      "stateMutability": "nonpayable",
      "type": "function"
    },
    {
      "inputs": [
        {
          "internalType": "uint256",
          "name": "pairId",
          "type": "uint256"
        },
        {
          "components": [
            {
              "internalType": "uint256",
              "name": "baseRate",
              "type": "uint256"
            },
            {
              "internalType": "uint256",
              "name": "kinkRate",
              "type": "uint256"
            },
            {
              "internalType": "uint256",
              "name": "slope1",
              "type": "uint256"
            },
            {
              "internalType": "uint256",
              "name": "slope2",
              "type": "uint256"
            }
          ],
          "internalType": "struct InterestRateModel.IRMParams",
          "name": "quoteIrmParams",
          "type": "tuple"
        },
        {
          "components": [
            {
              "internalType": "uint256",
              "name": "baseRate",
              "type": "uint256"
            },
            {
              "internalType": "uint256",
              "name": "kinkRate",
              "type": "uint256"
            },
            {
              "internalType": "uint256",
              "name": "slope1",
              "type": "uint256"
            },
            {
              "internalType": "uint256",
              "name": "slope2",
              "type": "uint256"
            }
          ],
          "internalType": "struct InterestRateModel.IRMParams",
          "name": "baseIrmParams",
          "type": "tuple"
        }
      ],
      "name": "updateIRMParams",
      "outputs": [],
      "stateMutability": "nonpayable",
      "type": "function"
    },
    {
      "inputs": [
        {
          "internalType": "uint256",
          "name": "pairId",
          "type": "uint256"
        },
        {
          "internalType": "address",
          "name": "poolOwner",
          "type": "address"
        }
      ],
      "name": "updatePoolOwner",
      "outputs": [],
      "stateMutability": "nonpayable",
      "type": "function"
    },
    {
      "inputs": [
        {
          "internalType": "uint256",
          "name": "pairId",
          "type": "uint256"
        },
        {
          "internalType": "address",
          "name": "priceOracle",
          "type": "address"
        }
      ],
      "name": "updatePriceOracle",
      "outputs": [],
      "stateMutability": "nonpayable",
      "type": "function"
    },
    {
      "inputs": [
        {
          "internalType": "uint256",
          "name": "vaultId",
          "type": "uint256"
        },
        {
          "internalType": "address",
          "name": "recipient",
          "type": "address"
        }
      ],
      "name": "updateRecepient",
      "outputs": [],
      "stateMutability": "nonpayable",
      "type": "function"
    },
    {
      "inputs": [
        {
          "internalType": "uint256",
          "name": "pairId",
          "type": "uint256"
        },
        {
          "internalType": "address",
          "name": "trader",
          "type": "address"
        },
        {
          "internalType": "bool",
          "name": "enabled",
          "type": "bool"
        }
      ],
      "name": "updateWhitelistAddress",
      "outputs": [],
      "stateMutability": "nonpayable",
      "type": "function"
    },
    {
      "inputs": [
        {
          "internalType": "uint256",
          "name": "pairId",
          "type": "uint256"
        },
        {
          "internalType": "bool",
          "name": "isQuoteAsset",
          "type": "bool"
        },
        {
          "internalType": "uint256",
          "name": "withdrawAmount",
          "type": "uint256"
        }
      ],
      "name": "withdraw",
      "outputs": [
        {
          "internalType": "uint256",
          "name": "finalBurnAmount",
          "type": "uint256"
        },
        {
          "internalType": "uint256",
          "name": "finalWithdrawAmount",
          "type": "uint256"
        }
      ],
      "stateMutability": "nonpayable",
      "type": "function"
    },
    {
      "inputs": [
        {
          "internalType": "uint256",
          "name": "pairId",
          "type": "uint256"
        },
        {
          "internalType": "bool",
          "name": "isQuoteToken",
          "type": "bool"
        }
      ],
      "name": "withdrawCreatorRevenue",
      "outputs": [],
      "stateMutability": "nonpayable",
      "type": "function"
    },
    {
      "inputs": [
        {
          "internalType": "uint256",
          "name": "pairId",
          "type": "uint256"
        },
        {
          "internalType": "bool",
          "name": "isQuoteToken",
          "type": "bool"
        }
      ],
      "name": "withdrawProtocolRevenue",
      "outputs": [],
      "stateMutability": "nonpayable",
      "type": "function"
    }
  ],
  "transactionHash": "0x819945df3921a2475f790ef7552c8befbc9c9a0efecec023fbe45564113e74e4",
  "args": [],
  "numDeployments": 7,
  "solcInputHash": "1b2b5f4fff0acbc6a835dd022eb6bc72",
  "bytecode": "0x608060405234801561001057600080fd5b5061489a806100206000396000f3fe608060405234801561001057600080fd5b50600436106101da5760003560e01c8063ab4db36011610104578063cd1b7a03116100a2578063db9d4a1911610071578063db9d4a1914610557578063e3bc237e1461056a578063f3eb8cd81461057d578063fc9e6eab146105a057600080fd5b8063cd1b7a031461048e578063cdcb35d01461051e578063ce1ff5aa14610531578063d34879971461054457600080fd5b8063c116ce86116100de578063c116ce8614610435578063c4d66de814610448578063c6b6d3401461045b578063c92af3ec1461046e57600080fd5b8063ab4db360146103fc578063acfcd9fd1461040f578063b3ab15fb1461042257600080fd5b806361b6be8b1161017c5780639403b6341161014b5780639403b6341461038857806395be76a2146103a85780639abbdf4b146103bb578063a8e0b3bc146103ce57600080fd5b806361b6be8b1461031757806376d407cd1461032a5780637f223b4c1461033d5780638670d9dc1461036557600080fd5b8063360125f1116101b8578063360125f114610245578063570ca735146102585780635c41a3fa1461026b578063613ce4101461027e57600080fd5b806318e80749146101df5780631a29d3ca1461020f5780631daf2c1914610230575b600080fd5b6101f26101ed3660046135f2565b6105b3565b6040516001600160a01b0390911681526020015b60405180910390f35b61022261021d36600461385e565b610602565b604051908152602001610206565b61024361023e3660046135f2565b610683565b005b6102436102533660046135f2565b6106f1565b6033546101f2906001600160a01b031681565b610243610279366004613919565b610730565b60345460355460365460408051608081018252603a546001600160a01b039081168252603b546020830152603c5492820192909252603d5460608201526102c9949392919091169084565b604080519485526020808601949094526001600160a01b039283168582015281519092166060808601919091529281015160808501529081015160a0840152015160c082015260e001610206565b610243610325366004613946565b6107e8565b610243610338366004613976565b61087b565b61035061034b36600461399b565b61096e565b60408051928352602083019190915201610206565b610378610373366004613a42565b610a17565b6040519015158152602001610206565b61039b6103963660046135f2565b610aa9565b6040516102069190613a88565b6102436103b6366004613b9c565b610bfd565b6102226103c93660046135f2565b610cb8565b6103786103dc366004613bdb565b603f60209081526000928352604080842090915290825290205460ff1681565b61024361040a366004613946565b610cd2565b61022261041d3660046135f2565b610d7c565b610243610430366004613c07565b611335565b610243610443366004613976565b6113c7565b610243610456366004613c07565b61149a565b610243610469366004613c24565b611630565b61048161047c3660046135f2565b61167a565b6040516102069190613e58565b6104a161049c366004613f37565b6119e5565b60408051825180518252602080820151818401528184015183850152606080830151818501526080808401518186015260a093840151848601529186015160c0808601919091529486015160e085015285015161010084015284015161012083015283015161014082015291015161016082015261018001610206565b61024361052c366004613946565b611afc565b6104a161053f366004613fe6565b611b8f565b610243610552366004614035565b611c2a565b61022261056536600461399b565b611d0d565b6102436105783660046140b4565b611da1565b61037861058b366004613c07565b603e6020526000908152604090205460ff1681565b6102436105ae3660046140f6565b611e3b565b6000818152603760205260408120602101546105fc906105db906001600160a01b0316611ec8565b600084815260376020526040902060320154600160a01b900460ff16611f39565b92915050565b604051635641324160e11b8152600090732D756f7912B5c61f35ca3E5b310C7C133A90977c9063ac8264829061064290603490603e90879060040161411b565b602060405180830381865af415801561065f573d6000803e3d6000fd5b505050506040513d601f19601f820116820180604052508101906105fc9190614217565b604051636e903d2560e11b81526034600482015260248101829052732140F617e8ceDb9E7f1b4F2c3F79cd064C7C088a9063dd207a4a906044015b60006040518083038186803b1580156106d657600080fd5b505af41580156106ea573d6000803e3d6000fd5b5050505050565b60405163919c1b6160e01b81526034600482015260248101829052732140F617e8ceDb9E7f1b4F2c3F79cd064C7C088a9063919c1b61906044016106be565b60008281526037602052604090206002015482906001600160a01b0316331461076c576040516302d42a8b60e61b815260040160405180910390fd5b6000838152603760205260409081902090516344a8ff6b60e11b8152732D756f7912B5c61f35ca3E5b310C7C133A90977c91638951fed6916107b391908690600401614230565b60006040518083038186803b1580156107cb57600080fd5b505af41580156107df573d6000803e3d6000fd5b50505050505050565b60008281526037602052604090206002015482906001600160a01b03163314610824576040516302d42a8b60e61b815260040160405180910390fd5b600083815260376020526040908190209051631852428f60e31b815260048101919091526001600160a01b0383166024820152732D756f7912B5c61f35ca3E5b310C7C133A90977c9063c2921478906044016107b3565b60008281526037602052604090206002015482906001600160a01b031633146108b7576040516302d42a8b60e61b815260040160405180910390fd5b60006108c38484611f66565b600d810154909150806109025760405162461bcd60e51b815260206004820152600260248201526120ad60f11b60448201526064015b60405180910390fd5b6000600d8301558015610925578154610925906001600160a01b03163383611f9c565b6040805186815285151560208201529081018290527f3173529fa665e8e2fb976911ab571026d35fafa1c7327c47bb3eceeccde4c5059060600160405180910390a15050505050565b60008061097961201d565b604051633e16468d60e01b81526034600482015260248101869052604481018490528415156064820152735E8d28Bd2abE77e9D3e9DD8CCc1727EDa616ACE090633e16468d906084016040805180830381865af41580156109de573d6000803e3d6000fd5b505050506040513d601f19601f82011682018060405250810190610a029190614244565b91509150610a0f60018055565b935093915050565b6000610a2161201d565b6040516326c34d6760e11b815273E64Ccc2549ed5E51417f30Cc57b0830759a30E2590634d869ace90610a5d90603490879087906004016142b8565b602060405180830381865af4158015610a7a573d6000803e3d6000fd5b505050506040513d601f19601f82011682018060405250810190610a9e91906142e0565b90506105fc60018055565b610ab1613254565b50600090815260396020908152604091829020825160c080820185528254825260018301546001600160a01b03908116838601526002808501548216848801526003850154909116606080850191909152600485015460808086019190915287516101008101895260058701548152600687015480850b828a01526301000000810490940b818a0152600160301b9093046001600160401b0316838301528751808901895260078701548152600887015481890152838201528751808501895260098701548152600a87015481890152600b870154818a0152600c87015492810192909252600d86015490820152600e85015460a0808301919091528083019190915286518088018852600f8601548152601086015481880152928201929092528551808701909652601184015486526012909301549385019390935260e08201939093529082015290565b60008381526037602052604090206002015483906001600160a01b03163314610c39576040516302d42a8b60e61b815260040160405180910390fd5b600084815260376020526040908190209051631a9cd26b60e01b8152732D756f7912B5c61f35ca3E5b310C7C133A90977c91631a9cd26b91610c829190879087906004016142fd565b60006040518083038186803b158015610c9a57600080fd5b505af4158015610cae573d6000803e3d6000fd5b5050505050505050565b6000610cc560348361207c565b6105fc60346000846120a8565b60008281526039602052604090206002015482906001600160a01b03163314610d0e57604051631b65793760e01b815260040160405180910390fd5b6000838152603960209081526040918290206003810180546001600160a01b0319166001600160a01b038716908117909155835187815292830152917fb366571df43de977d0635daba11a487957fbf2197c1bcb1cc8a1d0342b2ec89591015b60405180910390a150505050565b60006105fc6034600301600084815260200190815260200160002060405180610180016040529081600082015481526020016001820160009054906101000a90046001600160a01b03166001600160a01b03166001600160a01b031681526020016002820160009054906101000a90046001600160a01b03166001600160a01b03166001600160a01b03168152602001600382016040518060c00160405290816000820160009054906101000a90046001600160a01b03166001600160a01b03166001600160a01b031681526020016001820160009054906101000a90046001600160a01b03166001600160a01b03166001600160a01b03168152602001600282016040518060c001604052908160008201548152602001600182015481526020016002820154815260200160038201548152602001600482015481526020016005820154815250508152602001600882016040518060800160405290816000820154815260200160018201548152602001600282015481526020016003820154815250508152602001600c8201548152602001600d820154815250508152602001601182016040518060c00160405290816000820160009054906101000a90046001600160a01b03166001600160a01b03166001600160a01b031681526020016001820160009054906101000a90046001600160a01b03166001600160a01b03166001600160a01b03168152602001600282016040518060c001604052908160008201548152602001600182015481526020016002820154815260200160038201548152602001600482015481526020016005820154815250508152602001600882016040518060800160405290816000820154815260200160018201548152602001600282015481526020016003820154815250508152602001600c8201548152602001600d820154815250508152602001601f82016040518060c00160405290816000820160009054906101000a90046001600160801b03166001600160801b03166001600160801b031681526020016000820160109054906101000a90046001600160801b03166001600160801b03166001600160801b031681526020016001820160009054906101000a900460020b60020b60020b81526020016001820160039054906101000a900460020b60020b60020b81526020016001820160069054906101000a90046001600160401b03166001600160401b03166001600160401b0316815260200160018201600e9054906101000a90046001600160401b03166001600160401b03166001600160401b031681525050815260200160218201604051806102200160405290816000820160009054906101000a90046001600160a01b03166001600160a01b03166001600160a01b031681526020016000820160149054906101000a900460020b60020b60020b81526020016000820160179054906101000a900460020b60020b60020b81526020016001820160009054906101000a90046001600160401b03166001600160401b03166001600160401b031681526020016002820154815260200160038201548152602001600482015481526020016005820154815260200160068201548152602001600782015481526020016008820154815260200160098201548152602001600a8201548152602001600b8201604051806040016040529081600082015481526020016001820154815250508152602001600d8201604051806040016040529081600082015481526020016001820154815250508152602001600f820154815260200160108201548152505081526020016032820160009054906101000a90046001600160a01b03166001600160a01b03166001600160a01b031681526020016032820160149054906101000a900460ff161515151581526020016032820160159054906101000a900460ff161515151581526020016032820160169054906101000a900460ff1660ff1660ff168152602001603382015481525050612379565b6033546001600160a01b031633146113605760405163683b4ec760e11b815260040160405180910390fd5b6001600160a01b03811661137357600080fd5b603380546001600160a01b0319166001600160a01b0383169081179091556040519081527fb3b3f5f64ab192e4b5fefde1f51ce9733bbdcf831951543b325aebd49cc27ec49060200160405180910390a150565b6033546001600160a01b031633146113f25760405163683b4ec760e11b815260040160405180910390fd5b60006113fe8383611f66565b600c810154909150806114385760405162461bcd60e51b815260206004820152600260248201526120ad60f11b60448201526064016108f9565b6000600c830155801561145b57815461145b906001600160a01b03163383611f9c565b6040805185815284151560208201529081018290527f5a20c28abe112981e0c6cfb468231d1ad8f18fb4c13c2e9bd84fa984aef8de6c90606001610d6e565b600054610100900460ff16158080156114ba5750600054600160ff909116105b806114d45750303b1580156114d4575060005460ff166001145b6115375760405162461bcd60e51b815260206004820152602e60248201527f496e697469616c697a61626c653a20636f6e747261637420697320616c72656160448201526d191e481a5b9a5d1a585b1a5e995960921b60648201526084016108f9565b6000805460ff19166001179055801561155a576000805461ff0019166101001790555b611562612404565b604051637d89ae2160e11b8152603460048201526001600160a01b0383166024820152732D756f7912B5c61f35ca3E5b310C7C133A90977c9063fb135c429060440160006040518083038186803b1580156115bc57600080fd5b505af41580156115d0573d6000803e3d6000fd5b5050603380546001600160a01b031916331790555050801561162c576000805461ff0019169055604051600181527f7f26b83ff96e1f2b6a682f133852f6798a09c465da95921460cefb38474024989060200160405180910390a15b5050565b603a546001600160a01b0316338114611667576040516313d2c13360e21b81526001600160a01b03821660048201526024016108f9565b6116746034858585612435565b50505050565b6116826132aa565b61168d60348361207c565b50600090815260376020908152604091829020825161018080820185528254825260018301546001600160a01b0390811683860152600280850154821684880152865160c08082018952600387015484168252600487015484168289015288518082018a52600588015481526006880154818a01526007880154818b015260088801546060828101919091526009890154608080840191909152600a8a015460a080850191909152858d01939093528b518082018d52600b8b01548152600c8b0154818d0152600d8b0154818e0152600e8b01548184015285830152600f8a01548186015260108a015483860152818901949094528a518084018c5260118a01548716815260128a01548716818c01528b518085018d5260138b0154815260148b0154818d015260158b0154818e015260168b01548184015260178b01548187015260188b015481850152818d01528b518086018d5260198b01548152601a8b0154818d0152601b8b0154818e0152601c8b01548184015281830152601d8a015481860152601e8a015481840152848901528a518084018c52601f8a01546001600160801b038082168352600160801b90910416818c0152898b015480870b828e015263010000008104870b828401526001600160401b03600160301b8204811683880152600160701b909104811682850152838a01919091528b5161022081018d5260218b01548089168252600160a01b808204890b838f0152600160b81b90910490970b818e015260228b015490911691810191909152602389015493810193909352602488015490830152602587015482820152602687015460e08084019190915260278801546101008481019190915260288901546101208086019190915260298a015461014080870191909152602a8b015461016080880191909152602b8c0154998701999099528c51808e018e52602c8c01548152602d8c0154818e01526101a08701528c51808e01909d52602e8b01548d52602f8b01549b8d019b909b526101c085019b909b5260308901546101e085015260318901546102008501529187019290925260328701549384169186019190915260ff9183048216151590850152600160a81b82048116151596840196909652600160b01b900490941692810192909252603301549181019190915290565b6119ed61335d565b82516119fb9060349061207c565b8251600090815260376020526040902060320154600160a81b900460ff168015611a415750336000908152603f602090815260408083208651845290915290205460ff16155b15611a5f57604051636447b16560e11b815260040160405180910390fd5b60208301518351611a72916034916120a8565b6020840152604051634ab1481b60e11b815273dE12Aa19734DaCbd34CeDdE14F8290a70A85537f90639562903690611ab39060349087908790600401614361565b61018060405180830381865af4158015611ad1573d6000803e3d6000fd5b505050506040513d601f19601f82011682018060405250810190611af591906143ca565b9392505050565b60008281526037602052604090206002015482906001600160a01b03163314611b38576040516302d42a8b60e61b815260040160405180910390fd5b600083815260376020526040908190209051634b5f4ebf60e01b815260048101919091526001600160a01b0383166024820152732D756f7912B5c61f35ca3E5b310C7C133A90977c90634b5f4ebf906044016107b3565b611b9761335d565b611b9f61201d565b6040516313e660f560e21b8152730493A63109F37f08376Fd0C321b012C34f946ca790634f9983d490611bdd90879087906034908890600401614482565b61018060405180830381865af4158015611bfb573d6000803e3d6000fd5b505050506040513d601f19601f82011682018060405250810190611c1f91906143ca565b9050611af560018055565b336000908152603e602052604090205460ff16611c4657600080fd5b338415611cc457611cc43386836001600160a01b0316630dfe16816040518163ffffffff1660e01b8152600401602060405180830381865afa158015611c90573d6000803e3d6000fd5b505050506040513d601f19601f82011682018060405250810190611cb491906144a7565b6001600160a01b03169190611f9c565b83156106ea576106ea3385836001600160a01b031663d21220a76040518163ffffffff1660e01b8152600401602060405180830381865afa158015611c90573d6000803e3d6000fd5b6000611d1761201d565b604051633ec463bf60e01b81526034600482015260248101859052604481018390528315156064820152735E8d28Bd2abE77e9D3e9DD8CCc1727EDa616ACE090633ec463bf90608401602060405180830381865af4158015611d7d573d6000803e3d6000fd5b505050506040513d601f19601f82011682018060405250810190611c1f9190614217565b60008381526037602052604090206002015483906001600160a01b03163314611ddd576040516302d42a8b60e61b815260040160405180910390fd5b600084815260376020526040902060320154600160a81b900460ff16611e0257600080fd5b506001600160a01b03919091166000908152603f6020908152604080832094835293905291909120805460ff1916911515919091179055565b60008281526037602052604090206002015482906001600160a01b03163314611e77576040516302d42a8b60e61b815260040160405180910390fd5b600083815260376020526040908190209051631b483ecf60e31b8152600481019190915260ff83166024820152732D756f7912B5c61f35ca3E5b310C7C133A90977c9063da41f678906044016107b3565b6000816001600160a01b0316633850c7bd6040518163ffffffff1660e01b815260040160e060405180830381865afa158015611f08573d6000803e3d6000fd5b505050506040513d601f19601f82011682018060405250810190611f2c91906144d6565b5094979650505050505050565b60008115611f5f57611f586001600160a01b038416600160c01b614594565b90506105fc565b50816105fc565b60008115611f85575060008281526037602052604090206003016105fc565b5060008281526037602052604090206011016105fc565b600060405163a9059cbb60e01b81526001600160a01b0384166004820152826024820152602060006044836000895af13d15601f3d11600160005114161716915050806116745760405162461bcd60e51b815260206004820152600f60248201526e1514905394d1915497d19052531151608a1b60448201526064016108f9565b60026001540361206f5760405162461bcd60e51b815260206004820152601f60248201527f5265656e7472616e637947756172643a207265656e7472616e742063616c6c0060448201526064016108f9565b6002600155565b60018055565b80158061208a575081548110155b1561162c5760405163a8c399e560e01b815260040160405180910390fd5b60008181526003840160205260408120600101546001600160a01b031683820361219e576001858101805460008181526005808a0160205260408220838155600281018054336001600160a01b03199182168117909255600383018054821690921790915591810189905594850180549091166001600160a01b038716179055825491939290612137836145a8565b909155505080546002820154604080519283526001600160a01b0391821660208401529085168282015260608201879052517fe69753e50bf059b3600feb46679d77e5d58780bbf62f4d6ec6dcfac1bb93774e9181900360800190a1549250611af5915050565b600084815260058681016020908152604092839020835160c080820186528254825260018301546001600160a01b039081168386015260028085015482168489019081526003860154831660608087019190915260048701546080808801919091528a5161010081018c52998801548a52600688015480850b8b8b01526301000000810490940b8a8c0152600160301b9093046001600160401b0316898201528951808b018b52600788015481526008880154818a01528984015289518086018b5260098801548152600a880154818a0152600b880154818c0152600c88015491810191909152600d87015492810192909252600e86015460a080840191909152808901929092528851808a018a52600f8701548152601087015481890152938801939093528751808901909852601185015488526012909401549487019490945260e085019590955290810192909252915190913391161461231457604051631b65793760e01b815260040160405180910390fd5b816001600160a01b031681602001516001600160a01b03161461234a57604051630b89b31360e21b815260040160405180910390fd5b60a081015151841461236f576040516324d0239560e11b815260040160405180910390fd5b519150611af59050565b60e08101516000906001600160a01b0316156123d1578160e001516001600160a01b03166386e6862d6040518163ffffffff1660e01b8152600401602060405180830381865afa15801561065f573d6000803e3d6000fd5b6123f06123e58360c0015160000151612a26565b836101000151611f39565b6001600160a01b031692915050565b919050565b600054610100900460ff1661242b5760405162461bcd60e51b81526004016108f9906145c1565b612433612a3b565b565b60008460030160008660060160030154815260200190815260200160002060405180610180016040529081600082015481526020016001820160009054906101000a90046001600160a01b03166001600160a01b03166001600160a01b031681526020016002820160009054906101000a90046001600160a01b03166001600160a01b03166001600160a01b03168152602001600382016040518060c00160405290816000820160009054906101000a90046001600160a01b03166001600160a01b03166001600160a01b031681526020016001820160009054906101000a90046001600160a01b03166001600160a01b03166001600160a01b03168152602001600282016040518060c001604052908160008201548152602001600182015481526020016002820154815260200160038201548152602001600482015481526020016005820154815250508152602001600882016040518060800160405290816000820154815260200160018201548152602001600282015481526020016003820154815250508152602001600c8201548152602001600d820154815250508152602001601182016040518060c00160405290816000820160009054906101000a90046001600160a01b03166001600160a01b03166001600160a01b031681526020016001820160009054906101000a90046001600160a01b03166001600160a01b03166001600160a01b03168152602001600282016040518060c001604052908160008201548152602001600182015481526020016002820154815260200160038201548152602001600482015481526020016005820154815250508152602001600882016040518060800160405290816000820154815260200160018201548152602001600282015481526020016003820154815250508152602001600c8201548152602001600d820154815250508152602001601f82016040518060c00160405290816000820160009054906101000a90046001600160801b03166001600160801b03166001600160801b031681526020016000820160109054906101000a90046001600160801b03166001600160801b03166001600160801b031681526020016001820160009054906101000a900460020b60020b60020b81526020016001820160039054906101000a900460020b60020b60020b81526020016001820160069054906101000a90046001600160401b03166001600160401b03166001600160401b0316815260200160018201600e9054906101000a90046001600160401b03166001600160401b03166001600160401b031681525050815260200160218201604051806102200160405290816000820160009054906101000a90046001600160a01b03166001600160a01b03166001600160a01b031681526020016000820160149054906101000a900460020b60020b60020b81526020016000820160179054906101000a900460020b60020b60020b81526020016001820160009054906101000a90046001600160401b03166001600160401b03166001600160401b031681526020016002820154815260200160038201548152602001600482015481526020016005820154815260200160068201548152602001600782015481526020016008820154815260200160098201548152602001600a8201548152602001600b8201604051806040016040529081600082015481526020016001820154815250508152602001600d8201604051806040016040529081600082015481526020016001820154815250508152602001600f820154815260200160108201548152505081526020016032820160009054906101000a90046001600160a01b03166001600160a01b03166001600160a01b031681526020016032820160149054906101000a900460ff161515151581526020016032820160159054906101000a900460ff161515151581526020016032820160169054906101000a900460ff1660ff1660ff168152602001603382015481525050905060008415612a025750606081015151612a0a565b506080810151515b612a1e6001600160a01b0382168585611f9c565b505050505050565b6000612a3482610708612a62565b5092915050565b600054610100900460ff166120765760405162461bcd60e51b81526004016108f9906145c1565b6040805160028082526060820183526000928392839290916020830190803683370190505090508381600081518110612a9d57612a9d61460c565b602002602001019063ffffffff16908163ffffffff1681525050600081600181518110612acc57612acc61460c565b602002602001019063ffffffff16908163ffffffff1681525050600080866001600160a01b031663883bdbfd60e01b84604051602401612b0c9190614622565b60408051601f198184030181529181526020820180516001600160e01b03166001600160e01b0319909416939093179092529051612b4a919061466c565b600060405180830381855afa9150503d8060008114612b85576040519150601f19603f3d011682016040523d82523d6000602084013e612b8a565b606091505b509150915081612e6a5760405160206024820152600360448201526213d31160ea1b606482015260840160408051601f19818403018152919052602080820180516001600160e01b031662461bcd60e51b178152915190912082519183019190912014612bfa57612bfa81612eea565b600080886001600160a01b0316633850c7bd6040518163ffffffff1660e01b815260040160e060405180830381865afa158015612c3b573d6000803e3d6000fd5b505050506040513d601f19601f82011682018060405250810190612c5f91906144d6565b5050509350935050506000808a6001600160a01b031663252c09d784866001612c889190614688565b612c9291906146a3565b6040516001600160e01b031960e084901b16815261ffff9091166004820152602401608060405180830381865afa158015612cd1573d6000803e3d6000fd5b505050506040513d601f19601f82011682018060405250810190612cf591906146d6565b93505050915080612d705760405163252c09d760e01b8152600060048201526001600160a01b038c169063252c09d790602401608060405180830381865afa158015612d45573d6000803e3d6000fd5b505050506040513d601f19601f82011682018060405250810190612d6991906146d6565b5091935050505b612d8063ffffffff83164261473a565b99508987600081518110612d9657612d9661460c565b602002602001019063ffffffff16908163ffffffff16815250508a6001600160a01b031663883bdbfd60e01b88604051602401612dd39190614622565b60408051601f198184030181529181526020820180516001600160e01b03166001600160e01b0319909416939093179092529051612e11919061466c565b600060405180830381855afa9150503d8060008114612e4c576040519150601f19603f3d011682016040523d82523d6000602084013e612e51565b606091505b50909650945085612e6557612e6585612eea565b505050505b600081806020019051810190612e80919061474d565b905060008782600081518110612e9857612e9861460c565b602002602001015183600181518110612eb357612eb361460c565b6020026020010151612ec591906147f9565b612ecf9190614826565b90506000612edc82612f31565b9a9899505050505050505050565b805115612ef957805181602001fd5b60405162461bcd60e51b815260206004820152600d60248201526c3297b2b6b83a3c96b2b93937b960991b60448201526064016108f9565b60008060008360020b12612f48578260020b612f50565b8260020b6000035b9050620d89e8811115612f76576040516315e4079d60e11b815260040160405180910390fd5b600081600116600003612f8d57600160801b612f9f565b6ffffcb933bd6fad37aa2d162d1a5940015b70ffffffffffffffffffffffffffffffffff1690506002821615612fd3576ffff97272373d413259a46990580e213a0260801c5b6004821615612ff2576ffff2e50f5f656932ef12357cf3c7fdcc0260801c5b6008821615613011576fffe5caca7e10e4e61c3624eaa0941cd00260801c5b6010821615613030576fffcb9843d60f6159c9db58835c9266440260801c5b602082161561304f576fff973b41fa98c081472e6896dfb254c00260801c5b604082161561306e576fff2ea16466c96a3843ec78b326b528610260801c5b608082161561308d576ffe5dee046a99a2a811c461f1969c30530260801c5b6101008216156130ad576ffcbe86c7900a88aedcffc83b479aa3a40260801c5b6102008216156130cd576ff987a7253ac413176f2b074cf7815e540260801c5b6104008216156130ed576ff3392b0822b70005940c7a398e4b70f30260801c5b61080082161561310d576fe7159475a2c29b7443b29c7fa6e889d90260801c5b61100082161561312d576fd097f3bdfd2022b8845ad8f792aa58250260801c5b61200082161561314d576fa9f746462d870fdf8a65dc1f90e061e50260801c5b61400082161561316d576f70d869a156d2a1b890bb3df62baf32f70260801c5b61800082161561318d576f31be135f97d08fd981231505542fcfa60260801c5b620100008216156131ae576f09aa508b5b7a84e1c677de54f3e99bc90260801c5b620200008216156131ce576e5d6af8dedb81196699c329225ee6040260801c5b620400008216156131ed576d2216e584f5fa1ea926041bedfe980260801c5b6208000082161561320a576b048a170391f7dc42444e8fa20260801c5b60008460020b131561322b57806000198161322757613227614568565b0490505b64010000000081061561323f576001613242565b60005b60ff16602082901c0192505050919050565b6040518060c001604052806000815260200160006001600160a01b0316815260200160006001600160a01b0316815260200160006001600160a01b03168152602001600081526020016132a56133d1565b905290565b6040518061018001604052806000815260200160006001600160a01b0316815260200160006001600160a01b031681526020016132e561348c565b81526020016132f261348c565b81526040805160c08101825260008082526020828101829052928201819052606082018190526080820181905260a08201529101908152602001613334613534565b815260006020820181905260408201819052606082018190526080820181905260a09091015290565b6040518060e001604052806133a16040518060c001604052806000815260200160008152602001600081526020016000815260200160008152602001600081525090565b81526020016000815260200160008152602001600081526020016000815260200160008152602001600081525090565b60408051610100810182526000808252602080830182905282840182905260608301829052835180850190945281845283015290608082019081526020016134486040518060c001604052806000815260200160008152602001600081526020016000815260200160008152602001600081525090565b815260200161346a604051806040016040528060008152602001600081525090565b81526020016132a5604051806040016040528060008152602001600081525090565b6040518060c0016040528060006001600160a01b0316815260200160006001600160a01b031681526020016134f06040518060c001604052806000815260200160008152602001600081526020016000815260200160008152602001600081525090565b81526020016135206040518060800160405280600081526020016000815260200160008152602001600081525090565b815260200160008152602001600081525090565b60405180610220016040528060006001600160a01b03168152602001600060020b8152602001600060020b815260200160006001600160401b031681526020016000815260200160008152602001600081526020016000815260200160008152602001600081526020016000815260200160008152602001600081526020016135d0604051806040016040528060008152602001600081525090565b8152602001613520604051806040016040528060008152602001600081525090565b60006020828403121561360457600080fd5b5035919050565b634e487b7160e01b600052604160045260246000fd5b60405160c081016001600160401b03811182821017156136435761364361360b565b60405290565b60405161012081016001600160401b03811182821017156136435761364361360b565b60405160a081016001600160401b03811182821017156136435761364361360b565b60405160e081016001600160401b03811182821017156136435761364361360b565b604051601f8201601f191681016001600160401b03811182821017156136d8576136d861360b565b604052919050565b6001600160a01b03811681146136f557600080fd5b50565b80356123ff816136e0565b80151581146136f557600080fd5b80356123ff81613703565b60ff811681146136f557600080fd5b80356123ff8161371c565b80356001600160801b03811681146123ff57600080fd5b8060020b81146136f557600080fd5b80356001600160401b03811681146123ff57600080fd5b600060c0828403121561378557600080fd5b61378d613621565b905061379882613736565b81526137a660208301613736565b602082015260408201356137b98161374d565b604082015260608201356137cc8161374d565b60608201526137dd6080830161375c565b60808201526137ee60a0830161375c565b60a082015292915050565b60006080828403121561380b57600080fd5b604051608081018181106001600160401b038211171561382d5761382d61360b565b8060405250809150823581526020830135602082015260408301356040820152606083013560608201525092915050565b6000610280828403121561387157600080fd5b613879613649565b613882836136f8565b8152613890602084016136f8565b60208201526138a1604084016136f8565b60408201526138b2606084016136f8565b60608201526138c360808401613711565b60808201526138d460a0840161372b565b60a08201526138e68460c08501613773565b60c08201526138f98461018085016137f9565b60e082015261390c8461020085016137f9565b6101008201529392505050565b60008060e0838503121561392c57600080fd5b8235915061393d8460208501613773565b90509250929050565b6000806040838503121561395957600080fd5b82359150602083013561396b816136e0565b809150509250929050565b6000806040838503121561398957600080fd5b82359150602083013561396b81613703565b6000806000606084860312156139b057600080fd5b8335925060208401356139c281613703565b929592945050506040919091013590565b600082601f8301126139e457600080fd5b81356001600160401b038111156139fd576139fd61360b565b613a10601f8201601f19166020016136b0565b818152846020838601011115613a2557600080fd5b816020850160208301376000918101602001919091529392505050565b60008060408385031215613a5557600080fd5b8235915060208301356001600160401b03811115613a7257600080fd5b613a7e858286016139d3565b9150509250929050565b60006102a08201905082518252602083015160018060a01b03808216602085015280604086015116604085015280606086015116606085015250506080830151608083015260a0830151805160a0840152602081015160020b60c0840152604081015160020b60e08401526001600160401b036060820151166101008401526080810151613b2461012085018280518252602090810151910152565b5060a081810151805161016086015260208082015161018087015260408201516101a087015260608201516101c087015260808201516101e087015291015161020085015260c0820151805161022086015281015161024085015260e090910151805161026085015290810151610280840152612a34565b60008060006101208486031215613bb257600080fd5b83359250613bc385602086016137f9565b9150613bd28560a086016137f9565b90509250925092565b60008060408385031215613bee57600080fd5b8235613bf9816136e0565b946020939093013593505050565b600060208284031215613c1957600080fd5b8135611af5816136e0565b600080600060608486031215613c3957600080fd5b8335613c4481613703565b925060208401356139c2816136e0565b60018060a01b03808251168352806020830151166020840152506040810151805160408401526020810151606084015260408101516080840152606081015160a0840152608081015160c084015260a081015160e0840152506060810151613ce1610100840182805182526020810151602083015260408101516040830152606081015160608301525050565b50608081015161018083015260a001516101a090910152565b6001600160801b0380825116835280602083015116602084015250604081015160020b6040830152606081015160020b606083015260808101516001600160401b0380821660808501528060a08401511660a085015250505050565b80516001600160a01b031682526020810151613d77602084018260020b9052565b506040810151613d8c604084018260020b9052565b506060810151613da760608401826001600160401b03169052565b506080818101519083015260a0808201519083015260c0808201519083015260e08082015190830152610100808201519083015261012080820151908301526101408082015190830152610160808201519083015261018080820151908301526101a08082015180518285015260208101516101c085015250506101c08101516101e0613e408185018380518252602090810151910152565b82015161022084015250610200015161024090910152565b815181526020808301516107a0830191613e7c908401826001600160a01b03169052565b506040830151613e9760408401826001600160a01b03169052565b506060830151613eaa6060840182613c54565b506080830151613ebe610220840182613c54565b5060a0830151613ed26103e0840182613cfa565b5060c0830151613ee66104a0840182613d56565b5060e08301516001600160a01b03166107008301526101008301511515610720830152610120830151151561074083015261014083015160ff16610760830152610160909201516107809091015290565b60008060408385031215613f4a57600080fd5b82356001600160401b0380821115613f6157600080fd5b9084019060a08287031215613f7557600080fd5b613f7d61366c565b82358152602083013560208201526040830135604082015260608301356060820152608083013582811115613fb157600080fd5b613fbd888286016139d3565b60808301525093506020850135915080821115613fd957600080fd5b50613a7e858286016139d3565b600080600060608486031215613ffb57600080fd5b833592506020840135915060408401356001600160401b0381111561401f57600080fd5b61402b868287016139d3565b9150509250925092565b6000806000806060858703121561404b57600080fd5b843593506020850135925060408501356001600160401b038082111561407057600080fd5b818701915087601f83011261408457600080fd5b81358181111561409357600080fd5b8860208285010111156140a557600080fd5b95989497505060200194505050565b6000806000606084860312156140c957600080fd5b8335925060208401356140db816136e0565b915060408401356140eb81613703565b809150509250925092565b6000806040838503121561410957600080fd5b82359150602083013561396b8161371c565b838152602080820184905282516001600160a01b031660408301528201516102c082019061415460608401826001600160a01b03169052565b5060408301516001600160a01b03811660808401525060608301516001600160a01b03811660a084015250608083015180151560c08401525060a083015160ff811660e08401525060c08301516101006141b081850183613cfa565b60e085015180516101c086015260208101516101e086015260408101516102008601526060810151610220860152915084015180516102408501526020810151610260850152604081015161028085015260608101516102a0850152905050949350505050565b60006020828403121561422957600080fd5b5051919050565b82815260e08101611af56020830184613cfa565b6000806040838503121561425757600080fd5b505080516020909101519092909150565b60005b8381101561428357818101518382015260200161426b565b50506000910152565b600081518084526142a4816020860160208601614268565b601f01601f19169290920160200192915050565b8381528260208201526060604082015260006142d7606083018461428c565b95945050505050565b6000602082840312156142f257600080fd5b8151611af581613703565b83815261012081016143336020830185805182526020810151602083015260408101516040830152606081015160608301525050565b825160a0830152602083015160c0830152604083015160e08301526060830151610100830152949350505050565b838152606060208201528251606082015260208301516080820152604083015160a0820152606083015160c08201526000608084015160a060e08401526143ac61010084018261428c565b905082810360408401526143c0818561428c565b9695505050505050565b60008183036101808112156143de57600080fd5b6143e661368e565b60c08212156143f457600080fd5b6143fc613621565b9150835182526020840151602083015260408401516040830152606084015160608301526080840151608083015260a084015160a083015281815260c0840151602082015260e084015160408201526101008401516060820152610120840151608082015261014084015160a082015261016084015160c0820152809250505092915050565b8481528360208201528260408201526080606082015260006143c0608083018461428c565b6000602082840312156144b957600080fd5b8151611af5816136e0565b805161ffff811681146123ff57600080fd5b600080600080600080600060e0888a0312156144f157600080fd5b87516144fc816136e0565b602089015190975061450d8161374d565b955061451b604089016144c4565b9450614529606089016144c4565b9350614537608089016144c4565b925060a08801516145478161371c565b60c089015190925061455881613703565b8091505092959891949750929550565b634e487b7160e01b600052601260045260246000fd5b634e487b7160e01b600052601160045260246000fd5b6000826145a3576145a3614568565b500490565b6000600182016145ba576145ba61457e565b5060010190565b6020808252602b908201527f496e697469616c697a61626c653a20636f6e7472616374206973206e6f74206960408201526a6e697469616c697a696e6760a81b606082015260800190565b634e487b7160e01b600052603260045260246000fd5b6020808252825182820181905260009190848201906040850190845b8181101561466057835163ffffffff168352928401929184019160010161463e565b50909695505050505050565b6000825161467e818460208701614268565b9190910192915050565b61ffff818116838216019080821115612a3457612a3461457e565b600061ffff808416806146b8576146b8614568565b92169190910692915050565b8051600681900b81146123ff57600080fd5b600080600080608085870312156146ec57600080fd5b845163ffffffff8116811461470057600080fd5b935061470e602086016146c4565b9250604085015161471e816136e0565b606086015190925061472f81613703565b939692955090935050565b818103818111156105fc576105fc61457e565b6000602080838503121561476057600080fd5b82516001600160401b038082111561477757600080fd5b818501915085601f83011261478b57600080fd5b81518181111561479d5761479d61360b565b8060051b91506147ae8483016136b0565b81815291830184019184810190888411156147c857600080fd5b938501935b838510156147ed576147de856146c4565b825293850193908501906147cd565b98975050505050505050565b600682810b9082900b03667fffffffffffff198112667fffffffffffff821317156105fc576105fc61457e565b60008160060b8360060b8061483d5761483d614568565b667fffffffffffff1982146000198214161561485b5761485b61457e565b9005939250505056fea2646970667358221220cc7bc1c948b23f584932dd9a7986f0b83bc60626bbf9f6a5e745bc09e96f0d3864736f6c63430008130033",
  "deployedBytecode": "0x608060405234801561001057600080fd5b50600436106101da5760003560e01c8063ab4db36011610104578063cd1b7a03116100a2578063db9d4a1911610071578063db9d4a1914610557578063e3bc237e1461056a578063f3eb8cd81461057d578063fc9e6eab146105a057600080fd5b8063cd1b7a031461048e578063cdcb35d01461051e578063ce1ff5aa14610531578063d34879971461054457600080fd5b8063c116ce86116100de578063c116ce8614610435578063c4d66de814610448578063c6b6d3401461045b578063c92af3ec1461046e57600080fd5b8063ab4db360146103fc578063acfcd9fd1461040f578063b3ab15fb1461042257600080fd5b806361b6be8b1161017c5780639403b6341161014b5780639403b6341461038857806395be76a2146103a85780639abbdf4b146103bb578063a8e0b3bc146103ce57600080fd5b806361b6be8b1461031757806376d407cd1461032a5780637f223b4c1461033d5780638670d9dc1461036557600080fd5b8063360125f1116101b8578063360125f114610245578063570ca735146102585780635c41a3fa1461026b578063613ce4101461027e57600080fd5b806318e80749146101df5780631a29d3ca1461020f5780631daf2c1914610230575b600080fd5b6101f26101ed3660046135f2565b6105b3565b6040516001600160a01b0390911681526020015b60405180910390f35b61022261021d36600461385e565b610602565b604051908152602001610206565b61024361023e3660046135f2565b610683565b005b6102436102533660046135f2565b6106f1565b6033546101f2906001600160a01b031681565b610243610279366004613919565b610730565b60345460355460365460408051608081018252603a546001600160a01b039081168252603b546020830152603c5492820192909252603d5460608201526102c9949392919091169084565b604080519485526020808601949094526001600160a01b039283168582015281519092166060808601919091529281015160808501529081015160a0840152015160c082015260e001610206565b610243610325366004613946565b6107e8565b610243610338366004613976565b61087b565b61035061034b36600461399b565b61096e565b60408051928352602083019190915201610206565b610378610373366004613a42565b610a17565b6040519015158152602001610206565b61039b6103963660046135f2565b610aa9565b6040516102069190613a88565b6102436103b6366004613b9c565b610bfd565b6102226103c93660046135f2565b610cb8565b6103786103dc366004613bdb565b603f60209081526000928352604080842090915290825290205460ff1681565b61024361040a366004613946565b610cd2565b61022261041d3660046135f2565b610d7c565b610243610430366004613c07565b611335565b610243610443366004613976565b6113c7565b610243610456366004613c07565b61149a565b610243610469366004613c24565b611630565b61048161047c3660046135f2565b61167a565b6040516102069190613e58565b6104a161049c366004613f37565b6119e5565b60408051825180518252602080820151818401528184015183850152606080830151818501526080808401518186015260a093840151848601529186015160c0808601919091529486015160e085015285015161010084015284015161012083015283015161014082015291015161016082015261018001610206565b61024361052c366004613946565b611afc565b6104a161053f366004613fe6565b611b8f565b610243610552366004614035565b611c2a565b61022261056536600461399b565b611d0d565b6102436105783660046140b4565b611da1565b61037861058b366004613c07565b603e6020526000908152604090205460ff1681565b6102436105ae3660046140f6565b611e3b565b6000818152603760205260408120602101546105fc906105db906001600160a01b0316611ec8565b600084815260376020526040902060320154600160a01b900460ff16611f39565b92915050565b604051635641324160e11b815260009073__$95910b7b93a5208ca27f4262a74795a535$__9063ac8264829061064290603490603e90879060040161411b565b602060405180830381865af415801561065f573d6000803e3d6000fd5b505050506040513d601f19601f820116820180604052508101906105fc9190614217565b604051636e903d2560e11b8152603460048201526024810182905273__$4278c074fd6acd31e7e5f642d169fef5d3$__9063dd207a4a906044015b60006040518083038186803b1580156106d657600080fd5b505af41580156106ea573d6000803e3d6000fd5b5050505050565b60405163919c1b6160e01b8152603460048201526024810182905273__$4278c074fd6acd31e7e5f642d169fef5d3$__9063919c1b61906044016106be565b60008281526037602052604090206002015482906001600160a01b0316331461076c576040516302d42a8b60e61b815260040160405180910390fd5b6000838152603760205260409081902090516344a8ff6b60e11b815273__$95910b7b93a5208ca27f4262a74795a535$__91638951fed6916107b391908690600401614230565b60006040518083038186803b1580156107cb57600080fd5b505af41580156107df573d6000803e3d6000fd5b50505050505050565b60008281526037602052604090206002015482906001600160a01b03163314610824576040516302d42a8b60e61b815260040160405180910390fd5b600083815260376020526040908190209051631852428f60e31b815260048101919091526001600160a01b038316602482015273__$95910b7b93a5208ca27f4262a74795a535$__9063c2921478906044016107b3565b60008281526037602052604090206002015482906001600160a01b031633146108b7576040516302d42a8b60e61b815260040160405180910390fd5b60006108c38484611f66565b600d810154909150806109025760405162461bcd60e51b815260206004820152600260248201526120ad60f11b60448201526064015b60405180910390fd5b6000600d8301558015610925578154610925906001600160a01b03163383611f9c565b6040805186815285151560208201529081018290527f3173529fa665e8e2fb976911ab571026d35fafa1c7327c47bb3eceeccde4c5059060600160405180910390a15050505050565b60008061097961201d565b604051633e16468d60e01b8152603460048201526024810186905260448101849052841515606482015273__$22e71cc2a9e9de4b2967c224ed91c7d01e$__90633e16468d906084016040805180830381865af41580156109de573d6000803e3d6000fd5b505050506040513d601f19601f82011682018060405250810190610a029190614244565b91509150610a0f60018055565b935093915050565b6000610a2161201d565b6040516326c34d6760e11b815273__$82e740bfb21403018c74028207d6b78a82$__90634d869ace90610a5d90603490879087906004016142b8565b602060405180830381865af4158015610a7a573d6000803e3d6000fd5b505050506040513d601f19601f82011682018060405250810190610a9e91906142e0565b90506105fc60018055565b610ab1613254565b50600090815260396020908152604091829020825160c080820185528254825260018301546001600160a01b03908116838601526002808501548216848801526003850154909116606080850191909152600485015460808086019190915287516101008101895260058701548152600687015480850b828a01526301000000810490940b818a0152600160301b9093046001600160401b0316838301528751808901895260078701548152600887015481890152838201528751808501895260098701548152600a87015481890152600b870154818a0152600c87015492810192909252600d86015490820152600e85015460a0808301919091528083019190915286518088018852600f8601548152601086015481880152928201929092528551808701909652601184015486526012909301549385019390935260e08201939093529082015290565b60008381526037602052604090206002015483906001600160a01b03163314610c39576040516302d42a8b60e61b815260040160405180910390fd5b600084815260376020526040908190209051631a9cd26b60e01b815273__$95910b7b93a5208ca27f4262a74795a535$__91631a9cd26b91610c829190879087906004016142fd565b60006040518083038186803b158015610c9a57600080fd5b505af4158015610cae573d6000803e3d6000fd5b5050505050505050565b6000610cc560348361207c565b6105fc60346000846120a8565b60008281526039602052604090206002015482906001600160a01b03163314610d0e57604051631b65793760e01b815260040160405180910390fd5b6000838152603960209081526040918290206003810180546001600160a01b0319166001600160a01b038716908117909155835187815292830152917fb366571df43de977d0635daba11a487957fbf2197c1bcb1cc8a1d0342b2ec89591015b60405180910390a150505050565b60006105fc6034600301600084815260200190815260200160002060405180610180016040529081600082015481526020016001820160009054906101000a90046001600160a01b03166001600160a01b03166001600160a01b031681526020016002820160009054906101000a90046001600160a01b03166001600160a01b03166001600160a01b03168152602001600382016040518060c00160405290816000820160009054906101000a90046001600160a01b03166001600160a01b03166001600160a01b031681526020016001820160009054906101000a90046001600160a01b03166001600160a01b03166001600160a01b03168152602001600282016040518060c001604052908160008201548152602001600182015481526020016002820154815260200160038201548152602001600482015481526020016005820154815250508152602001600882016040518060800160405290816000820154815260200160018201548152602001600282015481526020016003820154815250508152602001600c8201548152602001600d820154815250508152602001601182016040518060c00160405290816000820160009054906101000a90046001600160a01b03166001600160a01b03166001600160a01b031681526020016001820160009054906101000a90046001600160a01b03166001600160a01b03166001600160a01b03168152602001600282016040518060c001604052908160008201548152602001600182015481526020016002820154815260200160038201548152602001600482015481526020016005820154815250508152602001600882016040518060800160405290816000820154815260200160018201548152602001600282015481526020016003820154815250508152602001600c8201548152602001600d820154815250508152602001601f82016040518060c00160405290816000820160009054906101000a90046001600160801b03166001600160801b03166001600160801b031681526020016000820160109054906101000a90046001600160801b03166001600160801b03166001600160801b031681526020016001820160009054906101000a900460020b60020b60020b81526020016001820160039054906101000a900460020b60020b60020b81526020016001820160069054906101000a90046001600160401b03166001600160401b03166001600160401b0316815260200160018201600e9054906101000a90046001600160401b03166001600160401b03166001600160401b031681525050815260200160218201604051806102200160405290816000820160009054906101000a90046001600160a01b03166001600160a01b03166001600160a01b031681526020016000820160149054906101000a900460020b60020b60020b81526020016000820160179054906101000a900460020b60020b60020b81526020016001820160009054906101000a90046001600160401b03166001600160401b03166001600160401b031681526020016002820154815260200160038201548152602001600482015481526020016005820154815260200160068201548152602001600782015481526020016008820154815260200160098201548152602001600a8201548152602001600b8201604051806040016040529081600082015481526020016001820154815250508152602001600d8201604051806040016040529081600082015481526020016001820154815250508152602001600f820154815260200160108201548152505081526020016032820160009054906101000a90046001600160a01b03166001600160a01b03166001600160a01b031681526020016032820160149054906101000a900460ff161515151581526020016032820160159054906101000a900460ff161515151581526020016032820160169054906101000a900460ff1660ff1660ff168152602001603382015481525050612379565b6033546001600160a01b031633146113605760405163683b4ec760e11b815260040160405180910390fd5b6001600160a01b03811661137357600080fd5b603380546001600160a01b0319166001600160a01b0383169081179091556040519081527fb3b3f5f64ab192e4b5fefde1f51ce9733bbdcf831951543b325aebd49cc27ec49060200160405180910390a150565b6033546001600160a01b031633146113f25760405163683b4ec760e11b815260040160405180910390fd5b60006113fe8383611f66565b600c810154909150806114385760405162461bcd60e51b815260206004820152600260248201526120ad60f11b60448201526064016108f9565b6000600c830155801561145b57815461145b906001600160a01b03163383611f9c565b6040805185815284151560208201529081018290527f5a20c28abe112981e0c6cfb468231d1ad8f18fb4c13c2e9bd84fa984aef8de6c90606001610d6e565b600054610100900460ff16158080156114ba5750600054600160ff909116105b806114d45750303b1580156114d4575060005460ff166001145b6115375760405162461bcd60e51b815260206004820152602e60248201527f496e697469616c697a61626c653a20636f6e747261637420697320616c72656160448201526d191e481a5b9a5d1a585b1a5e995960921b60648201526084016108f9565b6000805460ff19166001179055801561155a576000805461ff0019166101001790555b611562612404565b604051637d89ae2160e11b8152603460048201526001600160a01b038316602482015273__$95910b7b93a5208ca27f4262a74795a535$__9063fb135c429060440160006040518083038186803b1580156115bc57600080fd5b505af41580156115d0573d6000803e3d6000fd5b5050603380546001600160a01b031916331790555050801561162c576000805461ff0019169055604051600181527f7f26b83ff96e1f2b6a682f133852f6798a09c465da95921460cefb38474024989060200160405180910390a15b5050565b603a546001600160a01b0316338114611667576040516313d2c13360e21b81526001600160a01b03821660048201526024016108f9565b6116746034858585612435565b50505050565b6116826132aa565b61168d60348361207c565b50600090815260376020908152604091829020825161018080820185528254825260018301546001600160a01b0390811683860152600280850154821684880152865160c08082018952600387015484168252600487015484168289015288518082018a52600588015481526006880154818a01526007880154818b015260088801546060828101919091526009890154608080840191909152600a8a015460a080850191909152858d01939093528b518082018d52600b8b01548152600c8b0154818d0152600d8b0154818e0152600e8b01548184015285830152600f8a01548186015260108a015483860152818901949094528a518084018c5260118a01548716815260128a01548716818c01528b518085018d5260138b0154815260148b0154818d015260158b0154818e015260168b01548184015260178b01548187015260188b015481850152818d01528b518086018d5260198b01548152601a8b0154818d0152601b8b0154818e0152601c8b01548184015281830152601d8a015481860152601e8a015481840152848901528a518084018c52601f8a01546001600160801b038082168352600160801b90910416818c0152898b015480870b828e015263010000008104870b828401526001600160401b03600160301b8204811683880152600160701b909104811682850152838a01919091528b5161022081018d5260218b01548089168252600160a01b808204890b838f0152600160b81b90910490970b818e015260228b015490911691810191909152602389015493810193909352602488015490830152602587015482820152602687015460e08084019190915260278801546101008481019190915260288901546101208086019190915260298a015461014080870191909152602a8b015461016080880191909152602b8c0154998701999099528c51808e018e52602c8c01548152602d8c0154818e01526101a08701528c51808e01909d52602e8b01548d52602f8b01549b8d019b909b526101c085019b909b5260308901546101e085015260318901546102008501529187019290925260328701549384169186019190915260ff9183048216151590850152600160a81b82048116151596840196909652600160b01b900490941692810192909252603301549181019190915290565b6119ed61335d565b82516119fb9060349061207c565b8251600090815260376020526040902060320154600160a81b900460ff168015611a415750336000908152603f602090815260408083208651845290915290205460ff16155b15611a5f57604051636447b16560e11b815260040160405180910390fd5b60208301518351611a72916034916120a8565b6020840152604051634ab1481b60e11b815273__$bc9f384c073b2381249378965b2d698cf3$__90639562903690611ab39060349087908790600401614361565b61018060405180830381865af4158015611ad1573d6000803e3d6000fd5b505050506040513d601f19601f82011682018060405250810190611af591906143ca565b9392505050565b60008281526037602052604090206002015482906001600160a01b03163314611b38576040516302d42a8b60e61b815260040160405180910390fd5b600083815260376020526040908190209051634b5f4ebf60e01b815260048101919091526001600160a01b038316602482015273__$95910b7b93a5208ca27f4262a74795a535$__90634b5f4ebf906044016107b3565b611b9761335d565b611b9f61201d565b6040516313e660f560e21b815273__$a1fa80d38d689cae49e54718da49b6432c$__90634f9983d490611bdd90879087906034908890600401614482565b61018060405180830381865af4158015611bfb573d6000803e3d6000fd5b505050506040513d601f19601f82011682018060405250810190611c1f91906143ca565b9050611af560018055565b336000908152603e602052604090205460ff16611c4657600080fd5b338415611cc457611cc43386836001600160a01b0316630dfe16816040518163ffffffff1660e01b8152600401602060405180830381865afa158015611c90573d6000803e3d6000fd5b505050506040513d601f19601f82011682018060405250810190611cb491906144a7565b6001600160a01b03169190611f9c565b83156106ea576106ea3385836001600160a01b031663d21220a76040518163ffffffff1660e01b8152600401602060405180830381865afa158015611c90573d6000803e3d6000fd5b6000611d1761201d565b604051633ec463bf60e01b8152603460048201526024810185905260448101839052831515606482015273__$22e71cc2a9e9de4b2967c224ed91c7d01e$__90633ec463bf90608401602060405180830381865af4158015611d7d573d6000803e3d6000fd5b505050506040513d601f19601f82011682018060405250810190611c1f9190614217565b60008381526037602052604090206002015483906001600160a01b03163314611ddd576040516302d42a8b60e61b815260040160405180910390fd5b600084815260376020526040902060320154600160a81b900460ff16611e0257600080fd5b506001600160a01b03919091166000908152603f6020908152604080832094835293905291909120805460ff1916911515919091179055565b60008281526037602052604090206002015482906001600160a01b03163314611e77576040516302d42a8b60e61b815260040160405180910390fd5b600083815260376020526040908190209051631b483ecf60e31b8152600481019190915260ff8316602482015273__$95910b7b93a5208ca27f4262a74795a535$__9063da41f678906044016107b3565b6000816001600160a01b0316633850c7bd6040518163ffffffff1660e01b815260040160e060405180830381865afa158015611f08573d6000803e3d6000fd5b505050506040513d601f19601f82011682018060405250810190611f2c91906144d6565b5094979650505050505050565b60008115611f5f57611f586001600160a01b038416600160c01b614594565b90506105fc565b50816105fc565b60008115611f85575060008281526037602052604090206003016105fc565b5060008281526037602052604090206011016105fc565b600060405163a9059cbb60e01b81526001600160a01b0384166004820152826024820152602060006044836000895af13d15601f3d11600160005114161716915050806116745760405162461bcd60e51b815260206004820152600f60248201526e1514905394d1915497d19052531151608a1b60448201526064016108f9565b60026001540361206f5760405162461bcd60e51b815260206004820152601f60248201527f5265656e7472616e637947756172643a207265656e7472616e742063616c6c0060448201526064016108f9565b6002600155565b60018055565b80158061208a575081548110155b1561162c5760405163a8c399e560e01b815260040160405180910390fd5b60008181526003840160205260408120600101546001600160a01b031683820361219e576001858101805460008181526005808a0160205260408220838155600281018054336001600160a01b03199182168117909255600383018054821690921790915591810189905594850180549091166001600160a01b038716179055825491939290612137836145a8565b909155505080546002820154604080519283526001600160a01b0391821660208401529085168282015260608201879052517fe69753e50bf059b3600feb46679d77e5d58780bbf62f4d6ec6dcfac1bb93774e9181900360800190a1549250611af5915050565b600084815260058681016020908152604092839020835160c080820186528254825260018301546001600160a01b039081168386015260028085015482168489019081526003860154831660608087019190915260048701546080808801919091528a5161010081018c52998801548a52600688015480850b8b8b01526301000000810490940b8a8c0152600160301b9093046001600160401b0316898201528951808b018b52600788015481526008880154818a01528984015289518086018b5260098801548152600a880154818a0152600b880154818c0152600c88015491810191909152600d87015492810192909252600e86015460a080840191909152808901929092528851808a018a52600f8701548152601087015481890152938801939093528751808901909852601185015488526012909401549487019490945260e085019590955290810192909252915190913391161461231457604051631b65793760e01b815260040160405180910390fd5b816001600160a01b031681602001516001600160a01b03161461234a57604051630b89b31360e21b815260040160405180910390fd5b60a081015151841461236f576040516324d0239560e11b815260040160405180910390fd5b519150611af59050565b60e08101516000906001600160a01b0316156123d1578160e001516001600160a01b03166386e6862d6040518163ffffffff1660e01b8152600401602060405180830381865afa15801561065f573d6000803e3d6000fd5b6123f06123e58360c0015160000151612a26565b836101000151611f39565b6001600160a01b031692915050565b919050565b600054610100900460ff1661242b5760405162461bcd60e51b81526004016108f9906145c1565b612433612a3b565b565b60008460030160008660060160030154815260200190815260200160002060405180610180016040529081600082015481526020016001820160009054906101000a90046001600160a01b03166001600160a01b03166001600160a01b031681526020016002820160009054906101000a90046001600160a01b03166001600160a01b03166001600160a01b03168152602001600382016040518060c00160405290816000820160009054906101000a90046001600160a01b03166001600160a01b03166001600160a01b031681526020016001820160009054906101000a90046001600160a01b03166001600160a01b03166001600160a01b03168152602001600282016040518060c001604052908160008201548152602001600182015481526020016002820154815260200160038201548152602001600482015481526020016005820154815250508152602001600882016040518060800160405290816000820154815260200160018201548152602001600282015481526020016003820154815250508152602001600c8201548152602001600d820154815250508152602001601182016040518060c00160405290816000820160009054906101000a90046001600160a01b03166001600160a01b03166001600160a01b031681526020016001820160009054906101000a90046001600160a01b03166001600160a01b03166001600160a01b03168152602001600282016040518060c001604052908160008201548152602001600182015481526020016002820154815260200160038201548152602001600482015481526020016005820154815250508152602001600882016040518060800160405290816000820154815260200160018201548152602001600282015481526020016003820154815250508152602001600c8201548152602001600d820154815250508152602001601f82016040518060c00160405290816000820160009054906101000a90046001600160801b03166001600160801b03166001600160801b031681526020016000820160109054906101000a90046001600160801b03166001600160801b03166001600160801b031681526020016001820160009054906101000a900460020b60020b60020b81526020016001820160039054906101000a900460020b60020b60020b81526020016001820160069054906101000a90046001600160401b03166001600160401b03166001600160401b0316815260200160018201600e9054906101000a90046001600160401b03166001600160401b03166001600160401b031681525050815260200160218201604051806102200160405290816000820160009054906101000a90046001600160a01b03166001600160a01b03166001600160a01b031681526020016000820160149054906101000a900460020b60020b60020b81526020016000820160179054906101000a900460020b60020b60020b81526020016001820160009054906101000a90046001600160401b03166001600160401b03166001600160401b031681526020016002820154815260200160038201548152602001600482015481526020016005820154815260200160068201548152602001600782015481526020016008820154815260200160098201548152602001600a8201548152602001600b8201604051806040016040529081600082015481526020016001820154815250508152602001600d8201604051806040016040529081600082015481526020016001820154815250508152602001600f820154815260200160108201548152505081526020016032820160009054906101000a90046001600160a01b03166001600160a01b03166001600160a01b031681526020016032820160149054906101000a900460ff161515151581526020016032820160159054906101000a900460ff161515151581526020016032820160169054906101000a900460ff1660ff1660ff168152602001603382015481525050905060008415612a025750606081015151612a0a565b506080810151515b612a1e6001600160a01b0382168585611f9c565b505050505050565b6000612a3482610708612a62565b5092915050565b600054610100900460ff166120765760405162461bcd60e51b81526004016108f9906145c1565b6040805160028082526060820183526000928392839290916020830190803683370190505090508381600081518110612a9d57612a9d61460c565b602002602001019063ffffffff16908163ffffffff1681525050600081600181518110612acc57612acc61460c565b602002602001019063ffffffff16908163ffffffff1681525050600080866001600160a01b031663883bdbfd60e01b84604051602401612b0c9190614622565b60408051601f198184030181529181526020820180516001600160e01b03166001600160e01b0319909416939093179092529051612b4a919061466c565b600060405180830381855afa9150503d8060008114612b85576040519150601f19603f3d011682016040523d82523d6000602084013e612b8a565b606091505b509150915081612e6a5760405160206024820152600360448201526213d31160ea1b606482015260840160408051601f19818403018152919052602080820180516001600160e01b031662461bcd60e51b178152915190912082519183019190912014612bfa57612bfa81612eea565b600080886001600160a01b0316633850c7bd6040518163ffffffff1660e01b815260040160e060405180830381865afa158015612c3b573d6000803e3d6000fd5b505050506040513d601f19601f82011682018060405250810190612c5f91906144d6565b5050509350935050506000808a6001600160a01b031663252c09d784866001612c889190614688565b612c9291906146a3565b6040516001600160e01b031960e084901b16815261ffff9091166004820152602401608060405180830381865afa158015612cd1573d6000803e3d6000fd5b505050506040513d601f19601f82011682018060405250810190612cf591906146d6565b93505050915080612d705760405163252c09d760e01b8152600060048201526001600160a01b038c169063252c09d790602401608060405180830381865afa158015612d45573d6000803e3d6000fd5b505050506040513d601f19601f82011682018060405250810190612d6991906146d6565b5091935050505b612d8063ffffffff83164261473a565b99508987600081518110612d9657612d9661460c565b602002602001019063ffffffff16908163ffffffff16815250508a6001600160a01b031663883bdbfd60e01b88604051602401612dd39190614622565b60408051601f198184030181529181526020820180516001600160e01b03166001600160e01b0319909416939093179092529051612e11919061466c565b600060405180830381855afa9150503d8060008114612e4c576040519150601f19603f3d011682016040523d82523d6000602084013e612e51565b606091505b50909650945085612e6557612e6585612eea565b505050505b600081806020019051810190612e80919061474d565b905060008782600081518110612e9857612e9861460c565b602002602001015183600181518110612eb357612eb361460c565b6020026020010151612ec591906147f9565b612ecf9190614826565b90506000612edc82612f31565b9a9899505050505050505050565b805115612ef957805181602001fd5b60405162461bcd60e51b815260206004820152600d60248201526c3297b2b6b83a3c96b2b93937b960991b60448201526064016108f9565b60008060008360020b12612f48578260020b612f50565b8260020b6000035b9050620d89e8811115612f76576040516315e4079d60e11b815260040160405180910390fd5b600081600116600003612f8d57600160801b612f9f565b6ffffcb933bd6fad37aa2d162d1a5940015b70ffffffffffffffffffffffffffffffffff1690506002821615612fd3576ffff97272373d413259a46990580e213a0260801c5b6004821615612ff2576ffff2e50f5f656932ef12357cf3c7fdcc0260801c5b6008821615613011576fffe5caca7e10e4e61c3624eaa0941cd00260801c5b6010821615613030576fffcb9843d60f6159c9db58835c9266440260801c5b602082161561304f576fff973b41fa98c081472e6896dfb254c00260801c5b604082161561306e576fff2ea16466c96a3843ec78b326b528610260801c5b608082161561308d576ffe5dee046a99a2a811c461f1969c30530260801c5b6101008216156130ad576ffcbe86c7900a88aedcffc83b479aa3a40260801c5b6102008216156130cd576ff987a7253ac413176f2b074cf7815e540260801c5b6104008216156130ed576ff3392b0822b70005940c7a398e4b70f30260801c5b61080082161561310d576fe7159475a2c29b7443b29c7fa6e889d90260801c5b61100082161561312d576fd097f3bdfd2022b8845ad8f792aa58250260801c5b61200082161561314d576fa9f746462d870fdf8a65dc1f90e061e50260801c5b61400082161561316d576f70d869a156d2a1b890bb3df62baf32f70260801c5b61800082161561318d576f31be135f97d08fd981231505542fcfa60260801c5b620100008216156131ae576f09aa508b5b7a84e1c677de54f3e99bc90260801c5b620200008216156131ce576e5d6af8dedb81196699c329225ee6040260801c5b620400008216156131ed576d2216e584f5fa1ea926041bedfe980260801c5b6208000082161561320a576b048a170391f7dc42444e8fa20260801c5b60008460020b131561322b57806000198161322757613227614568565b0490505b64010000000081061561323f576001613242565b60005b60ff16602082901c0192505050919050565b6040518060c001604052806000815260200160006001600160a01b0316815260200160006001600160a01b0316815260200160006001600160a01b03168152602001600081526020016132a56133d1565b905290565b6040518061018001604052806000815260200160006001600160a01b0316815260200160006001600160a01b031681526020016132e561348c565b81526020016132f261348c565b81526040805160c08101825260008082526020828101829052928201819052606082018190526080820181905260a08201529101908152602001613334613534565b815260006020820181905260408201819052606082018190526080820181905260a09091015290565b6040518060e001604052806133a16040518060c001604052806000815260200160008152602001600081526020016000815260200160008152602001600081525090565b81526020016000815260200160008152602001600081526020016000815260200160008152602001600081525090565b60408051610100810182526000808252602080830182905282840182905260608301829052835180850190945281845283015290608082019081526020016134486040518060c001604052806000815260200160008152602001600081526020016000815260200160008152602001600081525090565b815260200161346a604051806040016040528060008152602001600081525090565b81526020016132a5604051806040016040528060008152602001600081525090565b6040518060c0016040528060006001600160a01b0316815260200160006001600160a01b031681526020016134f06040518060c001604052806000815260200160008152602001600081526020016000815260200160008152602001600081525090565b81526020016135206040518060800160405280600081526020016000815260200160008152602001600081525090565b815260200160008152602001600081525090565b60405180610220016040528060006001600160a01b03168152602001600060020b8152602001600060020b815260200160006001600160401b031681526020016000815260200160008152602001600081526020016000815260200160008152602001600081526020016000815260200160008152602001600081526020016135d0604051806040016040528060008152602001600081525090565b8152602001613520604051806040016040528060008152602001600081525090565b60006020828403121561360457600080fd5b5035919050565b634e487b7160e01b600052604160045260246000fd5b60405160c081016001600160401b03811182821017156136435761364361360b565b60405290565b60405161012081016001600160401b03811182821017156136435761364361360b565b60405160a081016001600160401b03811182821017156136435761364361360b565b60405160e081016001600160401b03811182821017156136435761364361360b565b604051601f8201601f191681016001600160401b03811182821017156136d8576136d861360b565b604052919050565b6001600160a01b03811681146136f557600080fd5b50565b80356123ff816136e0565b80151581146136f557600080fd5b80356123ff81613703565b60ff811681146136f557600080fd5b80356123ff8161371c565b80356001600160801b03811681146123ff57600080fd5b8060020b81146136f557600080fd5b80356001600160401b03811681146123ff57600080fd5b600060c0828403121561378557600080fd5b61378d613621565b905061379882613736565b81526137a660208301613736565b602082015260408201356137b98161374d565b604082015260608201356137cc8161374d565b60608201526137dd6080830161375c565b60808201526137ee60a0830161375c565b60a082015292915050565b60006080828403121561380b57600080fd5b604051608081018181106001600160401b038211171561382d5761382d61360b565b8060405250809150823581526020830135602082015260408301356040820152606083013560608201525092915050565b6000610280828403121561387157600080fd5b613879613649565b613882836136f8565b8152613890602084016136f8565b60208201526138a1604084016136f8565b60408201526138b2606084016136f8565b60608201526138c360808401613711565b60808201526138d460a0840161372b565b60a08201526138e68460c08501613773565b60c08201526138f98461018085016137f9565b60e082015261390c8461020085016137f9565b6101008201529392505050565b60008060e0838503121561392c57600080fd5b8235915061393d8460208501613773565b90509250929050565b6000806040838503121561395957600080fd5b82359150602083013561396b816136e0565b809150509250929050565b6000806040838503121561398957600080fd5b82359150602083013561396b81613703565b6000806000606084860312156139b057600080fd5b8335925060208401356139c281613703565b929592945050506040919091013590565b600082601f8301126139e457600080fd5b81356001600160401b038111156139fd576139fd61360b565b613a10601f8201601f19166020016136b0565b818152846020838601011115613a2557600080fd5b816020850160208301376000918101602001919091529392505050565b60008060408385031215613a5557600080fd5b8235915060208301356001600160401b03811115613a7257600080fd5b613a7e858286016139d3565b9150509250929050565b60006102a08201905082518252602083015160018060a01b03808216602085015280604086015116604085015280606086015116606085015250506080830151608083015260a0830151805160a0840152602081015160020b60c0840152604081015160020b60e08401526001600160401b036060820151166101008401526080810151613b2461012085018280518252602090810151910152565b5060a081810151805161016086015260208082015161018087015260408201516101a087015260608201516101c087015260808201516101e087015291015161020085015260c0820151805161022086015281015161024085015260e090910151805161026085015290810151610280840152612a34565b60008060006101208486031215613bb257600080fd5b83359250613bc385602086016137f9565b9150613bd28560a086016137f9565b90509250925092565b60008060408385031215613bee57600080fd5b8235613bf9816136e0565b946020939093013593505050565b600060208284031215613c1957600080fd5b8135611af5816136e0565b600080600060608486031215613c3957600080fd5b8335613c4481613703565b925060208401356139c2816136e0565b60018060a01b03808251168352806020830151166020840152506040810151805160408401526020810151606084015260408101516080840152606081015160a0840152608081015160c084015260a081015160e0840152506060810151613ce1610100840182805182526020810151602083015260408101516040830152606081015160608301525050565b50608081015161018083015260a001516101a090910152565b6001600160801b0380825116835280602083015116602084015250604081015160020b6040830152606081015160020b606083015260808101516001600160401b0380821660808501528060a08401511660a085015250505050565b80516001600160a01b031682526020810151613d77602084018260020b9052565b506040810151613d8c604084018260020b9052565b506060810151613da760608401826001600160401b03169052565b506080818101519083015260a0808201519083015260c0808201519083015260e08082015190830152610100808201519083015261012080820151908301526101408082015190830152610160808201519083015261018080820151908301526101a08082015180518285015260208101516101c085015250506101c08101516101e0613e408185018380518252602090810151910152565b82015161022084015250610200015161024090910152565b815181526020808301516107a0830191613e7c908401826001600160a01b03169052565b506040830151613e9760408401826001600160a01b03169052565b506060830151613eaa6060840182613c54565b506080830151613ebe610220840182613c54565b5060a0830151613ed26103e0840182613cfa565b5060c0830151613ee66104a0840182613d56565b5060e08301516001600160a01b03166107008301526101008301511515610720830152610120830151151561074083015261014083015160ff16610760830152610160909201516107809091015290565b60008060408385031215613f4a57600080fd5b82356001600160401b0380821115613f6157600080fd5b9084019060a08287031215613f7557600080fd5b613f7d61366c565b82358152602083013560208201526040830135604082015260608301356060820152608083013582811115613fb157600080fd5b613fbd888286016139d3565b60808301525093506020850135915080821115613fd957600080fd5b50613a7e858286016139d3565b600080600060608486031215613ffb57600080fd5b833592506020840135915060408401356001600160401b0381111561401f57600080fd5b61402b868287016139d3565b9150509250925092565b6000806000806060858703121561404b57600080fd5b843593506020850135925060408501356001600160401b038082111561407057600080fd5b818701915087601f83011261408457600080fd5b81358181111561409357600080fd5b8860208285010111156140a557600080fd5b95989497505060200194505050565b6000806000606084860312156140c957600080fd5b8335925060208401356140db816136e0565b915060408401356140eb81613703565b809150509250925092565b6000806040838503121561410957600080fd5b82359150602083013561396b8161371c565b838152602080820184905282516001600160a01b031660408301528201516102c082019061415460608401826001600160a01b03169052565b5060408301516001600160a01b03811660808401525060608301516001600160a01b03811660a084015250608083015180151560c08401525060a083015160ff811660e08401525060c08301516101006141b081850183613cfa565b60e085015180516101c086015260208101516101e086015260408101516102008601526060810151610220860152915084015180516102408501526020810151610260850152604081015161028085015260608101516102a0850152905050949350505050565b60006020828403121561422957600080fd5b5051919050565b82815260e08101611af56020830184613cfa565b6000806040838503121561425757600080fd5b505080516020909101519092909150565b60005b8381101561428357818101518382015260200161426b565b50506000910152565b600081518084526142a4816020860160208601614268565b601f01601f19169290920160200192915050565b8381528260208201526060604082015260006142d7606083018461428c565b95945050505050565b6000602082840312156142f257600080fd5b8151611af581613703565b83815261012081016143336020830185805182526020810151602083015260408101516040830152606081015160608301525050565b825160a0830152602083015160c0830152604083015160e08301526060830151610100830152949350505050565b838152606060208201528251606082015260208301516080820152604083015160a0820152606083015160c08201526000608084015160a060e08401526143ac61010084018261428c565b905082810360408401526143c0818561428c565b9695505050505050565b60008183036101808112156143de57600080fd5b6143e661368e565b60c08212156143f457600080fd5b6143fc613621565b9150835182526020840151602083015260408401516040830152606084015160608301526080840151608083015260a084015160a083015281815260c0840151602082015260e084015160408201526101008401516060820152610120840151608082015261014084015160a082015261016084015160c0820152809250505092915050565b8481528360208201528260408201526080606082015260006143c0608083018461428c565b6000602082840312156144b957600080fd5b8151611af5816136e0565b805161ffff811681146123ff57600080fd5b600080600080600080600060e0888a0312156144f157600080fd5b87516144fc816136e0565b602089015190975061450d8161374d565b955061451b604089016144c4565b9450614529606089016144c4565b9350614537608089016144c4565b925060a08801516145478161371c565b60c089015190925061455881613703565b8091505092959891949750929550565b634e487b7160e01b600052601260045260246000fd5b634e487b7160e01b600052601160045260246000fd5b6000826145a3576145a3614568565b500490565b6000600182016145ba576145ba61457e565b5060010190565b6020808252602b908201527f496e697469616c697a61626c653a20636f6e7472616374206973206e6f74206960408201526a6e697469616c697a696e6760a81b606082015260800190565b634e487b7160e01b600052603260045260246000fd5b6020808252825182820181905260009190848201906040850190845b8181101561466057835163ffffffff168352928401929184019160010161463e565b50909695505050505050565b6000825161467e818460208701614268565b9190910192915050565b61ffff818116838216019080821115612a3457612a3461457e565b600061ffff808416806146b8576146b8614568565b92169190910692915050565b8051600681900b81146123ff57600080fd5b600080600080608085870312156146ec57600080fd5b845163ffffffff8116811461470057600080fd5b935061470e602086016146c4565b9250604085015161471e816136e0565b606086015190925061472f81613703565b939692955090935050565b818103818111156105fc576105fc61457e565b6000602080838503121561476057600080fd5b82516001600160401b038082111561477757600080fd5b818501915085601f83011261478b57600080fd5b81518181111561479d5761479d61360b565b8060051b91506147ae8483016136b0565b81815291830184019184810190888411156147c857600080fd5b938501935b838510156147ed576147de856146c4565b825293850193908501906147cd565b98975050505050505050565b600682810b9082900b03667fffffffffffff198112667fffffffffffff821317156105fc576105fc61457e565b60008160060b8360060b8061483d5761483d614568565b667fffffffffffff1982146000198214161561485b5761485b61457e565b9005939250505056fea2646970667358221220cc7bc1c948b23f584932dd9a7986f0b83bc60626bbf9f6a5e745bc09e96f0d3864736f6c63430008130033",
  "libraries": {
    "ReallocationLogic": "0xE64Ccc2549ed5E51417f30Cc57b0830759a30E25",
    "LiquidationLogic": "0x0493A63109F37f08376Fd0C321b012C34f946ca7",
    "ReaderLogic": "0x2140F617e8ceDb9E7f1b4F2c3F79cd064C7C088a",
    "AddPairLogic": "0x2D756f7912B5c61f35ca3E5b310C7C133A90977c",
    "SupplyLogic": "0x5E8d28Bd2abE77e9D3e9DD8CCc1727EDa616ACE0",
    "TradeLogic": "0xdE12Aa19734DaCbd34CeDdE14F8290a70A85537f"
  },
  "devdoc": {
    "events": {
      "Initialized(uint8)": {
        "details": "Triggered when the contract has been initialized or reinitialized."
      }
    },
    "kind": "dev",
    "methods": {
      "createVault(uint256)": {
        "params": {
          "pairId": "The id of pair to create vault"
        }
      },
      "execLiquidationCall(uint256,uint256,bytes)": {
        "params": {
          "closeRatio": "The ratio at which the position will be closed.",
          "settlementData": "SettlementData struct for trade settlement.",
          "vaultId": "The identifier of the vault to be liquidated."
        },
        "returns": {
          "tradeResult": "TradeResult struct with the result of the liquidation."
        }
      },
      "reallocate(uint256,bytes)": {
        "params": {
          "pairId": "The id of pair to reallocate the range.",
          "settlementData": "byte data for settlement contract."
        },
        "returns": {
          "relocationOccurred": "Whether relocation occurred."
        }
      },
      "registerPair((address,address,address,address,bool,uint8,(uint128,uint128,int24,int24,uint64,uint64),(uint256,uint256,uint256,uint256),(uint256,uint256,uint256,uint256)))": {
        "params": {
          "addPairParam": "AddPairParams struct containing pair information."
        },
        "returns": {
          "_0": "pairId The id of the pair."
        }
      },
      "revertPairStatus(uint256)": {
        "details": "This function always reverts"
      },
      "revertVaultStatus(uint256)": {
        "details": "This function always reverts"
      },
      "setOperator(address)": {
        "details": "Only operator can call this function.",
        "params": {
          "newOperator": "The address of new operator"
        }
      },
      "take(bool,address,uint256)": {
        "details": "Only the current locker can call this function"
      },
      "trade((uint256,uint256,int256,int256,bytes),bytes)": {
        "params": {
          "settlementData": "byte data for settlement contract.",
          "tradeParams": "trade details"
        },
        "returns": {
          "tradeResult": "The result of the trade."
        }
      },
      "uniswapV3MintCallback(uint256,uint256,bytes)": {
        "details": "Callback for Uniswap V3 pool."
      },
      "updateAssetRiskParams(uint256,(uint128,uint128,int24,int24,uint64,uint64))": {
        "details": "The function can be called by pool owner.",
        "params": {
          "pairId": "The id of asset to update params.",
          "riskParams": "Asset risk parameters."
        }
      },
      "updateFeeRatio(uint256,uint8)": {
        "details": "The function can be called by pool owner.",
        "params": {
          "feeRatio": "The ratio of fee",
          "pairId": "The id of pair to update params."
        }
      },
      "updateIRMParams(uint256,(uint256,uint256,uint256,uint256),(uint256,uint256,uint256,uint256))": {
        "details": "The function can be called by pool owner.",
        "params": {
          "baseIrmParams": "Asset interest-rate parameters for base token.",
          "pairId": "The id of pair to update params.",
          "quoteIrmParams": "Asset interest-rate parameters for quote token."
        }
      },
      "updatePoolOwner(uint256,address)": {
        "details": "The function can be called by pool owner.",
        "params": {
          "pairId": "The id of pair to update owner.",
          "poolOwner": "The address of pool owner"
        }
      },
      "updateRecepient(uint256,address)": {
        "params": {
          "recipient": "if recipient is zero address, protocol never transfers margin.",
          "vaultId": "The id of the vault."
        }
      },
      "updateWhitelistAddress(uint256,address,bool)": {
        "params": {
          "pairId": "The id of pair",
          "trader": "The address of allowed trader"
        }
      },
      "withdrawCreatorRevenue(uint256,bool)": {
        "details": "Only pool owner can call this function.",
        "params": {
          "isQuoteToken": "Is quote or base",
          "pairId": "The id of pair"
        }
      },
      "withdrawProtocolRevenue(uint256,bool)": {
        "details": "Only operator can call this function.",
        "params": {
          "isQuoteToken": "Is quote or base",
          "pairId": "The id of pair"
        }
      }
    },
    "version": 1
  },
  "userdoc": {
    "errors": {
      "BaseTokenNotSettled()": [
        {
          "notice": "Thrown when a base token is not netted out after a lock"
        }
      ],
      "CallerIsNotOperator()": [
        {
          "notice": "Thrown when the caller is not operator"
        }
      ],
      "CallerIsNotPoolCreator()": [
        {
          "notice": "Thrown when the caller is not pool creator"
        }
      ],
      "InvalidAmount()": [
        {
          "notice": "Thrown when a amount is 0"
        }
      ],
      "InvalidPairId()": [
        {
          "notice": "Thrown when a pair id does not exist"
        }
      ],
      "LockedBy(address)": [
        {
          "notice": "Thrown when the caller is not the current locker"
        }
      ],
      "QuoteTokenNotSettled()": [
        {
          "notice": "Thrown when a quote token is not netted out after a lock"
        }
      ],
      "TraderNotAllowed()": [
        {
          "notice": "Thrown when a trader address is not allowed"
        }
      ],
      "VaultIsNotDanger(int256,int256)": [
        {
          "notice": "Thrown when a vault isn't danger"
        }
      ]
    },
    "kind": "user",
    "methods": {
      "createVault(uint256)": {
        "notice": "Creates a new vault"
      },
      "execLiquidationCall(uint256,uint256,bytes)": {
        "notice": "Executes a liquidation call to close an unsafe vault."
      },
      "getPairStatus(uint256)": {
        "notice": "Gets the status of pair"
      },
      "getSqrtIndexPrice(uint256)": {
        "notice": "Gets the square root of the index price"
      },
      "getSqrtPrice(uint256)": {
        "notice": "Gets the square root of the AMM price"
      },
      "getVault(uint256)": {
        "notice": "Gets the vault"
      },
      "reallocate(uint256,bytes)": {
        "notice": "Reallocates the range of concentrated liquidity provider position"
      },
      "registerPair((address,address,address,address,bool,uint8,(uint128,uint128,int24,int24,uint64,uint64),(uint256,uint256,uint256,uint256),(uint256,uint256,uint256,uint256)))": {
        "notice": "Adds a new trading pair."
      },
      "revertPairStatus(uint256)": {
        "notice": "Gets the status of pair"
      },
      "revertVaultStatus(uint256)": {
        "notice": "Gets the status of the vault"
      },
      "setOperator(address)": {
        "notice": "Sets new operator"
      },
      "supply(uint256,bool,uint256)": {
        "notice": "Supplies liquidity to the lending pool"
      },
      "take(bool,address,uint256)": {
        "notice": "Takes tokens"
      },
      "trade((uint256,uint256,int256,int256,bytes),bytes)": {
        "notice": "This function allows users to open or close perpetual future positions."
      },
      "updateAssetRiskParams(uint256,(uint128,uint128,int24,int24,uint64,uint64))": {
        "notice": "Updates asset risk parameters."
      },
      "updateFeeRatio(uint256,uint8)": {
        "notice": "Updates fee ratio"
      },
      "updateIRMParams(uint256,(uint256,uint256,uint256,uint256),(uint256,uint256,uint256,uint256))": {
        "notice": "Updates interest rate model parameters."
      },
      "updatePoolOwner(uint256,address)": {
        "notice": "Updates pool owner"
      },
      "updateRecepient(uint256,address)": {
        "notice": "Updates margin recipient address for position liquidation"
      },
      "updateWhitelistAddress(uint256,address,bool)": {
        "notice": "Add whitelist trader"
      },
      "withdraw(uint256,bool,uint256)": {
        "notice": "Withdraws liquidity from the lending pool"
      },
      "withdrawCreatorRevenue(uint256,bool)": {
        "notice": "Withdraws accumulated creator revenue."
      },
      "withdrawProtocolRevenue(uint256,bool)": {
        "notice": "Withdraws accumulated protocol revenue."
      }
    },
    "notice": "Holds the state for all pairs and vaults",
    "version": 1
  },
  "storageLayout": {
    "storage": [
      {
        "astId": 6,
        "contract": "src/PredyPool.sol:PredyPool",
        "label": "_initialized",
        "offset": 0,
        "slot": "0",
        "type": "t_uint8"
      },
      {
        "astId": 9,
        "contract": "src/PredyPool.sol:PredyPool",
        "label": "_initializing",
        "offset": 1,
        "slot": "0",
        "type": "t_bool"
      },
      {
        "astId": 183,
        "contract": "src/PredyPool.sol:PredyPool",
        "label": "_status",
        "offset": 0,
        "slot": "1",
        "type": "t_uint256"
      },
      {
        "astId": 252,
        "contract": "src/PredyPool.sol:PredyPool",
        "label": "__gap",
        "offset": 0,
        "slot": "2",
        "type": "t_array(t_uint256)49_storage"
      },
      {
        "astId": 5785,
        "contract": "src/PredyPool.sol:PredyPool",
        "label": "operator",
        "offset": 0,
        "slot": "51",
        "type": "t_address"
      },
      {
        "astId": 5788,
        "contract": "src/PredyPool.sol:PredyPool",
        "label": "globalData",
        "offset": 0,
        "slot": "52",
        "type": "t_struct(GlobalData)25852_storage"
      },
      {
        "astId": 5792,
        "contract": "src/PredyPool.sol:PredyPool",
        "label": "allowedUniswapPools",
        "offset": 0,
        "slot": "62",
        "type": "t_mapping(t_address,t_bool)"
      },
      {
        "astId": 5798,
        "contract": "src/PredyPool.sol:PredyPool",
        "label": "allowedTraders",
        "offset": 0,
        "slot": "63",
        "type": "t_mapping(t_address,t_mapping(t_uint256,t_bool))"
      }
    ],
    "types": {
      "t_address": {
        "encoding": "inplace",
        "label": "address",
        "numberOfBytes": "20"
      },
      "t_array(t_uint256)49_storage": {
        "base": "t_uint256",
        "encoding": "inplace",
        "label": "uint256[49]",
        "numberOfBytes": "1568"
      },
      "t_bool": {
        "encoding": "inplace",
        "label": "bool",
        "numberOfBytes": "1"
      },
      "t_int24": {
        "encoding": "inplace",
        "label": "int24",
        "numberOfBytes": "3"
      },
      "t_int256": {
        "encoding": "inplace",
        "label": "int256",
        "numberOfBytes": "32"
      },
      "t_mapping(t_address,t_bool)": {
        "encoding": "mapping",
        "key": "t_address",
        "label": "mapping(address => bool)",
        "numberOfBytes": "32",
        "value": "t_bool"
      },
      "t_mapping(t_address,t_mapping(t_uint256,t_bool))": {
        "encoding": "mapping",
        "key": "t_address",
        "label": "mapping(address => mapping(uint256 => bool))",
        "numberOfBytes": "32",
        "value": "t_mapping(t_uint256,t_bool)"
      },
      "t_mapping(t_uint256,t_bool)": {
        "encoding": "mapping",
        "key": "t_uint256",
        "label": "mapping(uint256 => bool)",
        "numberOfBytes": "32",
        "value": "t_bool"
      },
      "t_mapping(t_uint256,t_struct(PairStatus)9600_storage)": {
        "encoding": "mapping",
        "key": "t_uint256",
        "label": "mapping(uint256 => struct DataType.PairStatus)",
        "numberOfBytes": "32",
        "value": "t_struct(PairStatus)9600_storage"
      },
      "t_mapping(t_uint256,t_struct(RebalanceFeeGrowthCache)9619_storage)": {
        "encoding": "mapping",
        "key": "t_uint256",
        "label": "mapping(uint256 => struct DataType.RebalanceFeeGrowthCache)",
        "numberOfBytes": "32",
        "value": "t_struct(RebalanceFeeGrowthCache)9619_storage"
      },
      "t_mapping(t_uint256,t_struct(Vault)9614_storage)": {
        "encoding": "mapping",
        "key": "t_uint256",
        "label": "mapping(uint256 => struct DataType.Vault)",
        "numberOfBytes": "32",
        "value": "t_struct(Vault)9614_storage"
      },
      "t_struct(AssetPoolStatus)9778_storage": {
        "encoding": "inplace",
        "label": "struct Perp.AssetPoolStatus",
        "members": [
          {
            "astId": 9765,
            "contract": "src/PredyPool.sol:PredyPool",
            "label": "token",
            "offset": 0,
            "slot": "0",
            "type": "t_address"
          },
          {
            "astId": 9767,
            "contract": "src/PredyPool.sol:PredyPool",
            "label": "supplyTokenAddress",
            "offset": 0,
            "slot": "1",
            "type": "t_address"
          },
          {
            "astId": 9770,
            "contract": "src/PredyPool.sol:PredyPool",
            "label": "tokenStatus",
            "offset": 0,
            "slot": "2",
            "type": "t_struct(AssetStatus)13815_storage"
          },
          {
            "astId": 9773,
            "contract": "src/PredyPool.sol:PredyPool",
            "label": "irmParams",
            "offset": 0,
            "slot": "8",
            "type": "t_struct(IRMParams)9636_storage"
          },
          {
            "astId": 9775,
            "contract": "src/PredyPool.sol:PredyPool",
            "label": "accumulatedProtocolRevenue",
            "offset": 0,
            "slot": "12",
            "type": "t_uint256"
          },
          {
            "astId": 9777,
            "contract": "src/PredyPool.sol:PredyPool",
            "label": "accumulatedCreatorRevenue",
            "offset": 0,
            "slot": "13",
            "type": "t_uint256"
          }
        ],
        "numberOfBytes": "448"
      },
      "t_struct(AssetRiskParams)9791_storage": {
        "encoding": "inplace",
        "label": "struct Perp.AssetRiskParams",
        "members": [
          {
            "astId": 9780,
            "contract": "src/PredyPool.sol:PredyPool",
            "label": "riskRatio",
            "offset": 0,
            "slot": "0",
            "type": "t_uint128"
          },
          {
            "astId": 9782,
            "contract": "src/PredyPool.sol:PredyPool",
            "label": "debtRiskRatio",
            "offset": 16,
            "slot": "0",
            "type": "t_uint128"
          },
          {
            "astId": 9784,
            "contract": "src/PredyPool.sol:PredyPool",
            "label": "rangeSize",
            "offset": 0,
            "slot": "1",
            "type": "t_int24"
          },
          {
            "astId": 9786,
            "contract": "src/PredyPool.sol:PredyPool",
            "label": "rebalanceThreshold",
            "offset": 3,
            "slot": "1",
            "type": "t_int24"
          },
          {
            "astId": 9788,
            "contract": "src/PredyPool.sol:PredyPool",
            "label": "minSlippage",
            "offset": 6,
            "slot": "1",
            "type": "t_uint64"
          },
          {
            "astId": 9790,
            "contract": "src/PredyPool.sol:PredyPool",
            "label": "maxSlippage",
            "offset": 14,
            "slot": "1",
            "type": "t_uint64"
          }
        ],
        "numberOfBytes": "64"
      },
      "t_struct(AssetStatus)13815_storage": {
        "encoding": "inplace",
        "label": "struct ScaledAsset.AssetStatus",
        "members": [
          {
            "astId": 13804,
            "contract": "src/PredyPool.sol:PredyPool",
            "label": "totalCompoundDeposited",
            "offset": 0,
            "slot": "0",
            "type": "t_uint256"
          },
          {
            "astId": 13806,
            "contract": "src/PredyPool.sol:PredyPool",
            "label": "totalNormalDeposited",
            "offset": 0,
            "slot": "1",
            "type": "t_uint256"
          },
          {
            "astId": 13808,
            "contract": "src/PredyPool.sol:PredyPool",
            "label": "totalNormalBorrowed",
            "offset": 0,
            "slot": "2",
            "type": "t_uint256"
          },
          {
            "astId": 13810,
            "contract": "src/PredyPool.sol:PredyPool",
            "label": "assetScaler",
            "offset": 0,
            "slot": "3",
            "type": "t_uint256"
          },
          {
            "astId": 13812,
            "contract": "src/PredyPool.sol:PredyPool",
            "label": "assetGrowth",
            "offset": 0,
            "slot": "4",
            "type": "t_uint256"
          },
          {
            "astId": 13814,
            "contract": "src/PredyPool.sol:PredyPool",
            "label": "debtGrowth",
            "offset": 0,
            "slot": "5",
            "type": "t_uint256"
          }
        ],
        "numberOfBytes": "192"
      },
      "t_struct(GlobalData)25852_storage": {
        "encoding": "inplace",
        "label": "struct GlobalDataLibrary.GlobalData",
        "members": [
          {
            "astId": 25829,
            "contract": "src/PredyPool.sol:PredyPool",
            "label": "pairsCount",
            "offset": 0,
            "slot": "0",
            "type": "t_uint256"
          },
          {
            "astId": 25831,
            "contract": "src/PredyPool.sol:PredyPool",
            "label": "vaultCount",
            "offset": 0,
            "slot": "1",
            "type": "t_uint256"
          },
          {
            "astId": 25833,
            "contract": "src/PredyPool.sol:PredyPool",
            "label": "uniswapFactory",
            "offset": 0,
            "slot": "2",
            "type": "t_address"
          },
          {
            "astId": 25838,
            "contract": "src/PredyPool.sol:PredyPool",
            "label": "pairs",
            "offset": 0,
            "slot": "3",
            "type": "t_mapping(t_uint256,t_struct(PairStatus)9600_storage)"
          },
          {
            "astId": 25843,
            "contract": "src/PredyPool.sol:PredyPool",
            "label": "rebalanceFeeGrowthCache",
            "offset": 0,
            "slot": "4",
            "type": "t_mapping(t_uint256,t_struct(RebalanceFeeGrowthCache)9619_storage)"
          },
          {
            "astId": 25848,
            "contract": "src/PredyPool.sol:PredyPool",
            "label": "vaults",
            "offset": 0,
            "slot": "5",
            "type": "t_mapping(t_uint256,t_struct(Vault)9614_storage)"
          },
          {
            "astId": 25851,
            "contract": "src/PredyPool.sol:PredyPool",
            "label": "lockData",
            "offset": 0,
            "slot": "6",
            "type": "t_struct(LockData)26215_storage"
          }
        ],
        "numberOfBytes": "320"
      },
      "t_struct(IRMParams)9636_storage": {
        "encoding": "inplace",
        "label": "struct InterestRateModel.IRMParams",
        "members": [
          {
            "astId": 9629,
            "contract": "src/PredyPool.sol:PredyPool",
            "label": "baseRate",
            "offset": 0,
            "slot": "0",
            "type": "t_uint256"
          },
          {
            "astId": 9631,
            "contract": "src/PredyPool.sol:PredyPool",
            "label": "kinkRate",
            "offset": 0,
            "slot": "1",
            "type": "t_uint256"
          },
          {
            "astId": 9633,
            "contract": "src/PredyPool.sol:PredyPool",
            "label": "slope1",
            "offset": 0,
            "slot": "2",
            "type": "t_uint256"
          },
          {
            "astId": 9635,
            "contract": "src/PredyPool.sol:PredyPool",
            "label": "slope2",
            "offset": 0,
            "slot": "3",
            "type": "t_uint256"
          }
        ],
        "numberOfBytes": "128"
      },
      "t_struct(LockData)26215_storage": {
        "encoding": "inplace",
        "label": "struct LockDataLibrary.LockData",
        "members": [
          {
            "astId": 26208,
            "contract": "src/PredyPool.sol:PredyPool",
            "label": "locker",
            "offset": 0,
            "slot": "0",
            "type": "t_address"
          },
          {
            "astId": 26210,
            "contract": "src/PredyPool.sol:PredyPool",
            "label": "quoteReserve",
            "offset": 0,
            "slot": "1",
            "type": "t_uint256"
          },
          {
            "astId": 26212,
            "contract": "src/PredyPool.sol:PredyPool",
            "label": "baseReserve",
            "offset": 0,
            "slot": "2",
            "type": "t_uint256"
          },
          {
            "astId": 26214,
            "contract": "src/PredyPool.sol:PredyPool",
            "label": "pairId",
            "offset": 0,
            "slot": "3",
            "type": "t_uint256"
          }
        ],
        "numberOfBytes": "128"
      },
      "t_struct(PairStatus)9600_storage": {
        "encoding": "inplace",
        "label": "struct DataType.PairStatus",
        "members": [
          {
            "astId": 9573,
            "contract": "src/PredyPool.sol:PredyPool",
            "label": "id",
            "offset": 0,
            "slot": "0",
            "type": "t_uint256"
          },
          {
            "astId": 9575,
            "contract": "src/PredyPool.sol:PredyPool",
            "label": "marginId",
            "offset": 0,
            "slot": "1",
            "type": "t_address"
          },
          {
            "astId": 9577,
            "contract": "src/PredyPool.sol:PredyPool",
            "label": "poolOwner",
            "offset": 0,
            "slot": "2",
            "type": "t_address"
          },
          {
            "astId": 9580,
            "contract": "src/PredyPool.sol:PredyPool",
            "label": "quotePool",
            "offset": 0,
            "slot": "3",
            "type": "t_struct(AssetPoolStatus)9778_storage"
          },
          {
            "astId": 9583,
            "contract": "src/PredyPool.sol:PredyPool",
            "label": "basePool",
            "offset": 0,
            "slot": "17",
            "type": "t_struct(AssetPoolStatus)9778_storage"
          },
          {
            "astId": 9586,
            "contract": "src/PredyPool.sol:PredyPool",
            "label": "riskParams",
            "offset": 0,
            "slot": "31",
            "type": "t_struct(AssetRiskParams)9791_storage"
          },
          {
            "astId": 9589,
            "contract": "src/PredyPool.sol:PredyPool",
            "label": "sqrtAssetStatus",
            "offset": 0,
            "slot": "33",
            "type": "t_struct(SqrtPerpAssetStatus)9856_storage"
          },
          {
            "astId": 9591,
            "contract": "src/PredyPool.sol:PredyPool",
            "label": "priceFeed",
            "offset": 0,
            "slot": "50",
            "type": "t_address"
          },
          {
            "astId": 9593,
            "contract": "src/PredyPool.sol:PredyPool",
            "label": "isQuoteZero",
            "offset": 20,
            "slot": "50",
            "type": "t_bool"
          },
          {
            "astId": 9595,
            "contract": "src/PredyPool.sol:PredyPool",
            "label": "whitelistEnabled",
            "offset": 21,
            "slot": "50",
            "type": "t_bool"
          },
          {
            "astId": 9597,
            "contract": "src/PredyPool.sol:PredyPool",
            "label": "feeRatio",
            "offset": 22,
            "slot": "50",
            "type": "t_uint8"
          },
          {
            "astId": 9599,
            "contract": "src/PredyPool.sol:PredyPool",
            "label": "lastUpdateTimestamp",
            "offset": 0,
            "slot": "51",
            "type": "t_uint256"
          }
        ],
        "numberOfBytes": "1664"
      },
      "t_struct(PositionStatus)9796_storage": {
        "encoding": "inplace",
        "label": "struct Perp.PositionStatus",
        "members": [
          {
            "astId": 9793,
            "contract": "src/PredyPool.sol:PredyPool",
            "label": "amount",
            "offset": 0,
            "slot": "0",
            "type": "t_int256"
          },
          {
            "astId": 9795,
            "contract": "src/PredyPool.sol:PredyPool",
            "label": "entryValue",
            "offset": 0,
            "slot": "1",
            "type": "t_int256"
          }
        ],
        "numberOfBytes": "64"
      },
      "t_struct(RebalanceFeeGrowthCache)9619_storage": {
        "encoding": "inplace",
        "label": "struct DataType.RebalanceFeeGrowthCache",
        "members": [
          {
            "astId": 9616,
            "contract": "src/PredyPool.sol:PredyPool",
            "label": "stableGrowth",
            "offset": 0,
            "slot": "0",
            "type": "t_int256"
          },
          {
            "astId": 9618,
            "contract": "src/PredyPool.sol:PredyPool",
            "label": "underlyingGrowth",
            "offset": 0,
            "slot": "1",
            "type": "t_int256"
          }
        ],
        "numberOfBytes": "64"
      },
      "t_struct(SqrtPerpAssetStatus)9856_storage": {
        "encoding": "inplace",
        "label": "struct Perp.SqrtPerpAssetStatus",
        "members": [
          {
            "astId": 9821,
            "contract": "src/PredyPool.sol:PredyPool",
            "label": "uniswapPool",
            "offset": 0,
            "slot": "0",
            "type": "t_address"
          },
          {
            "astId": 9823,
            "contract": "src/PredyPool.sol:PredyPool",
            "label": "tickLower",
            "offset": 20,
            "slot": "0",
            "type": "t_int24"
          },
          {
            "astId": 9825,
            "contract": "src/PredyPool.sol:PredyPool",
            "label": "tickUpper",
            "offset": 23,
            "slot": "0",
            "type": "t_int24"
          },
          {
            "astId": 9827,
            "contract": "src/PredyPool.sol:PredyPool",
            "label": "numRebalance",
            "offset": 0,
            "slot": "1",
            "type": "t_uint64"
          },
          {
            "astId": 9829,
            "contract": "src/PredyPool.sol:PredyPool",
            "label": "totalAmount",
            "offset": 0,
            "slot": "2",
            "type": "t_uint256"
          },
          {
            "astId": 9831,
            "contract": "src/PredyPool.sol:PredyPool",
            "label": "borrowedAmount",
            "offset": 0,
            "slot": "3",
            "type": "t_uint256"
          },
          {
            "astId": 9833,
            "contract": "src/PredyPool.sol:PredyPool",
            "label": "lastRebalanceTotalSquartAmount",
            "offset": 0,
            "slot": "4",
            "type": "t_uint256"
          },
          {
            "astId": 9835,
            "contract": "src/PredyPool.sol:PredyPool",
            "label": "lastFee0Growth",
            "offset": 0,
            "slot": "5",
            "type": "t_uint256"
          },
          {
            "astId": 9837,
            "contract": "src/PredyPool.sol:PredyPool",
            "label": "lastFee1Growth",
            "offset": 0,
            "slot": "6",
            "type": "t_uint256"
          },
          {
            "astId": 9839,
            "contract": "src/PredyPool.sol:PredyPool",
            "label": "borrowPremium0Growth",
            "offset": 0,
            "slot": "7",
            "type": "t_uint256"
          },
          {
            "astId": 9841,
            "contract": "src/PredyPool.sol:PredyPool",
            "label": "borrowPremium1Growth",
            "offset": 0,
            "slot": "8",
            "type": "t_uint256"
          },
          {
            "astId": 9843,
            "contract": "src/PredyPool.sol:PredyPool",
            "label": "fee0Growth",
            "offset": 0,
            "slot": "9",
            "type": "t_uint256"
          },
          {
            "astId": 9845,
            "contract": "src/PredyPool.sol:PredyPool",
            "label": "fee1Growth",
            "offset": 0,
            "slot": "10",
            "type": "t_uint256"
          },
          {
            "astId": 9848,
            "contract": "src/PredyPool.sol:PredyPool",
            "label": "rebalancePositionBase",
            "offset": 0,
            "slot": "11",
            "type": "t_struct(UserStatus)13820_storage"
          },
          {
            "astId": 9851,
            "contract": "src/PredyPool.sol:PredyPool",
            "label": "rebalancePositionQuote",
            "offset": 0,
            "slot": "13",
            "type": "t_struct(UserStatus)13820_storage"
          },
          {
            "astId": 9853,
            "contract": "src/PredyPool.sol:PredyPool",
            "label": "rebalanceInterestGrowthBase",
            "offset": 0,
            "slot": "15",
            "type": "t_int256"
          },
          {
            "astId": 9855,
            "contract": "src/PredyPool.sol:PredyPool",
            "label": "rebalanceInterestGrowthQuote",
            "offset": 0,
            "slot": "16",
            "type": "t_int256"
          }
        ],
        "numberOfBytes": "544"
      },
      "t_struct(SqrtPositionStatus)9809_storage": {
        "encoding": "inplace",
        "label": "struct Perp.SqrtPositionStatus",
        "members": [
          {
            "astId": 9798,
            "contract": "src/PredyPool.sol:PredyPool",
            "label": "amount",
            "offset": 0,
            "slot": "0",
            "type": "t_int256"
          },
          {
            "astId": 9800,
            "contract": "src/PredyPool.sol:PredyPool",
            "label": "entryValue",
            "offset": 0,
            "slot": "1",
            "type": "t_int256"
          },
          {
            "astId": 9802,
            "contract": "src/PredyPool.sol:PredyPool",
            "label": "quoteRebalanceEntryValue",
            "offset": 0,
            "slot": "2",
            "type": "t_int256"
          },
          {
            "astId": 9804,
            "contract": "src/PredyPool.sol:PredyPool",
            "label": "baseRebalanceEntryValue",
            "offset": 0,
            "slot": "3",
            "type": "t_int256"
          },
          {
            "astId": 9806,
            "contract": "src/PredyPool.sol:PredyPool",
            "label": "entryTradeFee0",
            "offset": 0,
            "slot": "4",
            "type": "t_uint256"
          },
          {
            "astId": 9808,
            "contract": "src/PredyPool.sol:PredyPool",
            "label": "entryTradeFee1",
            "offset": 0,
            "slot": "5",
            "type": "t_uint256"
          }
        ],
        "numberOfBytes": "192"
      },
      "t_struct(UserStatus)13820_storage": {
        "encoding": "inplace",
        "label": "struct ScaledAsset.UserStatus",
        "members": [
          {
            "astId": 13817,
            "contract": "src/PredyPool.sol:PredyPool",
            "label": "positionAmount",
            "offset": 0,
            "slot": "0",
            "type": "t_int256"
          },
          {
            "astId": 13819,
            "contract": "src/PredyPool.sol:PredyPool",
            "label": "lastFeeGrowth",
            "offset": 0,
            "slot": "1",
            "type": "t_uint256"
          }
        ],
        "numberOfBytes": "64"
      },
      "t_struct(UserStatus)9877_storage": {
        "encoding": "inplace",
        "label": "struct Perp.UserStatus",
        "members": [
          {
            "astId": 9858,
            "contract": "src/PredyPool.sol:PredyPool",
            "label": "pairId",
            "offset": 0,
            "slot": "0",
            "type": "t_uint256"
          },
          {
            "astId": 9860,
            "contract": "src/PredyPool.sol:PredyPool",
            "label": "rebalanceLastTickLower",
            "offset": 0,
            "slot": "1",
            "type": "t_int24"
          },
          {
            "astId": 9862,
            "contract": "src/PredyPool.sol:PredyPool",
            "label": "rebalanceLastTickUpper",
            "offset": 3,
            "slot": "1",
            "type": "t_int24"
          },
          {
            "astId": 9864,
            "contract": "src/PredyPool.sol:PredyPool",
            "label": "lastNumRebalance",
            "offset": 6,
            "slot": "1",
            "type": "t_uint64"
          },
          {
            "astId": 9867,
            "contract": "src/PredyPool.sol:PredyPool",
            "label": "perp",
            "offset": 0,
            "slot": "2",
            "type": "t_struct(PositionStatus)9796_storage"
          },
          {
            "astId": 9870,
            "contract": "src/PredyPool.sol:PredyPool",
            "label": "sqrtPerp",
            "offset": 0,
            "slot": "4",
            "type": "t_struct(SqrtPositionStatus)9809_storage"
          },
          {
            "astId": 9873,
            "contract": "src/PredyPool.sol:PredyPool",
            "label": "basePosition",
            "offset": 0,
            "slot": "10",
            "type": "t_struct(UserStatus)13820_storage"
          },
          {
            "astId": 9876,
            "contract": "src/PredyPool.sol:PredyPool",
            "label": "stablePosition",
            "offset": 0,
            "slot": "12",
            "type": "t_struct(UserStatus)13820_storage"
          }
        ],
        "numberOfBytes": "448"
      },
      "t_struct(Vault)9614_storage": {
        "encoding": "inplace",
        "label": "struct DataType.Vault",
        "members": [
          {
            "astId": 9602,
            "contract": "src/PredyPool.sol:PredyPool",
            "label": "id",
            "offset": 0,
            "slot": "0",
            "type": "t_uint256"
          },
          {
            "astId": 9604,
            "contract": "src/PredyPool.sol:PredyPool",
            "label": "marginId",
            "offset": 0,
            "slot": "1",
            "type": "t_address"
          },
          {
            "astId": 9606,
            "contract": "src/PredyPool.sol:PredyPool",
            "label": "owner",
            "offset": 0,
            "slot": "2",
            "type": "t_address"
          },
          {
            "astId": 9608,
            "contract": "src/PredyPool.sol:PredyPool",
            "label": "recipient",
            "offset": 0,
            "slot": "3",
            "type": "t_address"
          },
          {
            "astId": 9610,
            "contract": "src/PredyPool.sol:PredyPool",
            "label": "margin",
            "offset": 0,
            "slot": "4",
            "type": "t_int256"
          },
          {
            "astId": 9613,
            "contract": "src/PredyPool.sol:PredyPool",
            "label": "openPosition",
            "offset": 0,
            "slot": "5",
            "type": "t_struct(UserStatus)9877_storage"
          }
        ],
        "numberOfBytes": "608"
      },
      "t_uint128": {
        "encoding": "inplace",
        "label": "uint128",
        "numberOfBytes": "16"
      },
      "t_uint256": {
        "encoding": "inplace",
        "label": "uint256",
        "numberOfBytes": "32"
      },
      "t_uint64": {
        "encoding": "inplace",
        "label": "uint64",
        "numberOfBytes": "8"
      },
      "t_uint8": {
        "encoding": "inplace",
        "label": "uint8",
        "numberOfBytes": "1"
      }
    }
  }
}