{
  "address": "0x14606e833eC195b4f591f9970c52F4Bc5aDA6191",
  "abi": [
    {
      "inputs": [
        {
          "internalType": "address",
          "name": "pyth",
          "type": "address"
        }
      ],
      "stateMutability": "nonpayable",
      "type": "constructor"
    },
    {
      "anonymous": false,
      "inputs": [
        {
          "indexed": false,
          "internalType": "address",
          "name": "quotePrice",
          "type": "address"
        },
        {
          "indexed": false,
          "internalType": "bytes32",
          "name": "priceId",
          "type": "bytes32"
        },
        {
          "indexed": false,
          "internalType": "uint256",
          "name": "decimalsDiff",
          "type": "uint256"
        },
        {
          "indexed": false,
          "internalType": "address",
          "name": "priceFeed",
          "type": "address"
        }
      ],
      "name": "PriceFeedCreated",
      "type": "event"
    },
    {
      "inputs": [
        {
          "internalType": "address",
          "name": "quotePrice",
          "type": "address"
        },
        {
          "internalType": "bytes32",
          "name": "priceId",
          "type": "bytes32"
        },
        {
          "internalType": "uint256",
          "name": "decimalsDiff",
          "type": "uint256"
        }
      ],
      "name": "createPriceFeed",
      "outputs": [
        {
          "internalType": "address",
          "name": "",
          "type": "address"
        }
      ],
      "stateMutability": "nonpayable",
      "type": "function"
    }
  ],
  "transactionHash": "0x5ca74546e9a849043c47ca21eb41eb9f0e52e3af00b2c4601f9ba769b44fdfbe",
  "args": [
    "0xff1a0f4744e8582DF1aE09D5611b887B6a12925C"
  ],
  "numDeployments": 2,
  "solcInputHash": "4b4569b379ee8f293f398bfcc579ba9c",
  "bytecode": "0x60a060405234801561001057600080fd5b506040516107dd3803806107dd83398101604081905261002f91610040565b6001600160a01b0316608052610070565b60006020828403121561005257600080fd5b81516001600160a01b038116811461006957600080fd5b9392505050565b60805161075361008a6000396000606501526107536000f3fe608060405234801561001057600080fd5b506004361061002b5760003560e01c80632aa97d0714610030575b600080fd5b61004361003e36600461013c565b61005f565b6040516001600160a01b03909116815260200160405180910390f35b600080847f000000000000000000000000000000000000000000000000000000000000000085856040516100929061012f565b6001600160a01b03948516815293909216602084015260408301526060820152608001604051809103906000f0801580156100d1573d6000803e3d6000fd5b50604080516001600160a01b0380891682526020820188905291810186905290821660608201529091507e7e02b60fa9e1000bb541a612e2ebe7f9d932336769e4d5ad33b415f95600ff9060800160405180910390a1949350505050565b6105a08061017e83390190565b60008060006060848603121561015157600080fd5b83356001600160a01b038116811461016857600080fd5b9560208501359550604090940135939250505056fe61010060405234801561001157600080fd5b506040516105a03803806105a08339810160408190526100309161006f565b6001600160a01b039384166080529190921660a05260e09190915260c0526100b2565b80516001600160a01b038116811461006a57600080fd5b919050565b6000806000806080858703121561008557600080fd5b61008e85610053565b935061009c60208601610053565b6040860151606090960151949790965092505050565b60805160a05160c05160e0516104b76100e9600039600060e00152600061021d0152600061011e01526000604f01526104b76000f3fe608060405234801561001057600080fd5b506004361061002b5760003560e01c806386e6862d14610030575b600080fd5b61003861004a565b60405190815260200160405180910390f35b6000807f00000000000000000000000000000000000000000000000000000000000000006001600160a01b031663feaf968c6040518163ffffffff1660e01b815260040160a060405180830381865afa1580156100ab573d6000803e3d6000fd5b505050506040513d601f19601f820116820180604052508101906100cf919061032a565b505060405163052571af60e51b81527f0000000000000000000000000000000000000000000000000000000000000000600482015261012c602482015291935060009250506001600160a01b037f0000000000000000000000000000000000000000000000000000000000000000169063a4ae35e090604401608060405180830381865afa158015610165573d6000803e3d6000fd5b505050506040513d601f19601f8201168201806040525081019061018991906103a4565b9050806040015160030b600719146101d55760405162461bcd60e51b815260206004820152600b60248201526a0494e56414c49445f4558560ac1b604482015260640160405180910390fd5b6000821380156101ec57506000816000015160070b135b6101f557600080fd5b600082600160601b836000015160070b61020f9190610434565b610219919061045f565b90507f000000000000000000000000000000000000000000000000000000000000000061024a600160601b83610434565b610254919061045f565b905061025f81610267565b935050505090565b60b581600160881b81106102805760409190911b9060801c5b6901000000000000000000811061029c5760209190911b9060401c5b6501000000000081106102b45760109190911b9060201c5b630100000081106102ca5760089190911b9060101c5b62010000010260121c80820401600190811c80830401811c80830401811c80830401811c80830401811c80830401811c80830401901c908190048111900390565b805169ffffffffffffffffffff8116811461032557600080fd5b919050565b600080600080600060a0868803121561034257600080fd5b61034b8661030b565b945060208601519350604086015192506060860151915061036e6080870161030b565b90509295509295909350565b805167ffffffffffffffff8116811461032557600080fd5b8051600381900b811461032557600080fd5b6000608082840312156103b657600080fd5b6040516080810181811067ffffffffffffffff821117156103e757634e487b7160e01b600052604160045260246000fd5b6040528251600781900b81146103fc57600080fd5b815261040a6020840161037a565b602082015261041b60408401610392565b6040820152606083015160608201528091505092915050565b808202811582820484141761045957634e487b7160e01b600052601160045260246000fd5b92915050565b60008261047c57634e487b7160e01b600052601260045260246000fd5b50049056fea26469706673582212207430482f13d396e9534ebee677a136612bdf49260b380bff1c7e8218ea123a0e64736f6c63430008130033a26469706673582212202a73b0e9e709cd6def6d95087f95564f51bc988975528e77ffa087c3ab94c47964736f6c63430008130033",
  "devdoc": {
    "kind": "dev",
    "methods": {},
    "version": 1
  },
  "userdoc": {
    "kind": "user",
    "methods": {},
    "version": 1
  },
  "storageLayout": {
    "storage": [],
    "types": null
  }
}