{
  "address": "0xBDf956Ff7889BBFa38918666F0fD5A934EdbBD65",
  "abi": [
    {
      "inputs": [],
      "name": "PriceGreaterThanLimit",
      "type": "error"
    },
    {
      "inputs": [],
      "name": "PriceLessThanLimit",
      "type": "error"
    },
    {
      "inputs": [
        {
          "components": [
            {
              "components": [
                {
                  "internalType": "address",
                  "name": "market",
                  "type": "address"
                },
                {
                  "internalType": "address",
                  "name": "trader",
                  "type": "address"
                },
                {
                  "internalType": "uint256",
                  "name": "nonce",
                  "type": "uint256"
                },
                {
                  "internalType": "uint256",
                  "name": "deadline",
                  "type": "uint256"
                }
              ],
              "internalType": "struct OrderInfo",
              "name": "info",
              "type": "tuple"
            },
            {
              "internalType": "address",
              "name": "quoteToken",
              "type": "address"
            },
            {
              "internalType": "address",
              "name": "baseToken",
              "type": "address"
            },
            {
              "internalType": "int256",
              "name": "baseTokenAmount",
              "type": "int256"
            },
            {
              "internalType": "uint256",
              "name": "quoteTokenAmount",
              "type": "uint256"
            },
            {
              "internalType": "address",
              "name": "validatorAddress",
              "type": "address"
            },
            {
              "internalType": "bytes",
              "name": "validationData",
              "type": "bytes"
            }
          ],
          "internalType": "struct SpotOrder",
          "name": "spotOrder",
          "type": "tuple"
        },
        {
          "internalType": "int256",
          "name": "quoteTokenAmount",
          "type": "int256"
        },
        {
          "internalType": "address",
          "name": "",
          "type": "address"
        }
      ],
      "name": "validate",
      "outputs": [],
      "stateMutability": "pure",
      "type": "function"
    }
  ],
  "transactionHash": "0x4b83795c7df4b6c62fc39a1882d8d4978c7e1bc7f774b0aca4d2e792175d73c5",
  "args": [],
  "numDeployments": 1,
  "solcInputHash": "bdc5ae25e00ced17753e96c12fc6118e",
  "bytecode": "0x608060405234801561001057600080fd5b506103be806100206000396000f3fe608060405234801561001057600080fd5b506004361061002b5760003560e01c8063a59340f914610030575b600080fd5b61004361003e366004610239565b610045565b005b60008360c0015180602001905181019061005f919061031c565b905083606001516000146100d9576000846060015113801561008957506100858361035e565b8151105b156100a75760405163678487e160e01b815260040160405180910390fd5b600084606001511280156100bb5750805183105b156100d95760405163feca548760e01b815260040160405180910390fd5b50505050565b634e487b7160e01b600052604160045260246000fd5b60405160e0810167ffffffffffffffff81118282101715610118576101186100df565b60405290565b80356001600160a01b038116811461013557600080fd5b919050565b60006080828403121561014c57600080fd5b6040516080810181811067ffffffffffffffff8211171561016f5761016f6100df565b60405290508061017e8361011e565b815261018c6020840161011e565b602082015260408301356040820152606083013560608201525092915050565b600082601f8301126101bd57600080fd5b813567ffffffffffffffff808211156101d8576101d86100df565b604051601f8301601f19908116603f01168101908282118183101715610200576102006100df565b8160405283815286602085880101111561021957600080fd5b836020870160208301376000602085830101528094505050505092915050565b60008060006060848603121561024e57600080fd5b833567ffffffffffffffff8082111561026657600080fd5b90850190610140828803121561027b57600080fd5b6102836100f5565b61028d888461013a565b815261029b6080840161011e565b60208201526102ac60a0840161011e565b604082015260c0830135606082015260e083013560808201526102d2610100840161011e565b60a0820152610120830135828111156102ea57600080fd5b6102f6898286016101ac565b60c08301525094505050602084013591506103136040850161011e565b90509250925092565b60006020828403121561032e57600080fd5b6040516020810181811067ffffffffffffffff82111715610351576103516100df565b6040529151825250919050565b6000600160ff1b820161038157634e487b7160e01b600052601160045260246000fd5b506000039056fea2646970667358221220857822fb0a7c19e50bf5e63a3011207b4716d556aeb965e5c52810ade708931e64736f6c63430008130033",
  "devdoc": {
    "kind": "dev",
    "methods": {},
    "version": 1
  },
  "userdoc": {
    "kind": "user",
    "methods": {},
    "notice": "The LimitOrderValidator contract is responsible for validating the limit orders",
    "version": 1
  },
  "storageLayout": {
    "storage": [],
    "types": null
  }
}