{
  "address": "0xF015a0B2bC7F9fA126b22c0C892D3256d4062623",
  "abi": [
    {
      "inputs": [
        {
          "internalType": "contract ISpotMarket",
          "name": "_spotMarket",
          "type": "address"
        }
      ],
      "stateMutability": "nonpayable",
      "type": "constructor"
    },
    {
      "inputs": [
        {
          "components": [
            {
              "components": [
                {
                  "internalType": "address",
                  "name": "market",
                  "type": "address"
                },
                {
                  "internalType": "address",
                  "name": "trader",
                  "type": "address"
                },
                {
                  "internalType": "uint256",
                  "name": "nonce",
                  "type": "uint256"
                },
                {
                  "internalType": "uint256",
                  "name": "deadline",
                  "type": "uint256"
                }
              ],
              "internalType": "struct OrderInfo",
              "name": "info",
              "type": "tuple"
            },
            {
              "internalType": "address",
              "name": "quoteToken",
              "type": "address"
            },
            {
              "internalType": "address",
              "name": "baseToken",
              "type": "address"
            },
            {
              "internalType": "int256",
              "name": "baseTokenAmount",
              "type": "int256"
            },
            {
              "internalType": "uint256",
              "name": "quoteTokenAmount",
              "type": "uint256"
            },
            {
              "internalType": "uint256",
              "name": "limitQuoteTokenAmount",
              "type": "uint256"
            },
            {
              "internalType": "bytes",
              "name": "auctionData",
              "type": "bytes"
            }
          ],
          "internalType": "struct SpotOrder",
          "name": "order",
          "type": "tuple"
        },
        {
          "components": [
            {
              "internalType": "address",
              "name": "contractAddress",
              "type": "address"
            },
            {
              "internalType": "bytes",
              "name": "encodedData",
              "type": "bytes"
            },
            {
              "internalType": "uint256",
              "name": "maxQuoteAmount",
              "type": "uint256"
            },
            {
              "internalType": "uint256",
              "name": "price",
              "type": "uint256"
            },
            {
              "internalType": "int256",
              "name": "fee",
              "type": "int256"
            }
          ],
          "internalType": "struct IFillerMarket.SettlementParams",
          "name": "settlementParams",
          "type": "tuple"
        }
      ],
      "name": "quoteExecuteOrder",
      "outputs": [
        {
          "internalType": "int256",
          "name": "quoteTokenAmount",
          "type": "int256"
        }
      ],
      "stateMutability": "nonpayable",
      "type": "function"
    },
    {
      "inputs": [
        {
          "components": [
            {
              "components": [
                {
                  "internalType": "address",
                  "name": "market",
                  "type": "address"
                },
                {
                  "internalType": "address",
                  "name": "trader",
                  "type": "address"
                },
                {
                  "internalType": "uint256",
                  "name": "nonce",
                  "type": "uint256"
                },
                {
                  "internalType": "uint256",
                  "name": "deadline",
                  "type": "uint256"
                }
              ],
              "internalType": "struct OrderInfo",
              "name": "info",
              "type": "tuple"
            },
            {
              "internalType": "address",
              "name": "quoteToken",
              "type": "address"
            },
            {
              "internalType": "address",
              "name": "baseToken",
              "type": "address"
            },
            {
              "internalType": "int256",
              "name": "baseTokenAmount",
              "type": "int256"
            },
            {
              "internalType": "uint256",
              "name": "quoteTokenAmount",
              "type": "uint256"
            },
            {
              "internalType": "uint256",
              "name": "limitQuoteTokenAmount",
              "type": "uint256"
            },
            {
              "internalType": "bytes",
              "name": "auctionData",
              "type": "bytes"
            }
          ],
          "internalType": "struct SpotOrder",
          "name": "order",
          "type": "tuple"
        },
        {
          "components": [
            {
              "internalType": "address",
              "name": "contractAddress",
              "type": "address"
            },
            {
              "internalType": "bytes",
              "name": "encodedData",
              "type": "bytes"
            },
            {
              "internalType": "uint256",
              "name": "maxQuoteAmount",
              "type": "uint256"
            },
            {
              "internalType": "uint256",
              "name": "price",
              "type": "uint256"
            },
            {
              "internalType": "int256",
              "name": "fee",
              "type": "int256"
            }
          ],
          "internalType": "struct IFillerMarket.SettlementParams",
          "name": "settlementParams",
          "type": "tuple"
        }
      ],
      "name": "quoteExecuteOrderWithTs",
      "outputs": [
        {
          "internalType": "int256",
          "name": "quoteTokenAmount",
          "type": "int256"
        },
        {
          "internalType": "uint256",
          "name": "timestamp",
          "type": "uint256"
        }
      ],
      "stateMutability": "nonpayable",
      "type": "function"
    }
  ],
  "transactionHash": "0xec9956bb53b595e9d1623b237189be2772e8382fe090e310b22c3607bf62ec24",
  "args": [
    "0x624cAFEb15fCf66869725b0f22B3f8D55065B1FA"
  ],
  "numDeployments": 5,
  "solcInputHash": "66385b4001793b3204c37450d0f24b48",
  "bytecode": "0x608060405234801561001057600080fd5b506040516106f33803806106f383398101604081905261002f91610054565b600080546001600160a01b0319166001600160a01b0392909216919091179055610084565b60006020828403121561006657600080fd5b81516001600160a01b038116811461007d57600080fd5b9392505050565b610660806100936000396000f3fe608060405234801561001057600080fd5b50600436106100365760003560e01c806337e81b7a1461003b57806382b3b6cd14610061575b600080fd5b61004e6100493660046103c5565b610089565b6040519081526020015b60405180910390f35b61007461006f3660046103c5565b61013d565b60408051928352602083019190915201610058565b6060820151600080549091906001600160a01b03166328323e19846100ad846104ac565b6040518363ffffffff1660e01b81526004016100ca929190610526565b600060405180830381600087803b1580156100e457600080fd5b505af19250505080156100f5575060015b610136573d808015610123576040519150601f19603f3d011682016040523d82523d6000602084013e610128565b606091505b5061013281610154565b9250505b5092915050565b60008061014a8484610089565b9442945092505050565b6000815160201461019b57600482019150818060200190518101906101799190610580565b60405162461bcd60e51b815260040161019291906105f7565b60405180910390fd5b818060200190518101906101af9190610611565b92915050565b634e487b7160e01b600052604160045260246000fd5b60405160e0810167ffffffffffffffff811182821017156101ee576101ee6101b5565b60405290565b604051601f8201601f1916810167ffffffffffffffff8111828210171561021d5761021d6101b5565b604052919050565b80356001600160a01b038116811461023c57600080fd5b919050565b60006080828403121561025357600080fd5b6040516080810181811067ffffffffffffffff82111715610276576102766101b5565b60405290508061028583610225565b815261029360208401610225565b602082015260408301356040820152606083013560608201525092915050565b600067ffffffffffffffff8211156102cd576102cd6101b5565b50601f01601f191660200190565b600082601f8301126102ec57600080fd5b81356102ff6102fa826102b3565b6101f4565b81815284602083860101111561031457600080fd5b816020850160208301376000918101602001919091529392505050565b600060a0828403121561034357600080fd5b60405160a0810167ffffffffffffffff8282108183111715610367576103676101b5565b8160405282935061037785610225565b8352602085013591508082111561038d57600080fd5b5061039a858286016102db565b6020830152506040830135604082015260608301356060820152608083013560808201525092915050565b600080604083850312156103d857600080fd5b823567ffffffffffffffff808211156103f057600080fd5b90840190610140828703121561040557600080fd5b61040d6101cb565b6104178784610241565b815261042560808401610225565b602082015261043660a08401610225565b604082015260c0830135606082015260e0830135608082015261010083013560a08201526101208301358281111561046d57600080fd5b610479888286016102db565b60c0830152509350602085013591508082111561049557600080fd5b506104a285828601610331565b9150509250929050565b6000600160ff1b82016104cf57634e487b7160e01b600052601160045260246000fd5b5060000390565b60005b838110156104f15781810151838201526020016104d9565b50506000910152565b600081518084526105128160208601602086016104d6565b601f01601f19169290920160200192915050565b604080825283516001600160a01b031690820152602083015160a0606083015260009061055660e08401826104fa565b6040860151608085810191909152606087015160a08601529095015160c084015250506020015290565b60006020828403121561059257600080fd5b815167ffffffffffffffff8111156105a957600080fd5b8201601f810184136105ba57600080fd5b80516105c86102fa826102b3565b8181528560208385010111156105dd57600080fd5b6105ee8260208301602086016104d6565b95945050505050565b60208152600061060a60208301846104fa565b9392505050565b60006020828403121561062357600080fd5b505191905056fea26469706673582212201863ca64f491b11c35f42b6e33d8a34247e75238a0d78e58efa8e71b67eceeca64736f6c63430008130033",
  "devdoc": {
    "kind": "dev",
    "methods": {},
    "version": 1
  },
  "userdoc": {
    "kind": "user",
    "methods": {},
    "notice": "Quoter contract for SpotMarket",
    "version": 1
  },
  "storageLayout": {
    "storage": [
      {
        "astId": 9229,
        "contract": "src/lens/SpotMarketQuoter.sol:SpotMarketQuoter",
        "label": "spotMarket",
        "offset": 0,
        "slot": "0",
        "type": "t_contract(ISpotMarket)8515"
      }
    ],
    "types": {
      "t_contract(ISpotMarket)8515": {
        "encoding": "inplace",
        "label": "contract ISpotMarket",
        "numberOfBytes": "20"
      }
    }
  }
}