{
  "address": "0xbDb43F342Be3722746a9FF0C049b676987C88a4D",
  "abi": [
    {
      "inputs": [],
      "name": "PriceGreaterThanLimit",
      "type": "error"
    },
    {
      "inputs": [],
      "name": "PriceLessThanLimit",
      "type": "error"
    },
    {
      "inputs": [
        {
          "components": [
            {
              "components": [
                {
                  "internalType": "address",
                  "name": "market",
                  "type": "address"
                },
                {
                  "internalType": "address",
                  "name": "trader",
                  "type": "address"
                },
                {
                  "internalType": "uint256",
                  "name": "nonce",
                  "type": "uint256"
                },
                {
                  "internalType": "uint256",
                  "name": "deadline",
                  "type": "uint256"
                }
              ],
              "internalType": "struct OrderInfo",
              "name": "info",
              "type": "tuple"
            },
            {
              "internalType": "address",
              "name": "quoteToken",
              "type": "address"
            },
            {
              "internalType": "address",
              "name": "baseToken",
              "type": "address"
            },
            {
              "internalType": "int256",
              "name": "baseTokenAmount",
              "type": "int256"
            },
            {
              "internalType": "uint256",
              "name": "quoteTokenAmount",
              "type": "uint256"
            },
            {
              "internalType": "address",
              "name": "validatorAddress",
              "type": "address"
            },
            {
              "internalType": "bytes",
              "name": "validationData",
              "type": "bytes"
            }
          ],
          "internalType": "struct SpotOrder",
          "name": "spotOrder",
          "type": "tuple"
        },
        {
          "internalType": "int256",
          "name": "quoteTokenAmount",
          "type": "int256"
        },
        {
          "internalType": "address",
          "name": "filler",
          "type": "address"
        }
      ],
      "name": "validate",
      "outputs": [],
      "stateMutability": "pure",
      "type": "function"
    }
  ],
  "transactionHash": "0x4312c2448bb84e7b5d450d84d5fe913f5a2925d238b71fd0d9e75f9a7e17f130",
  "args": [],
  "numDeployments": 1,
  "solcInputHash": "5bdbb8d21fc18e3c1253724388bc7a46",
  "bytecode": "0x608060405234801561001057600080fd5b5061040c806100206000396000f3fe608060405234801561001057600080fd5b506004361061002b5760003560e01c8063a59340f914610030575b600080fd5b61004361003e366004610271565b610045565b005b60008360c0015180602001905181019061005f9190610354565b9050816001600160a01b031681600001516001600160a01b03161461008357600080fd5b6060840151156100ff57600084606001511380156100ac57506100a5836103ac565b8160200151105b156100ca5760405163678487e160e01b815260040160405180910390fd5b600084606001511280156100e15750828160200151115b156100ff5760405163feca548760e01b815260040160405180910390fd5b50505050565b634e487b7160e01b600052604160045260246000fd5b60405160e0810167ffffffffffffffff8111828210171561013e5761013e610105565b60405290565b6001600160a01b038116811461015957600080fd5b50565b803561016781610144565b919050565b60006080828403121561017e57600080fd5b6040516080810181811067ffffffffffffffff821117156101a1576101a1610105565b60405290508082356101b281610144565b815260208301356101c281610144565b8060208301525060408301356040820152606083013560608201525092915050565b600082601f8301126101f557600080fd5b813567ffffffffffffffff8082111561021057610210610105565b604051601f8301601f19908116603f0116810190828211818310171561023857610238610105565b8160405283815286602085880101111561025157600080fd5b836020870160208301376000602085830101528094505050505092915050565b60008060006060848603121561028657600080fd5b833567ffffffffffffffff8082111561029e57600080fd5b9085019061014082880312156102b357600080fd5b6102bb61011b565b6102c5888461016c565b81526102d36080840161015c565b60208201526102e460a0840161015c565b604082015260c0830135606082015260e0830135608082015261030a610100840161015c565b60a08201526101208301358281111561032257600080fd5b61032e898286016101e4565b60c083015250945050506020840135915061034b6040850161015c565b90509250925092565b60006040828403121561036657600080fd5b6040516040810181811067ffffffffffffffff8211171561038957610389610105565b604052825161039781610144565b81526020928301519281019290925250919050565b6000600160ff1b82016103cf57634e487b7160e01b600052601160045260246000fd5b506000039056fea2646970667358221220bd460bdd7931cb9256c61402efaa2342517f2c7dbd9166c446a8897bd8bb9e6d64736f6c63430008130033",
  "devdoc": {
    "kind": "dev",
    "methods": {},
    "version": 1
  },
  "userdoc": {
    "kind": "user",
    "methods": {},
    "notice": "The LimitOrderValidator contract is responsible for validating the limit orders",
    "version": 1
  },
  "storageLayout": {
    "storage": [],
    "types": null
  }
}