{
  "address": "0x12Fea3F9185539562eC23F44f3cc1AD5EbB4AdC9",
  "abi": [
    {
      "inputs": [
        {
          "internalType": "address",
          "name": "permit2Address",
          "type": "address"
        }
      ],
      "stateMutability": "nonpayable",
      "type": "constructor"
    },
    {
      "inputs": [],
      "name": "BaseCurrencyNotSettled",
      "type": "error"
    },
    {
      "inputs": [],
      "name": "CallerIsNotFiller",
      "type": "error"
    },
    {
      "inputs": [],
      "name": "DeadlinePassed",
      "type": "error"
    },
    {
      "inputs": [],
      "name": "EndTimeBeforeStartTime",
      "type": "error"
    },
    {
      "inputs": [],
      "name": "InvalidMarket",
      "type": "error"
    },
    {
      "inputs": [],
      "name": "LimitOrderDoesNotMatch",
      "type": "error"
    },
    {
      "inputs": [],
      "name": "MarketOrderDoesNotMatch",
      "type": "error"
    },
    {
      "inputs": [],
      "name": "RequiredQuoteAmountExceedsMax",
      "type": "error"
    },
    {
      "inputs": [],
      "name": "SettlementContractIsNotWhitelisted",
      "type": "error"
    },
    {
      "inputs": [],
      "name": "SignerIsNotVaultOwner",
      "type": "error"
    },
    {
      "anonymous": false,
      "inputs": [
        {
          "indexed": true,
          "internalType": "address",
          "name": "user",
          "type": "address"
        },
        {
          "indexed": true,
          "internalType": "address",
          "name": "newOwner",
          "type": "address"
        }
      ],
      "name": "OwnershipTransferred",
      "type": "event"
    },
    {
      "anonymous": false,
      "inputs": [
        {
          "indexed": true,
          "internalType": "address",
          "name": "trader",
          "type": "address"
        },
        {
          "indexed": false,
          "internalType": "address",
          "name": "filler",
          "type": "address"
        },
        {
          "indexed": false,
          "internalType": "address",
          "name": "baseToken",
          "type": "address"
        },
        {
          "indexed": false,
          "internalType": "address",
          "name": "quoteToken",
          "type": "address"
        },
        {
          "indexed": false,
          "internalType": "int256",
          "name": "baseAmount",
          "type": "int256"
        },
        {
          "indexed": false,
          "internalType": "int256",
          "name": "quoteAmount",
          "type": "int256"
        },
        {
          "indexed": false,
          "internalType": "address",
          "name": "validatorAddress",
          "type": "address"
        }
      ],
      "name": "SpotTraded",
      "type": "event"
    },
    {
      "inputs": [
        {
          "components": [
            {
              "internalType": "address",
              "name": "trader",
              "type": "address"
            },
            {
              "internalType": "uint256",
              "name": "nonce",
              "type": "uint256"
            },
            {
              "internalType": "uint256",
              "name": "deadline",
              "type": "uint256"
            },
            {
              "internalType": "address",
              "name": "quoteToken",
              "type": "address"
            },
            {
              "internalType": "address",
              "name": "baseToken",
              "type": "address"
            },
            {
              "internalType": "int256",
              "name": "baseTokenAmount",
              "type": "int256"
            },
            {
              "internalType": "uint256",
              "name": "quoteTokenAmount",
              "type": "uint256"
            },
            {
              "internalType": "uint256",
              "name": "limitQuoteTokenAmount",
              "type": "uint256"
            }
          ],
          "internalType": "struct SpotLimitOrder",
          "name": "limitOrder",
          "type": "tuple"
        },
        {
          "internalType": "bytes",
          "name": "sig",
          "type": "bytes"
        },
        {
          "components": [
            {
              "internalType": "address",
              "name": "contractAddress",
              "type": "address"
            },
            {
              "internalType": "bytes",
              "name": "encodedData",
              "type": "bytes"
            },
            {
              "internalType": "uint256",
              "name": "maxQuoteAmount",
              "type": "uint256"
            },
            {
              "internalType": "uint256",
              "name": "price",
              "type": "uint256"
            },
            {
              "internalType": "int256",
              "name": "fee",
              "type": "int256"
            }
          ],
          "internalType": "struct IFillerMarket.SettlementParams",
          "name": "settlementParams",
          "type": "tuple"
        }
      ],
      "name": "executeLimitOrder",
      "outputs": [
        {
          "internalType": "int256",
          "name": "quoteTokenAmount",
          "type": "int256"
        }
      ],
      "stateMutability": "nonpayable",
      "type": "function"
    },
    {
      "inputs": [
        {
          "components": [
            {
              "internalType": "address",
              "name": "trader",
              "type": "address"
            },
            {
              "internalType": "uint256",
              "name": "nonce",
              "type": "uint256"
            },
            {
              "internalType": "uint256",
              "name": "deadline",
              "type": "uint256"
            },
            {
              "internalType": "address",
              "name": "quoteToken",
              "type": "address"
            },
            {
              "internalType": "address",
              "name": "baseToken",
              "type": "address"
            },
            {
              "internalType": "int256",
              "name": "baseTokenAmount",
              "type": "int256"
            },
            {
              "internalType": "uint256",
              "name": "quoteTokenAmount",
              "type": "uint256"
            },
            {
              "internalType": "bytes",
              "name": "auctionData",
              "type": "bytes"
            }
          ],
          "internalType": "struct SpotMarketOrder",
          "name": "marketOrder",
          "type": "tuple"
        },
        {
          "internalType": "bytes",
          "name": "sig",
          "type": "bytes"
        },
        {
          "components": [
            {
              "internalType": "address",
              "name": "contractAddress",
              "type": "address"
            },
            {
              "internalType": "bytes",
              "name": "encodedData",
              "type": "bytes"
            },
            {
              "internalType": "uint256",
              "name": "maxQuoteAmount",
              "type": "uint256"
            },
            {
              "internalType": "uint256",
              "name": "price",
              "type": "uint256"
            },
            {
              "internalType": "int256",
              "name": "fee",
              "type": "int256"
            }
          ],
          "internalType": "struct IFillerMarket.SettlementParams",
          "name": "settlementParams",
          "type": "tuple"
        }
      ],
      "name": "executeMarketOrder",
      "outputs": [
        {
          "internalType": "int256",
          "name": "quoteTokenAmount",
          "type": "int256"
        }
      ],
      "stateMutability": "nonpayable",
      "type": "function"
    },
    {
      "inputs": [
        {
          "components": [
            {
              "internalType": "bytes",
              "name": "order",
              "type": "bytes"
            },
            {
              "internalType": "bytes",
              "name": "sig",
              "type": "bytes"
            }
          ],
          "internalType": "struct IFillerMarket.SignedOrder",
          "name": "order",
          "type": "tuple"
        },
        {
          "components": [
            {
              "internalType": "address",
              "name": "contractAddress",
              "type": "address"
            },
            {
              "internalType": "bytes",
              "name": "encodedData",
              "type": "bytes"
            },
            {
              "internalType": "uint256",
              "name": "maxQuoteAmount",
              "type": "uint256"
            },
            {
              "internalType": "uint256",
              "name": "price",
              "type": "uint256"
            },
            {
              "internalType": "int256",
              "name": "fee",
              "type": "int256"
            }
          ],
          "internalType": "struct IFillerMarket.SettlementParams",
          "name": "settlementParams",
          "type": "tuple"
        }
      ],
      "name": "executeOrder",
      "outputs": [
        {
          "internalType": "int256",
          "name": "quoteTokenAmount",
          "type": "int256"
        }
      ],
      "stateMutability": "nonpayable",
      "type": "function"
    },
    {
      "inputs": [],
      "name": "owner",
      "outputs": [
        {
          "internalType": "address",
          "name": "",
          "type": "address"
        }
      ],
      "stateMutability": "view",
      "type": "function"
    },
    {
      "inputs": [
        {
          "components": [
            {
              "internalType": "address",
              "name": "contractAddress",
              "type": "address"
            },
            {
              "internalType": "bytes",
              "name": "encodedData",
              "type": "bytes"
            },
            {
              "internalType": "uint256",
              "name": "maxQuoteAmount",
              "type": "uint256"
            },
            {
              "internalType": "uint256",
              "name": "price",
              "type": "uint256"
            },
            {
              "internalType": "int256",
              "name": "fee",
              "type": "int256"
            }
          ],
          "internalType": "struct IFillerMarket.SettlementParams",
          "name": "settlementParams",
          "type": "tuple"
        },
        {
          "internalType": "int256",
          "name": "baseAmountDelta",
          "type": "int256"
        }
      ],
      "name": "quoteSettlement",
      "outputs": [],
      "stateMutability": "nonpayable",
      "type": "function"
    },
    {
      "inputs": [
        {
          "internalType": "address",
          "name": "newOwner",
          "type": "address"
        }
      ],
      "name": "transferOwnership",
      "outputs": [],
      "stateMutability": "nonpayable",
      "type": "function"
    },
    {
      "inputs": [
        {
          "internalType": "address",
          "name": "settlementContractAddress",
          "type": "address"
        },
        {
          "internalType": "bool",
          "name": "isEnabled",
          "type": "bool"
        }
      ],
      "name": "updateWhitelistSettlement",
      "outputs": [],
      "stateMutability": "nonpayable",
      "type": "function"
    }
  ],
  "transactionHash": "0x6134bf101a0d9f94c85234ffb78caddaefbeb1131e220eb9f2a3ac7c943060c6",
  "args": [
    "0x000000000022d473030f116ddee9f6b43ac78ba3"
  ],
  "numDeployments": 1,
  "solcInputHash": "66385b4001793b3204c37450d0f24b48",
  "bytecode": "0x60a060405234801561001057600080fd5b506040516200244f3803806200244f83398101604081905261003191610084565b600080546001600160a01b031916339081178255604051839282917f8be0079c531659141344cd1fd0a4f28419497f9722a3daafe3b4186f6b6457e0908290a3506001600160a01b0316608052506100b4565b60006020828403121561009657600080fd5b81516001600160a01b03811681146100ad57600080fd5b9392505050565b60805161237f620000d0600039600061092c015261237f6000f3fe608060405234801561001057600080fd5b506004361061007d5760003560e01c80636dafb5dd1161005b5780636dafb5dd146100d05780638da5cb5b146100e3578063ceef8ab91461010e578063f2fde38b1461012157600080fd5b806328323e19146100825780632e973ed61461009757806333b9b87e146100aa575b600080fd5b6100956100903660046119bd565b610134565b005b6100956100a5366004611a10565b6101ab565b6100bd6100b8366004611a49565b610224565b6040519081526020015b60405180910390f35b6100bd6100de366004611b33565b6102e5565b6000546100f6906001600160a01b031681565b6040516001600160a01b0390911681526020016100c7565b6100bd61011c366004611c2e565b61038d565b61009561012f366004611ce6565b6103c3565b6000826080015161014490611d19565b9050600082131561016f5761015e83846060015184610457565b6101689082611d35565b905061019d565b600082121561019d576101908384606001518461018b90611d19565b610552565b61019a9082611d35565b90505b6101a68161064e565b505050565b6000546001600160a01b031633146101f95760405162461bcd60e51b815260206004820152600c60248201526b15539055551213d49256915160a21b60448201526064015b60405180910390fd5b6001600160a01b03919091166000908152600360205260409020805460ff1916911515919091179055565b6000806040518060e001604052806040518060800160405280306001600160a01b0316815260200188600001516001600160a01b03168152602001886020015181526020018860400151815250815260200186606001516001600160a01b0316815260200186608001516001600160a01b031681526020018660a0015181526020018660c0015181526020018660e0015181526020016040518060200160405280600081525081525090506102da818585610659565b9150505b9392505050565b6000806040518060e001604052806040518060800160405280306001600160a01b0316815260200188600001516001600160a01b03168152602001886020015181526020018860400151815250815260200186606001516001600160a01b0316815260200186608001516001600160a01b031681526020018660a0015181526020018660c001518152602001600081526020018660e0015181525090506102da818585610659565b60008083600001518060200190518101906103a89190611e31565b90506103b981856020015185610659565b9150505b92915050565b6000546001600160a01b0316331461040c5760405162461bcd60e51b815260206004820152600c60248201526b15539055551213d49256915160a21b60448201526064016101f0565b600080546001600160a01b0319166001600160a01b0383169081178255604051909133917f8be0079c531659141344cd1fd0a4f28419497f9722a3daafe3b4186f6b6457e09190a350565b82516000906001600160a01b0316610497576000600160601b61047a8585611ef3565b6104849190611f0a565b905061048f816107eb565b9150506102de565b83516020850151604051636de82b5f60e11b81526000926001600160a01b03169163dbd056be916104cd91908790600401611f58565b6020604051808303816000875af11580156104ec573d6000803e3d6000fd5b505050506040513d601f19601f820116820180604052508101906105109190611f7a565b9050836000036105235761048f816107eb565b6000600160601b6105348686611ef3565b61053e9190611f0a565b9050610549816107eb565b925050506102de565b82516000906001600160a01b0316610593576000600160601b6105758585611ef3565b61057f9190611f0a565b905061058a816107eb565b61048f90611d19565b835160208501516040516360e4b26360e11b81526000926001600160a01b03169163c1c964c6916105c991908790600401611f58565b6020604051808303816000875af11580156105e8573d6000803e3d6000fd5b505050506040513d601f19601f8201168201806040525081019061060c9190611f7a565b90508360000361061f5761058a816107eb565b6000600160601b6106308686611ef3565b61063a9190611f0a565b9050610645816107eb565b61054990611d19565b604051818152602081fd5b6000806106668585610859565b905061067181610921565b6060850151610681868583610acc565b925061069b8660600151848860a001518960c00151610d4a565b60008313156106c0576106bb866020015187600001516020015185610dad565b610729565b6000831215610729576000836106d988608001516107eb565b6106e39190611d35565b905060008112156107075760405163ac9a752f60e01b815260040160405180910390fd5b600081131561072757610727876020015188600001516020015183610dad565b505b600081131561074957610749866040015187600001516020015183610dad565b8560000151602001516001600160a01b03167f1fa92d572be074668841e6089c06236ec73c69fa571a2bff0e0c2e4a1bc58f563388604001518960200151858860008d60a001511161079c57600261079f565b60015b604080516001600160a01b039788168152958716602087015293909516928401929092526060830152608082015260ff90911660a082015260c00160405180910390a250509392505050565b60006001600160ff1b038211156108555760405162461bcd60e51b815260206004820152602860248201527f53616665436173743a2076616c756520646f65736e27742066697420696e2061604482015267371034b73a191a9b60c11b60648201526084016101f0565b5090565b6040805161012081018252600060a0820181815260c0830182905260e08301829052610100830182905282526020820181905291810182905260608082019290925260808101919091526000806000856060015113156108c557505060208301516080840151906108dc565b50604084015160608501516108d990611d19565b91505b6040518060a0016040528086600001518152602001826001600160a01b0316815260200183815260200161090f87610ea6565b81526020018590529250505092915050565b61092a81610fa5565b7f00000000000000000000000000000000000000000000000000000000000000006001600160a01b031663137c29fe6109ce836040805160a0810182526000606082018181526080830182905282526020820181905291810191909152506040805160a0810182526020808401516001600160a01b031660608084019182528585015160808501529083528451840151918301919091529251909201519082015290565b6040805180820182526000808252602091820152815180830183523081529186015190820152846000015160200151856060015160405180608001604052806047815260200161230360479139604051602001610a2a90611f93565b60408051601f1981840301815260608301909152602e8083529091906122d56020830139604051602001610a6093929190612085565b60408051601f198184030181529082905260808901516001600160e01b031960e089901b168352610a9796959493926004016120ec565b600060405180830381600087803b158015610ab157600080fd5b505af1158015610ac5573d6000803e3d6000fd5b5050505050565b60208301516040516370a0823160e01b815230600482015260009182916001600160a01b03909116906370a0823190602401602060405180830381865afa158015610b1b573d6000803e3d6000fd5b505050506040513d601f19601f82011682018060405250810190610b3f9190611f7a565b60408087015190516370a0823160e01b81523060048201529192506000916001600160a01b03909116906370a0823190602401602060405180830381865afa158015610b8f573d6000803e3d6000fd5b505050506040513d601f19601f82011682018060405250810190610bb39190611f7a565b6020870151600180546001600160a01b038084166001600160a01b03199283161790925560408a01516002805493821693909216929092179055919250610c039187610bfe88611d19565b610ff9565b60208601516040516370a0823160e01b81523060048201526000916001600160a01b0316906370a0823190602401602060405180830381865afa158015610c4e573d6000803e3d6000fd5b505050506040513d601f19601f82011682018060405250810190610c729190611f7a565b60408089015190516370a0823160e01b81523060048201529192506000916001600160a01b03909116906370a0823190602401602060405180830381865afa158015610cc2573d6000803e3d6000fd5b505050506040513d601f19601f82011682018060405250810190610ce69190611f7a565b9050610cf1816107eb565b610cfa846107eb565b610d049088611d35565b14610d22576040516363b28d5560e01b815260040160405180910390fd5b610d2b846107eb565b610d34836107eb565b610d3e919061218f565b98975050505050505050565b81600003610d7f57610d5d848483611095565b610d7a57604051630e90db3960e01b815260040160405180910390fd5b610da7565b610d8a84848461113b565b610da757604051637767781960e11b815260040160405180910390fd5b50505050565b604080516001600160a01b038481166024830152604480830185905283518084039091018152606490920183526020820180516001600160e01b031663a9059cbb60e01b1790529151600092839290871691610e0991906121b6565b6000604051808303816000865af19150503d8060008114610e46576040519150601f19603f3d011682016040523d82523d6000602084013e610e4b565b606091505b5091509150818015610e75575080511580610e75575080806020019051810190610e7591906121d2565b610ac55760405162461bcd60e51b815260206004820152600260248201526114d560f21b60448201526064016101f0565b6000604051602001610eb790611f93565b60408051601f198184030181526080830190915260478083529091906123036020830139604051602001610eec9291906121ef565b60405160208183030381529060405280519060200120610f0f83600001516111a1565b83602001518460400151856060015186608001518760a001518860c0015180519060200120604051602001610f8898979695949392919097885260208801969096526001600160a01b039485166040880152929093166060860152608085015260a084019190915260c083015260e08201526101000190565b604051602081830303815290604052805190602001209050919050565b8051516001600160a01b03163014610fd057604051639db8d5b160e01b815260040160405180910390fd5b805160600151421115610ff65760405163387b2e5560e11b815260040160405180910390fd5b50565b60008260800151121561102b5761102b3330846080015161101990611d19565b6001600160a01b03881692919061120b565b600081131561104a576110458484848560600151856112a0565b61106d565b600081121561106d5761106d84848485606001518561106890611d19565b61147a565b600082608001511315610da7576080820151610da7906001600160a01b038616903390611630565b600080828060200190518101906110ac919061221e565b905060006110cc82600001518360200151846040015185606001516116b1565b9050856000036110e1576000925050506102de565b60006110ec866116c9565b90506000871380156110fd57508082105b1561110e57600093505050506102de565b60008712801561111d57508082115b1561112e57600093505050506102de565b5060019695505050505050565b60008360000361114d575060006102de565b6000611158846116c9565b905060008513801561116957508083105b156111785760009150506102de565b60008512801561118757508083115b156111965760009150506102de565b506001949350505050565b60006040518060800160405280604781526020016123036047913980516020918201208351848301516040808701516060808901518351978801969096526001600160a01b03948516928701929092529290911690840152608083015260a082015260c001610f88565b60006040516323b872dd60e01b81526001600160a01b03851660048201526001600160a01b03841660248201528260448201526020600060648360008a5af13d15601f3d1160016000511416171691505080610ac55760405162461bcd60e51b81526020600482015260146024820152731514905394d1915497d19493d357d1905253115160621b60448201526064016101f0565b82516001600160a01b03166112fb576000600160601b6112c08484611ef3565b6112ca9190611f0a565b90506112e06001600160a01b0386163384611630565b6112f56001600160a01b03871633308461120b565b50610ac5565b825160405163095ea7b360e01b81526001600160a01b039182166004820152602481018390529085169063095ea7b3906044016020604051808303816000875af115801561134d573d6000803e3d6000fd5b505050506040513d601f19601f8201168201806040525081019061137191906121d2565b50825160208401516040808601519051624fb85160e01b81526000936001600160a01b031692624fb851926113b3928b928b9290918991903090600401612264565b6020604051808303816000875af11580156113d2573d6000803e3d6000fd5b505050506040513d601f19601f820116820180604052508101906113f69190611f7a565b90508215611472576000600160601b61140f8585611ef3565b6114199190611f0a565b90508181111561144957611444333061143285856122ae565b6001600160a01b038b1692919061120b565b611470565b80821115611470576114703361145f83856122ae565b6001600160a01b038a169190611630565b505b505050505050565b82516001600160a01b03166114cf576000600160601b61149a8484611ef3565b6114a49190611f0a565b90506114ba6001600160a01b0387163383611630565b6112f56001600160a01b03861633308561120b565b8251604080850151905163095ea7b360e01b81526001600160a01b0388169263095ea7b392611514926004016001600160a01b03929092168252602082015260400190565b6020604051808303816000875af1158015611533573d6000803e3d6000fd5b505050506040513d601f19601f8201168201806040525081019061155791906121d2565b508251602084015160408086015190516330d8000f60e01b81526000936001600160a01b0316926330d8000f9261159b928b928b9290918991903090600401612264565b6020604051808303816000875af11580156115ba573d6000803e3d6000fd5b505050506040513d601f19601f820116820180604052508101906115de9190611f7a565b90508215611472576000600160601b6115f78585611ef3565b6116019190611f0a565b905081811115611619576114443361145f84846122ae565b8082111561147057611470333061143284866122ae565b600060405163a9059cbb60e01b81526001600160a01b0384166004820152826024820152602060006044836000895af13d15601f3d1160016000511416171691505080610da75760405162461bcd60e51b815260206004820152600f60248201526e1514905394d1915497d19052531151608a1b60448201526064016101f0565b60006116c085858585426116dc565b95945050505050565b600080821215610855576103bd82611d19565b6000838310156116ff57604051634313345360e01b815260040160405180910390fd5b81831161170d5750836116c0565b81841061171b5750846116c0565b600061172785846122ae565b9050600061173586866122ae565b90508787101561177057808261174b898b6122ae565b6117559190611ef3565b61175f9190611f0a565b61176990896122ae565b925061179d565b808261177c8a8a6122ae565b6117869190611ef3565b6117909190611f0a565b61179a90896122c1565b92505b505095945050505050565b634e487b7160e01b600052604160045260246000fd5b604051610100810167ffffffffffffffff811182821017156117e2576117e26117a8565b60405290565b6040805190810167ffffffffffffffff811182821017156117e2576117e26117a8565b6040516080810167ffffffffffffffff811182821017156117e2576117e26117a8565b60405160e0810167ffffffffffffffff811182821017156117e2576117e26117a8565b604051601f8201601f1916810167ffffffffffffffff8111828210171561187a5761187a6117a8565b604052919050565b6001600160a01b0381168114610ff657600080fd5b80356118a281611882565b919050565b600067ffffffffffffffff8211156118c1576118c16117a8565b50601f01601f191660200190565b600082601f8301126118e057600080fd5b81356118f36118ee826118a7565b611851565b81815284602083860101111561190857600080fd5b816020850160208301376000918101602001919091529392505050565b600060a0828403121561193757600080fd5b60405160a0810167ffffffffffffffff828210818311171561195b5761195b6117a8565b816040528293508435915061196f82611882565b9082526020840135908082111561198557600080fd5b50611992858286016118cf565b6020830152506040830135604082015260608301356060820152608083013560808201525092915050565b600080604083850312156119d057600080fd5b823567ffffffffffffffff8111156119e757600080fd5b6119f385828601611925565b95602094909401359450505050565b8015158114610ff657600080fd5b60008060408385031215611a2357600080fd5b8235611a2e81611882565b91506020830135611a3e81611a02565b809150509250929050565b6000806000838503610140811215611a6057600080fd5b61010080821215611a7057600080fd5b611a786117be565b91508535611a8581611882565b808352506020860135602083015260408601356040830152611aa960608701611897565b6060830152611aba60808701611897565b608083015260a0868101359083015260c0808701359083015260e0808701359083015290935084013567ffffffffffffffff80821115611af957600080fd5b611b05878388016118cf565b9350610120860135915080821115611b1c57600080fd5b50611b2986828701611925565b9150509250925092565b600080600060608486031215611b4857600080fd5b833567ffffffffffffffff80821115611b6057600080fd5b908501906101008288031215611b7557600080fd5b611b7d6117be565b611b8683611897565b81526020830135602082015260408301356040820152611ba860608401611897565b6060820152611bb960808401611897565b608082015260a083013560a082015260c083013560c082015260e083013582811115611be457600080fd5b611bf0898286016118cf565b60e08301525094506020860135915080821115611c0c57600080fd5b611c18878388016118cf565b93506040860135915080821115611b1c57600080fd5b60008060408385031215611c4157600080fd5b823567ffffffffffffffff80821115611c5957600080fd5b9084019060408287031215611c6d57600080fd5b611c756117e8565b823582811115611c8457600080fd5b611c90888286016118cf565b825250602083013582811115611ca557600080fd5b611cb1888286016118cf565b602083015250809450506020850135915080821115611ccf57600080fd5b50611cdc85828601611925565b9150509250929050565b600060208284031215611cf857600080fd5b81356102de81611882565b634e487b7160e01b600052601160045260246000fd5b6000600160ff1b8201611d2e57611d2e611d03565b5060000390565b8082018281126000831280158216821582161715611d5557611d55611d03565b505092915050565b80516118a281611882565b600060808284031215611d7a57600080fd5b611d8261180b565b90508151611d8f81611882565b81526020820151611d9f81611882565b80602083015250604082015160408201526060820151606082015292915050565b60005b83811015611ddb578181015183820152602001611dc3565b50506000910152565b600082601f830112611df557600080fd5b8151611e036118ee826118a7565b818152846020838601011115611e1857600080fd5b611e29826020830160208701611dc0565b949350505050565b600060208284031215611e4357600080fd5b815167ffffffffffffffff80821115611e5b57600080fd5b908301906101408286031215611e7057600080fd5b611e7861182e565b611e828684611d68565b8152611e9060808401611d5d565b6020820152611ea160a08401611d5d565b604082015260c0830151606082015260e0830151608082015261010083015160a082015261012083015182811115611ed857600080fd5b611ee487828601611de4565b60c08301525095945050505050565b80820281158282048414176103bd576103bd611d03565b600082611f2757634e487b7160e01b600052601260045260246000fd5b500490565b60008151808452611f44816020860160208601611dc0565b601f01601f19169290920160200192915050565b604081526000611f6b6040830185611f2c565b90508260208301529392505050565b600060208284031215611f8c57600080fd5b5051919050565b690a6e0dee89ee4c8cae4560b31b81526e13dc99195c925b999bc81a5b999bcb608a1b600a820152721859191c995cdcc81c5d5bdd19551bdad95b8b606a1b6019820152711859191c995cdcc818985cd9551bdad95b8b60721b602c8201527f696e743235362062617365546f6b656e416d6f756e742c000000000000000000603e8201527f75696e743235362071756f7465546f6b656e416d6f756e742c0000000000000060558201527f75696e74323536206c696d697451756f7465546f6b656e416d6f756e742c0000606e8201527162797465732061756374696f6e446174612960701b608c820152609e0190565b7153706f744f72646572207769746e6573732960701b8152600084516120b2816012850160208901611dc0565b8451908301906120c9816012840160208901611dc0565b84519101906120df816012840160208801611dc0565b0160120195945050505050565b600061014061210f838a5180516001600160a01b03168252602090810151910152565b6020890151604084015260408901516060840152612143608084018980516001600160a01b03168252602090810151910152565b6001600160a01b03871660c084015260e08301869052610100830181905261216d81840186611f2c565b90508281036101208401526121828185611f2c565b9998505050505050505050565b81810360008312801583831316838312821617156121af576121af611d03565b5092915050565b600082516121c8818460208701611dc0565b9190910192915050565b6000602082840312156121e457600080fd5b81516102de81611a02565b60008351612201818460208801611dc0565b835190830190612215818360208801611dc0565b01949350505050565b60006080828403121561223057600080fd5b61223861180b565b825181526020830151602082015260408301516040820152606083015160608201528091505092915050565b600060018060a01b038089168352808816602084015260c0604084015261228e60c0840188611f2c565b6060840196909652608083019490945250911660a0909101529392505050565b818103818111156103bd576103bd611d03565b808201808211156103bd576103bd611d0356fe546f6b656e5065726d697373696f6e73286164647265737320746f6b656e2c75696e7432353620616d6f756e74294f72646572496e666f2861646472657373206d61726b65742c61646472657373207472616465722c75696e74323536206e6f6e63652c75696e7432353620646561646c696e6529a2646970667358221220d9fe3a677336f4daef54b9d9464a8628ef299e1310c939c06a9e2de8683d90ad64736f6c63430008130033",
  "devdoc": {
    "kind": "dev",
    "methods": {
      "executeOrder((bytes,bytes),(address,bytes,uint256,uint256,int256))": {
        "params": {
          "order": "The order signed by trader",
          "settlementParams": "The route of settlement created by filler"
        }
      },
      "updateWhitelistSettlement(address,bool)": {
        "details": "only owner can call this function"
      }
    },
    "version": 1
  },
  "userdoc": {
    "errors": {
      "DeadlinePassed()": [
        {
          "notice": "thrown if the order has expired"
        }
      ],
      "InvalidMarket()": [
        {
          "notice": "thrown when the order targets a different market contract"
        }
      ]
    },
    "kind": "user",
    "methods": {
      "executeOrder((bytes,bytes),(address,bytes,uint256,uint256,int256))": {
        "notice": "Verifies signature of the order and open new predict position"
      },
      "updateWhitelistSettlement(address,bool)": {
        "notice": "Updates the whitelist settlement address"
      }
    },
    "notice": "Spot market contract for Layer2. Optimizing calldata size in this contract since L2 calldata is relatively expensive.",
    "version": 1
  },
  "storageLayout": {
    "storage": [
      {
        "astId": 2600,
        "contract": "src/markets/spot/SpotMarketL2.sol:SpotMarketL2",
        "label": "owner",
        "offset": 0,
        "slot": "0",
        "type": "t_address"
      },
      {
        "astId": 23823,
        "contract": "src/markets/spot/SpotMarketL2.sol:SpotMarketL2",
        "label": "lockData",
        "offset": 0,
        "slot": "1",
        "type": "t_struct(LockData)23792_storage"
      },
      {
        "astId": 23827,
        "contract": "src/markets/spot/SpotMarketL2.sol:SpotMarketL2",
        "label": "_whiteListedSettlements",
        "offset": 0,
        "slot": "3",
        "type": "t_mapping(t_address,t_bool)"
      }
    ],
    "types": {
      "t_address": {
        "encoding": "inplace",
        "label": "address",
        "numberOfBytes": "20"
      },
      "t_bool": {
        "encoding": "inplace",
        "label": "bool",
        "numberOfBytes": "1"
      },
      "t_mapping(t_address,t_bool)": {
        "encoding": "mapping",
        "key": "t_address",
        "label": "mapping(address => bool)",
        "numberOfBytes": "32",
        "value": "t_bool"
      },
      "t_struct(LockData)23792_storage": {
        "encoding": "inplace",
        "label": "struct SpotMarket.LockData",
        "members": [
          {
            "astId": 23789,
            "contract": "src/markets/spot/SpotMarketL2.sol:SpotMarketL2",
            "label": "quoteToken",
            "offset": 0,
            "slot": "0",
            "type": "t_address"
          },
          {
            "astId": 23791,
            "contract": "src/markets/spot/SpotMarketL2.sol:SpotMarketL2",
            "label": "baseToken",
            "offset": 0,
            "slot": "1",
            "type": "t_address"
          }
        ],
        "numberOfBytes": "64"
      }
    }
  }
}