{
  "address": "0x5f1E0379D04f77d221fbFa4c4D6105d097Fd690C",
  "abi": [
    {
      "inputs": [
        {
          "internalType": "address",
          "name": "swapRouterAddress",
          "type": "address"
        },
        {
          "internalType": "address",
          "name": "quoterAddress",
          "type": "address"
        }
      ],
      "stateMutability": "nonpayable",
      "type": "constructor"
    },
    {
      "inputs": [
        {
          "internalType": "bytes",
          "name": "data",
          "type": "bytes"
        },
        {
          "internalType": "uint256",
          "name": "amountIn",
          "type": "uint256"
        }
      ],
      "name": "quoteSwapExactIn",
      "outputs": [
        {
          "internalType": "uint256",
          "name": "amountOut",
          "type": "uint256"
        }
      ],
      "stateMutability": "nonpayable",
      "type": "function"
    },
    {
      "inputs": [
        {
          "internalType": "bytes",
          "name": "data",
          "type": "bytes"
        },
        {
          "internalType": "uint256",
          "name": "amountOut",
          "type": "uint256"
        }
      ],
      "name": "quoteSwapExactOut",
      "outputs": [
        {
          "internalType": "uint256",
          "name": "amountIn",
          "type": "uint256"
        }
      ],
      "stateMutability": "nonpayable",
      "type": "function"
    },
    {
      "inputs": [
        {
          "internalType": "address",
          "name": "",
          "type": "address"
        },
        {
          "internalType": "address",
          "name": "baseToken",
          "type": "address"
        },
        {
          "internalType": "bytes",
          "name": "data",
          "type": "bytes"
        },
        {
          "internalType": "uint256",
          "name": "amountIn",
          "type": "uint256"
        },
        {
          "internalType": "uint256",
          "name": "amountOutMinimum",
          "type": "uint256"
        },
        {
          "internalType": "address",
          "name": "recipient",
          "type": "address"
        }
      ],
      "name": "swapExactIn",
      "outputs": [
        {
          "internalType": "uint256",
          "name": "amountOut",
          "type": "uint256"
        }
      ],
      "stateMutability": "nonpayable",
      "type": "function"
    },
    {
      "inputs": [
        {
          "internalType": "address",
          "name": "quoteToken",
          "type": "address"
        },
        {
          "internalType": "address",
          "name": "",
          "type": "address"
        },
        {
          "internalType": "bytes",
          "name": "data",
          "type": "bytes"
        },
        {
          "internalType": "uint256",
          "name": "amountOut",
          "type": "uint256"
        },
        {
          "internalType": "uint256",
          "name": "amountInMaximum",
          "type": "uint256"
        },
        {
          "internalType": "address",
          "name": "recipient",
          "type": "address"
        }
      ],
      "name": "swapExactOut",
      "outputs": [
        {
          "internalType": "uint256",
          "name": "amountIn",
          "type": "uint256"
        }
      ],
      "stateMutability": "nonpayable",
      "type": "function"
    }
  ],
  "transactionHash": "0x4f1babd32388bb0fe81ce5246855a53b8835956ee2adfb2fbe7af445b801c930",
  "args": [
    "0xE592427A0AEce92De3Edee1F18E0157C05861564",
    "0x61fFE014bA17989E743c5F6cB21bF9697530B21e"
  ],
  "numDeployments": 1,
  "solcInputHash": "5bdbb8d21fc18e3c1253724388bc7a46",
  "bytecode": "0x60c060405234801561001057600080fd5b50604051610b2f380380610b2f83398101604081905261002f91610062565b6001600160a01b039182166080521660a052610095565b80516001600160a01b038116811461005d57600080fd5b919050565b6000806040838503121561007557600080fd5b61007e83610046565b915061008c60208401610046565b90509250929050565b60805160a051610a5a6100d5600039600081816103d8015261047b01526000818160dc0152818161015b0152818161025001526102cf0152610a5a6000f3fe608060405234801561001057600080fd5b506004361061004b5760003560e01c80624fb8511461005057806330d8000f14610075578063c1c964c614610088578063dbd056be1461009b575b600080fd5b61006361005e3660046106a9565b6100ae565b60405190815260200160405180910390f35b6100636100833660046106a9565b610222565b610063610096366004610732565b6103be565b6100636100a9366004610732565b610461565b60006100c56001600160a01b0387163330876104b2565b60405163095ea7b360e01b81526001600160a01b037f0000000000000000000000000000000000000000000000000000000000000000811660048301526024820186905287169063095ea7b3906044016020604051808303816000875af1158015610134573d6000803e3d6000fd5b505050506040513d601f19601f820116820180604052508101906101589190610777565b507f00000000000000000000000000000000000000000000000000000000000000006001600160a01b031663c04b8d596040518060a00160405280888152602001856001600160a01b03168152602001428152602001878152602001868152506040518263ffffffff1660e01b81526004016101d49190610837565b6020604051808303816000875af11580156101f3573d6000803e3d6000fd5b505050506040513d601f19601f82011682018060405250810190610217919061084a565b979650505050505050565b60006102396001600160a01b0388163330866104b2565b60405163095ea7b360e01b81526001600160a01b037f0000000000000000000000000000000000000000000000000000000000000000811660048301526024820185905288169063095ea7b3906044016020604051808303816000875af11580156102a8573d6000803e3d6000fd5b505050506040513d601f19601f820116820180604052508101906102cc9190610777565b507f00000000000000000000000000000000000000000000000000000000000000006001600160a01b031663f28c04986040518060a00160405280888152602001856001600160a01b03168152602001428152602001878152602001868152506040518263ffffffff1660e01b81526004016103489190610837565b6020604051808303816000875af1158015610367573d6000803e3d6000fd5b505050506040513d601f19601f8201168201806040525081019061038b919061084a565b9050808311156103b4576103b4336103a38386610863565b6001600160a01b038a169190610553565b9695505050505050565b604051632f80bb1d60e01b81526000906001600160a01b037f00000000000000000000000000000000000000000000000000000000000000001690632f80bb1d9061040f908690869060040161088a565b6000604051808303816000875af115801561042e573d6000803e3d6000fd5b505050506040513d6000823e601f3d908101601f19168201604052610456919081019061094e565b509195945050505050565b60405163cdca175360e01b81526000906001600160a01b037f0000000000000000000000000000000000000000000000000000000000000000169063cdca17539061040f908690869060040161088a565b60006040516323b872dd60e01b81526001600160a01b03851660048201526001600160a01b03841660248201528260448201526020600060648360008a5af13d15601f3d116001600051141617169150508061054c5760405162461bcd60e51b81526020600482015260146024820152731514905394d1915497d19493d357d1905253115160621b60448201526064015b60405180910390fd5b5050505050565b600060405163a9059cbb60e01b81526001600160a01b0384166004820152826024820152602060006044836000895af13d15601f3d11600160005114161716915050806105d45760405162461bcd60e51b815260206004820152600f60248201526e1514905394d1915497d19052531151608a1b6044820152606401610543565b50505050565b6001600160a01b03811681146105ef57600080fd5b50565b634e487b7160e01b600052604160045260246000fd5b604051601f8201601f1916810167ffffffffffffffff81118282101715610631576106316105f2565b604052919050565b600082601f83011261064a57600080fd5b813567ffffffffffffffff811115610664576106646105f2565b610677601f8201601f1916602001610608565b81815284602083860101111561068c57600080fd5b816020850160208301376000918101602001919091529392505050565b60008060008060008060c087890312156106c257600080fd5b86356106cd816105da565b955060208701356106dd816105da565b9450604087013567ffffffffffffffff8111156106f957600080fd5b61070589828a01610639565b945050606087013592506080870135915060a0870135610724816105da565b809150509295509295509295565b6000806040838503121561074557600080fd5b823567ffffffffffffffff81111561075c57600080fd5b61076885828601610639565b95602094909401359450505050565b60006020828403121561078957600080fd5b8151801515811461079957600080fd5b9392505050565b6000815180845260005b818110156107c6576020818501810151868301820152016107aa565b506000602082860101526020601f19601f83011685010191505092915050565b6000815160a084526107fb60a08501826107a0565b6020848101516001600160a01b031690860152604080850151908601526060808501519086015260809384015193909401929092525090919050565b60208152600061079960208301846107e6565b60006020828403121561085c57600080fd5b5051919050565b8181038181111561088457634e487b7160e01b600052601160045260246000fd5b92915050565b60408152600061089d60408301856107a0565b90508260208301529392505050565b600067ffffffffffffffff8211156108c6576108c66105f2565b5060051b60200190565b600082601f8301126108e157600080fd5b815160206108f66108f1836108ac565b610608565b82815260059290921b8401810191818101908684111561091557600080fd5b8286015b8481101561094357805163ffffffff811681146109365760008081fd5b8352918301918301610919565b509695505050505050565b6000806000806080858703121561096457600080fd5b8451935060208086015167ffffffffffffffff8082111561098457600080fd5b818801915088601f83011261099857600080fd5b81516109a66108f1826108ac565b81815260059190911b8301840190848101908b8311156109c557600080fd5b938501935b828510156109ec5784516109dd816105da565b825293850193908501906109ca565b60408b01519098509450505080831115610a0557600080fd5b5050610a13878288016108d0565b60609690960151949793965050505056fea264697066735822122079ca88476da2f9e6690484b46f3a98144dc62ce5c6a821616b429cb7b856cca864736f6c63430008130033",
  "devdoc": {
    "kind": "dev",
    "methods": {},
    "version": 1
  },
  "userdoc": {
    "kind": "user",
    "methods": {},
    "version": 1
  },
  "storageLayout": {
    "storage": [],
    "types": null
  }
}